{
  "contractName": "MyERC20Tokens",
  "abi": [
    {
      "inputs": [],
      "stateMutability": "nonpayable",
      "type": "constructor"
    },
    {
      "anonymous": false,
      "inputs": [
        {
          "indexed": true,
          "internalType": "address",
          "name": "owner",
          "type": "address"
        },
        {
          "indexed": true,
          "internalType": "address",
          "name": "spender",
          "type": "address"
        },
        {
          "indexed": false,
          "internalType": "uint256",
          "name": "value",
          "type": "uint256"
        }
      ],
      "name": "ApprovalEvt",
      "type": "event"
    },
    {
      "anonymous": false,
      "inputs": [
        {
          "indexed": false,
          "internalType": "address",
          "name": "from",
          "type": "address"
        },
        {
          "indexed": false,
          "internalType": "uint256",
          "name": "value",
          "type": "uint256"
        }
      ],
      "name": "BurnEvt",
      "type": "event"
    },
    {
      "anonymous": false,
      "inputs": [
        {
          "indexed": true,
          "internalType": "address",
          "name": "previousOwner",
          "type": "address"
        },
        {
          "indexed": true,
          "internalType": "address",
          "name": "newOwner",
          "type": "address"
        }
      ],
      "name": "OwnershipTransferred",
      "type": "event"
    },
    {
      "anonymous": false,
      "inputs": [
        {
          "indexed": false,
          "internalType": "address",
          "name": "account",
          "type": "address"
        }
      ],
      "name": "PausedEvt",
      "type": "event"
    },
    {
      "anonymous": false,
      "inputs": [
        {
          "indexed": true,
          "internalType": "address",
          "name": "from",
          "type": "address"
        },
        {
          "indexed": true,
          "internalType": "address",
          "name": "to",
          "type": "address"
        },
        {
          "indexed": false,
          "internalType": "uint256",
          "name": "value",
          "type": "uint256"
        }
      ],
      "name": "TransferEvt",
      "type": "event"
    },
    {
      "anonymous": false,
      "inputs": [
        {
          "indexed": false,
          "internalType": "address",
          "name": "account",
          "type": "address"
        }
      ],
      "name": "UnpausedEvt",
      "type": "event"
    },
    {
      "inputs": [],
      "name": "NON_WHITELIST_CODE",
      "outputs": [
        {
          "internalType": "uint8",
          "name": "",
          "type": "uint8"
        }
      ],
      "stateMutability": "view",
      "type": "function",
      "constant": true
    },
    {
      "inputs": [],
      "name": "NON_WHITELIST_ERROR",
      "outputs": [
        {
          "internalType": "string",
          "name": "",
          "type": "string"
        }
      ],
      "stateMutability": "view",
      "type": "function",
      "constant": true
    },
    {
      "inputs": [],
      "name": "SUCCESS_CODE",
      "outputs": [
        {
          "internalType": "uint8",
          "name": "",
          "type": "uint8"
        }
      ],
      "stateMutability": "view",
      "type": "function",
      "constant": true
    },
    {
      "inputs": [],
      "name": "SUCCESS_MESSAGE",
      "outputs": [
        {
          "internalType": "string",
          "name": "",
          "type": "string"
        }
      ],
      "stateMutability": "view",
      "type": "function",
      "constant": true
    },
    {
      "inputs": [
        {
          "internalType": "address",
          "name": "account",
          "type": "address"
        }
      ],
      "name": "addAdmin",
      "outputs": [],
      "stateMutability": "nonpayable",
      "type": "function"
    },
    {
      "inputs": [
        {
          "internalType": "address",
          "name": "account",
          "type": "address"
        }
      ],
      "name": "addWhitelist",
      "outputs": [],
      "stateMutability": "nonpayable",
      "type": "function"
    },
    {
      "inputs": [
        {
          "internalType": "address",
          "name": "account",
          "type": "address"
        }
      ],
      "name": "isAdmin",
      "outputs": [
        {
          "internalType": "bool",
          "name": "",
          "type": "bool"
        }
      ],
      "stateMutability": "view",
      "type": "function",
      "constant": true
    },
    {
      "inputs": [
        {
          "internalType": "address",
          "name": "account",
          "type": "address"
        }
      ],
      "name": "isWhitelist",
      "outputs": [
        {
          "internalType": "bool",
          "name": "",
          "type": "bool"
        }
      ],
      "stateMutability": "view",
      "type": "function",
      "constant": true
    },
    {
      "inputs": [],
      "name": "pause",
      "outputs": [],
      "stateMutability": "nonpayable",
      "type": "function"
    },
    {
      "inputs": [
        {
          "internalType": "address",
          "name": "account",
          "type": "address"
        }
      ],
      "name": "removeAdmin",
      "outputs": [],
      "stateMutability": "nonpayable",
      "type": "function"
    },
    {
      "inputs": [
        {
          "internalType": "address",
          "name": "account",
          "type": "address"
        }
      ],
      "name": "removeWhitelisted",
      "outputs": [],
      "stateMutability": "nonpayable",
      "type": "function"
    },
    {
      "inputs": [],
      "name": "tokenSummary",
      "outputs": [
        {
          "internalType": "address",
          "name": "initialAccount",
          "type": "address"
        },
        {
          "internalType": "string",
          "name": "name",
          "type": "string"
        },
        {
          "internalType": "string",
          "name": "symbol",
          "type": "string"
        }
      ],
      "stateMutability": "view",
      "type": "function",
      "constant": true
    },
    {
      "inputs": [
        {
          "internalType": "address",
          "name": "newOwner",
          "type": "address"
        }
      ],
      "name": "transferOwnership",
      "outputs": [],
      "stateMutability": "nonpayable",
      "type": "function"
    },
    {
      "inputs": [],
      "name": "unpause",
      "outputs": [],
      "stateMutability": "nonpayable",
      "type": "function"
    },
    {
      "inputs": [
        {
          "internalType": "address",
          "name": "to",
          "type": "address"
        }
      ],
      "name": "validateTransferRestricted",
      "outputs": [
        {
          "internalType": "uint8",
          "name": "restrictionCode",
          "type": "uint8"
        }
      ],
      "stateMutability": "view",
      "type": "function",
      "constant": true
    },
    {
      "inputs": [
        {
          "internalType": "uint8",
          "name": "restrictionCode",
          "type": "uint8"
        }
      ],
      "name": "messageHandler",
      "outputs": [
        {
          "internalType": "string",
          "name": "message",
          "type": "string"
        }
      ],
      "stateMutability": "pure",
      "type": "function",
      "constant": true
    },
    {
      "inputs": [],
      "name": "totalSupply",
      "outputs": [
        {
          "internalType": "uint256",
          "name": "",
          "type": "uint256"
        }
      ],
      "stateMutability": "view",
      "type": "function",
      "constant": true
    },
    {
      "inputs": [
        {
          "internalType": "address",
          "name": "account",
          "type": "address"
        }
      ],
      "name": "balanceOf",
      "outputs": [
        {
          "internalType": "uint256",
          "name": "",
          "type": "uint256"
        }
      ],
      "stateMutability": "view",
      "type": "function",
      "constant": true
    },
    {
      "inputs": [
        {
          "internalType": "address",
          "name": "to",
          "type": "address"
        },
        {
          "internalType": "uint256",
          "name": "value",
          "type": "uint256"
        }
      ],
      "name": "transfer",
      "outputs": [
        {
          "internalType": "bool",
          "name": "success",
          "type": "bool"
        }
      ],
      "stateMutability": "nonpayable",
      "type": "function"
    },
    {
      "inputs": [
        {
          "internalType": "address",
          "name": "from",
          "type": "address"
        },
        {
          "internalType": "address",
          "name": "spender",
          "type": "address"
        },
        {
          "internalType": "uint256",
          "name": "value",
          "type": "uint256"
        }
      ],
      "name": "transferFrom",
      "outputs": [
        {
          "internalType": "bool",
          "name": "",
          "type": "bool"
        }
      ],
      "stateMutability": "nonpayable",
      "type": "function"
    },
    {
      "inputs": [
        {
          "internalType": "address",
          "name": "ownerAddress",
          "type": "address"
        },
        {
          "internalType": "address",
          "name": "spender",
          "type": "address"
        }
      ],
      "name": "allowance",
      "outputs": [
        {
          "internalType": "uint256",
          "name": "",
          "type": "uint256"
        }
      ],
      "stateMutability": "view",
      "type": "function",
      "constant": true
    },
    {
      "inputs": [
        {
          "internalType": "address",
          "name": "spender",
          "type": "address"
        },
        {
          "internalType": "uint256",
          "name": "value",
          "type": "uint256"
        }
      ],
      "name": "approve",
      "outputs": [
        {
          "internalType": "bool",
          "name": "",
          "type": "bool"
        }
      ],
      "stateMutability": "nonpayable",
      "type": "function"
    },
    {
      "inputs": [
        {
          "internalType": "uint256",
          "name": "value",
          "type": "uint256"
        }
      ],
      "name": "burn",
      "outputs": [
        {
          "internalType": "bool",
          "name": "success",
          "type": "bool"
        }
      ],
      "stateMutability": "nonpayable",
      "type": "function"
    },
    {
      "inputs": [
        {
          "internalType": "address",
          "name": "account",
          "type": "address"
        },
        {
          "internalType": "uint256",
          "name": "value",
          "type": "uint256"
        }
      ],
      "name": "mint",
      "outputs": [
        {
          "internalType": "bool",
          "name": "",
          "type": "bool"
        }
      ],
      "stateMutability": "nonpayable",
      "type": "function"
    }
  ],
  "bytecode": "0x60806040523480156200001157600080fd5b50336000806101000a81548173ffffffffffffffffffffffffffffffffffffffff021916908373ffffffffffffffffffffffffffffffffffffffff16021790555060018060003373ffffffffffffffffffffffffffffffffffffffff1673ffffffffffffffffffffffffffffffffffffffff16815260200190815260200160002060006101000a81548160ff0219169083151502179055506000600360006101000a81548160ff021916908315150217905550620000d5336200024f60201b60201c565b6103e8600760003373ffffffffffffffffffffffffffffffffffffffff1673ffffffffffffffffffffffffffffffffffffffff168152602001908152602001600020819055506103e860098190555060405180606001604052803373ffffffffffffffffffffffffffffffffffffffff1681526020016040518060400160405280600e81526020017f4d7920455243323020546f6b656e00000000000000000000000000000000000081525081526020016040518060400160405280600381526020017f4d544b0000000000000000000000000000000000000000000000000000000000815250815250600460008201518160000160006101000a81548173ffffffffffffffffffffffffffffffffffffffff021916908373ffffffffffffffffffffffffffffffffffffffff16021790555060208201518160010190805190602001906200022692919062000393565b5060408201518160020190805190602001906200024592919062000393565b50905050620004a8565b600160003373ffffffffffffffffffffffffffffffffffffffff1673ffffffffffffffffffffffffffffffffffffffff16815260200190815260200160002060009054906101000a900460ff16620002a657600080fd5b600073ffffffffffffffffffffffffffffffffffffffff168173ffffffffffffffffffffffffffffffffffffffff16141580156200032e5750600260008273ffffffffffffffffffffffffffffffffffffffff1673ffffffffffffffffffffffffffffffffffffffff16815260200190815260200160002060009054906101000a900460ff16155b6200033857600080fd5b6001600260008373ffffffffffffffffffffffffffffffffffffffff1673ffffffffffffffffffffffffffffffffffffffff16815260200190815260200160002060006101000a81548160ff02191690831515021790555050565b828054620003a19062000472565b90600052602060002090601f016020900481019282620003c5576000855562000411565b82601f10620003e057805160ff191683800117855562000411565b8280016001018555821562000411579182015b8281111562000410578251825591602001919060010190620003f3565b5b50905062000420919062000424565b5090565b5b808211156200043f57600081600090555060010162000425565b5090565b7f4e487b7100000000000000000000000000000000000000000000000000000000600052602260045260246000fd5b600060028204905060018216806200048b57607f821691505b60208210811415620004a257620004a162000443565b5b50919050565b61223480620004b86000396000f3fe608060405234801561001057600080fd5b50600436106101585760003560e01c806342966c68116100c3578063a9059cbb1161007c578063a9059cbb146103dd578063c683630d1461040d578063dd62ed3e1461043d578063e7984d171461046d578063f2fde38b1461048b578063f80f5dd5146104a757610158565b806342966c68146102f757806343f432d514610327578063704802751461035757806370a08231146103735780638456cb59146103a35780639033cb28146103ad57610158565b806323b872dd1161011557806323b872dd146102235780632431691c1461025357806324d7806c14610271578063291d9549146102a15780633f4ba83a146102bd57806340c10f19146102c757610158565b8063095ea7b31461015d5780630e969a051461018d5780631785f53c146101ab57806318160ddd146101c75780631fc37784146101e557806322baf96d14610205575b600080fd5b61017760048036038101906101729190611cb7565b6104c3565b6040516101849190611d12565b60405180910390f35b6101956105ee565b6040516101a29190611d49565b60405180910390f35b6101c560048036038101906101c09190611d64565b6105f3565b005b6101cf610735565b6040516101dc9190611da0565b60405180910390f35b6101ed61073f565b6040516101fc93929190611e63565b60405180910390f35b61020d610887565b60405161021a9190611ea8565b60405180910390f35b61023d60048036038101906102389190611eca565b6108a3565b60405161024a9190611d12565b60405180910390f35b61025b610cc9565b6040516102689190611d49565b60405180910390f35b61028b60048036038101906102869190611d64565b610cce565b6040516102989190611d12565b60405180910390f35b6102bb60048036038101906102b69190611d64565b610d7d565b005b6102c5610ebd565b005b6102e160048036038101906102dc9190611cb7565b610f80565b6040516102ee9190611d12565b60405180910390f35b610311600480360381019061030c9190611f1d565b611148565b60405161031e9190611d12565b60405180910390f35b610341600480360381019061033c9190611f76565b6112b7565b60405161034e9190611ea8565b60405180910390f35b610371600480360381019061036c9190611d64565b611336565b005b61038d60048036038101906103889190611d64565b611478565b60405161039a9190611da0565b60405180910390f35b6103ab6114c1565b005b6103c760048036038101906103c29190611d64565b611585565b6040516103d49190611d49565b60405180910390f35b6103f760048036038101906103f29190611cb7565b6115a7565b6040516104049190611d12565b60405180910390f35b61042760048036038101906104229190611d64565b61183b565b6040516104349190611d12565b60405180910390f35b61045760048036038101906104529190611fa3565b611891565b6040516104649190611da0565b60405180910390f35b610475611918565b6040516104829190611ea8565b60405180910390f35b6104a560048036038101906104a09190611d64565b611951565b005b6104c160048036038101906104bc9190611d64565b611add565b005b60008073ffffffffffffffffffffffffffffffffffffffff168373ffffffffffffffffffffffffffffffffffffffff1614156104fe57600080fd5b81600860003373ffffffffffffffffffffffffffffffffffffffff1673ffffffffffffffffffffffffffffffffffffffff16815260200190815260200160002060008573ffffffffffffffffffffffffffffffffffffffff1673ffffffffffffffffffffffffffffffffffffffff168152602001908152602001600020819055508273ffffffffffffffffffffffffffffffffffffffff163373ffffffffffffffffffffffffffffffffffffffff167f691ef3c0b09c57e04b93ef9883336316bc247ae4e9c971dcec14bbd711cbb0b2846040516105dc9190611da0565b60405180910390a36001905092915050565b600081565b60008054906101000a900473ffffffffffffffffffffffffffffffffffffffff1673ffffffffffffffffffffffffffffffffffffffff163373ffffffffffffffffffffffffffffffffffffffff161461064b57600080fd5b600073ffffffffffffffffffffffffffffffffffffffff168173ffffffffffffffffffffffffffffffffffffffff16141580156106d15750600160008273ffffffffffffffffffffffffffffffffffffffff1673ffffffffffffffffffffffffffffffffffffffff16815260200190815260200160002060009054906101000a900460ff165b6106da57600080fd5b6000600160008373ffffffffffffffffffffffffffffffffffffffff1673ffffffffffffffffffffffffffffffffffffffff16815260200190815260200160002060006101000a81548160ff02191690831515021790555050565b6000600954905090565b60048060000160009054906101000a900473ffffffffffffffffffffffffffffffffffffffff169080600101805461077690612012565b80601f01602080910402602001604051908101604052809291908181526020018280546107a290612012565b80156107ef5780601f106107c4576101008083540402835291602001916107ef565b820191906000526020600020905b8154815290600101906020018083116107d257829003601f168201915b50505050509080600201805461080490612012565b80601f016020809104026020016040519081016040528092919081815260200182805461083090612012565b801561087d5780601f106108525761010080835404028352916020019161087d565b820191906000526020600020905b81548152906001019060200180831161086057829003601f168201915b5050505050905083565b6040518060600160405280602b81526020016121d4602b913981565b600083838360006108b383611585565b9050600060ff168160ff16146108c8826112b7565b90610909576040517f08c379a00000000000000000000000000000000000000000000000000000000081526004016109009190611ea8565b60405180910390fd5b50600360009054906101000a900460ff161561092457600080fd5b600073ffffffffffffffffffffffffffffffffffffffff168773ffffffffffffffffffffffffffffffffffffffff16141580156109a05750600760008973ffffffffffffffffffffffffffffffffffffffff1673ffffffffffffffffffffffffffffffffffffffff168152602001908152602001600020548611155b8015610a285750600860008973ffffffffffffffffffffffffffffffffffffffff1673ffffffffffffffffffffffffffffffffffffffff16815260200190815260200160002060003373ffffffffffffffffffffffffffffffffffffffff1673ffffffffffffffffffffffffffffffffffffffff168152602001908152602001600020548611155b610a3157600080fd5b85600760008a73ffffffffffffffffffffffffffffffffffffffff1673ffffffffffffffffffffffffffffffffffffffff16815260200190815260200160002054610a7c9190612073565b600760008a73ffffffffffffffffffffffffffffffffffffffff1673ffffffffffffffffffffffffffffffffffffffff1681526020019081526020016000208190555085600760008973ffffffffffffffffffffffffffffffffffffffff1673ffffffffffffffffffffffffffffffffffffffff16815260200190815260200160002054610b0a91906120a7565b600760008973ffffffffffffffffffffffffffffffffffffffff1673ffffffffffffffffffffffffffffffffffffffff1681526020019081526020016000208190555085600860008a73ffffffffffffffffffffffffffffffffffffffff1673ffffffffffffffffffffffffffffffffffffffff16815260200190815260200160002060003373ffffffffffffffffffffffffffffffffffffffff1673ffffffffffffffffffffffffffffffffffffffff16815260200190815260200160002054610bd59190612073565b600860008a73ffffffffffffffffffffffffffffffffffffffff1673ffffffffffffffffffffffffffffffffffffffff16815260200190815260200160002060003373ffffffffffffffffffffffffffffffffffffffff1673ffffffffffffffffffffffffffffffffffffffff168152602001908152602001600020819055508673ffffffffffffffffffffffffffffffffffffffff168873ffffffffffffffffffffffffffffffffffffffff167f8761302fd39919211f15c433cf3a700d5d794b3e76fbc406d2b5f804f1f37b1f88604051610cb29190611da0565b60405180910390a360019450505050509392505050565b600181565b60008060009054906101000a900473ffffffffffffffffffffffffffffffffffffffff1673ffffffffffffffffffffffffffffffffffffffff163373ffffffffffffffffffffffffffffffffffffffff1614610d2957600080fd5b600160008373ffffffffffffffffffffffffffffffffffffffff1673ffffffffffffffffffffffffffffffffffffffff16815260200190815260200160002060009054906101000a900460ff169050919050565b600160003373ffffffffffffffffffffffffffffffffffffffff1673ffffffffffffffffffffffffffffffffffffffff16815260200190815260200160002060009054906101000a900460ff16610dd357600080fd5b600073ffffffffffffffffffffffffffffffffffffffff168173ffffffffffffffffffffffffffffffffffffffff1614158015610e595750600260008273ffffffffffffffffffffffffffffffffffffffff1673ffffffffffffffffffffffffffffffffffffffff16815260200190815260200160002060009054906101000a900460ff165b610e6257600080fd5b6000600260008373ffffffffffffffffffffffffffffffffffffffff1673ffffffffffffffffffffffffffffffffffffffff16815260200190815260200160002060006101000a81548160ff02191690831515021790555050565b600160003373ffffffffffffffffffffffffffffffffffffffff1673ffffffffffffffffffffffffffffffffffffffff16815260200190815260200160002060009054906101000a900460ff16610f1357600080fd5b600360009054906101000a900460ff16610f2c57600080fd5b6000600360006101000a81548160ff0219169083151502179055507f5b458f30661b64d53169f3d852fe57bbaf55cb8f5615af19114f2c9b7bb52c0e33604051610f7691906120fd565b60405180910390a1565b6000600360009054906101000a900460ff1615610f9c57600080fd5b600160003373ffffffffffffffffffffffffffffffffffffffff1673ffffffffffffffffffffffffffffffffffffffff16815260200190815260200160002060009054906101000a900460ff16610ff257600080fd5b600073ffffffffffffffffffffffffffffffffffffffff168373ffffffffffffffffffffffffffffffffffffffff16141561102c57600080fd5b816009600082825461103e91906120a7565b92505081905560098190555081600760008573ffffffffffffffffffffffffffffffffffffffff1673ffffffffffffffffffffffffffffffffffffffff1681526020019081526020016000205461109591906120a7565b600760008573ffffffffffffffffffffffffffffffffffffffff1673ffffffffffffffffffffffffffffffffffffffff168152602001908152602001600020819055508273ffffffffffffffffffffffffffffffffffffffff16600073ffffffffffffffffffffffffffffffffffffffff167f8761302fd39919211f15c433cf3a700d5d794b3e76fbc406d2b5f804f1f37b1f846040516111369190611da0565b60405180910390a36001905092915050565b6000600360009054906101000a900460ff161561116457600080fd5b600160003373ffffffffffffffffffffffffffffffffffffffff1673ffffffffffffffffffffffffffffffffffffffff16815260200190815260200160002060009054906101000a900460ff166111ba57600080fd5b81600760003373ffffffffffffffffffffffffffffffffffffffff1673ffffffffffffffffffffffffffffffffffffffff16815260200190815260200160002054101561120657600080fd5b81600760003373ffffffffffffffffffffffffffffffffffffffff1673ffffffffffffffffffffffffffffffffffffffff16815260200190815260200160002060008282546112559190612073565b92505081905550816009600082825461126e9190612073565b925050819055507f32d635f5978bba905f7bdb2e64bdba74f2143123b0aabcf1ba7f3d11ba9d505033836040516112a6929190612118565b60405180910390a160019050919050565b6060600060ff168260ff161415611305576040518060400160405280600781526020017f53554343455353000000000000000000000000000000000000000000000000008152509050611331565b600160ff168260ff161415611330576040518060600160405280602b81526020016121d4602b913990505b5b919050565b60008054906101000a900473ffffffffffffffffffffffffffffffffffffffff1673ffffffffffffffffffffffffffffffffffffffff163373ffffffffffffffffffffffffffffffffffffffff161461138e57600080fd5b600073ffffffffffffffffffffffffffffffffffffffff168173ffffffffffffffffffffffffffffffffffffffff16141580156114155750600160008273ffffffffffffffffffffffffffffffffffffffff1673ffffffffffffffffffffffffffffffffffffffff16815260200190815260200160002060009054906101000a900460ff16155b61141e57600080fd5b60018060008373ffffffffffffffffffffffffffffffffffffffff1673ffffffffffffffffffffffffffffffffffffffff16815260200190815260200160002060006101000a81548160ff02191690831515021790555050565b6000600760008373ffffffffffffffffffffffffffffffffffffffff1673ffffffffffffffffffffffffffffffffffffffff168152602001908152602001600020549050919050565b600160003373ffffffffffffffffffffffffffffffffffffffff1673ffffffffffffffffffffffffffffffffffffffff16815260200190815260200160002060009054906101000a900460ff1661151757600080fd5b600360009054906101000a900460ff161561153157600080fd5b6001600360006101000a81548160ff0219169083151502179055507f507601cb28731d1f402d3760797e1a1b121a6b956be4fef723175be45cce56633360405161157b91906120fd565b60405180910390a1565b60006115908261183b565b61159d57600190506115a2565b600090505b919050565b600033838360006115b783611585565b9050600060ff168160ff16146115cc826112b7565b9061160d576040517f08c379a00000000000000000000000000000000000000000000000000000000081526004016116049190611ea8565b60405180910390fd5b50600360009054906101000a900460ff161561162857600080fd5b600073ffffffffffffffffffffffffffffffffffffffff168773ffffffffffffffffffffffffffffffffffffffff16141580156116a3575085600760003373ffffffffffffffffffffffffffffffffffffffff1673ffffffffffffffffffffffffffffffffffffffff16815260200190815260200160002054115b6116ac57600080fd5b85600760003373ffffffffffffffffffffffffffffffffffffffff1673ffffffffffffffffffffffffffffffffffffffff168152602001908152602001600020546116f79190612073565b600760003373ffffffffffffffffffffffffffffffffffffffff1673ffffffffffffffffffffffffffffffffffffffff1681526020019081526020016000208190555085600760008973ffffffffffffffffffffffffffffffffffffffff1673ffffffffffffffffffffffffffffffffffffffff1681526020019081526020016000205461178591906120a7565b600760008973ffffffffffffffffffffffffffffffffffffffff1673ffffffffffffffffffffffffffffffffffffffff168152602001908152602001600020819055508673ffffffffffffffffffffffffffffffffffffffff163373ffffffffffffffffffffffffffffffffffffffff167f8761302fd39919211f15c433cf3a700d5d794b3e76fbc406d2b5f804f1f37b1f886040516118259190611da0565b60405180910390a3600194505050505092915050565b6000600260008373ffffffffffffffffffffffffffffffffffffffff1673ffffffffffffffffffffffffffffffffffffffff16815260200190815260200160002060009054906101000a900460ff169050919050565b6000600860008473ffffffffffffffffffffffffffffffffffffffff1673ffffffffffffffffffffffffffffffffffffffff16815260200190815260200160002060008373ffffffffffffffffffffffffffffffffffffffff1673ffffffffffffffffffffffffffffffffffffffff16815260200190815260200160002054905092915050565b6040518060400160405280600781526020017f535543434553530000000000000000000000000000000000000000000000000081525081565b60008054906101000a900473ffffffffffffffffffffffffffffffffffffffff1673ffffffffffffffffffffffffffffffffffffffff163373ffffffffffffffffffffffffffffffffffffffff16146119a957600080fd5b600073ffffffffffffffffffffffffffffffffffffffff168173ffffffffffffffffffffffffffffffffffffffff161415611a19576040517f08c379a0000000000000000000000000000000000000000000000000000000008152600401611a10906121b3565b60405180910390fd5b60008060009054906101000a900473ffffffffffffffffffffffffffffffffffffffff169050816000806101000a81548173ffffffffffffffffffffffffffffffffffffffff021916908373ffffffffffffffffffffffffffffffffffffffff1602179055508173ffffffffffffffffffffffffffffffffffffffff168173ffffffffffffffffffffffffffffffffffffffff167f8be0079c531659141344cd1fd0a4f28419497f9722a3daafe3b4186f6b6457e060405160405180910390a35050565b600160003373ffffffffffffffffffffffffffffffffffffffff1673ffffffffffffffffffffffffffffffffffffffff16815260200190815260200160002060009054906101000a900460ff16611b3357600080fd5b600073ffffffffffffffffffffffffffffffffffffffff168173ffffffffffffffffffffffffffffffffffffffff1614158015611bba5750600260008273ffffffffffffffffffffffffffffffffffffffff1673ffffffffffffffffffffffffffffffffffffffff16815260200190815260200160002060009054906101000a900460ff16155b611bc357600080fd5b6001600260008373ffffffffffffffffffffffffffffffffffffffff1673ffffffffffffffffffffffffffffffffffffffff16815260200190815260200160002060006101000a81548160ff02191690831515021790555050565b600080fd5b600073ffffffffffffffffffffffffffffffffffffffff82169050919050565b6000611c4e82611c23565b9050919050565b611c5e81611c43565b8114611c6957600080fd5b50565b600081359050611c7b81611c55565b92915050565b6000819050919050565b611c9481611c81565b8114611c9f57600080fd5b50565b600081359050611cb181611c8b565b92915050565b60008060408385031215611cce57611ccd611c1e565b5b6000611cdc85828601611c6c565b9250506020611ced85828601611ca2565b9150509250929050565b60008115159050919050565b611d0c81611cf7565b82525050565b6000602082019050611d276000830184611d03565b92915050565b600060ff82169050919050565b611d4381611d2d565b82525050565b6000602082019050611d5e6000830184611d3a565b92915050565b600060208284031215611d7a57611d79611c1e565b5b6000611d8884828501611c6c565b91505092915050565b611d9a81611c81565b82525050565b6000602082019050611db56000830184611d91565b92915050565b611dc481611c43565b82525050565b600081519050919050565b600082825260208201905092915050565b60005b83811015611e04578082015181840152602081019050611de9565b83811115611e13576000848401525b50505050565b6000601f19601f8301169050919050565b6000611e3582611dca565b611e3f8185611dd5565b9350611e4f818560208601611de6565b611e5881611e19565b840191505092915050565b6000606082019050611e786000830186611dbb565b8181036020830152611e8a8185611e2a565b90508181036040830152611e9e8184611e2a565b9050949350505050565b60006020820190508181036000830152611ec28184611e2a565b905092915050565b600080600060608486031215611ee357611ee2611c1e565b5b6000611ef186828701611c6c565b9350506020611f0286828701611c6c565b9250506040611f1386828701611ca2565b9150509250925092565b600060208284031215611f3357611f32611c1e565b5b6000611f4184828501611ca2565b91505092915050565b611f5381611d2d565b8114611f5e57600080fd5b50565b600081359050611f7081611f4a565b92915050565b600060208284031215611f8c57611f8b611c1e565b5b6000611f9a84828501611f61565b91505092915050565b60008060408385031215611fba57611fb9611c1e565b5b6000611fc885828601611c6c565b9250506020611fd985828601611c6c565b9150509250929050565b7f4e487b7100000000000000000000000000000000000000000000000000000000600052602260045260246000fd5b6000600282049050600182168061202a57607f821691505b6020821081141561203e5761203d611fe3565b5b50919050565b7f4e487b7100000000000000000000000000000000000000000000000000000000600052601160045260246000fd5b600061207e82611c81565b915061208983611c81565b92508282101561209c5761209b612044565b5b828203905092915050565b60006120b282611c81565b91506120bd83611c81565b9250827fffffffffffffffffffffffffffffffffffffffffffffffffffffffffffffffff038211156120f2576120f1612044565b5b828201905092915050565b60006020820190506121126000830184611dbb565b92915050565b600060408201905061212d6000830185611dbb565b61213a6020830184611d91565b9392505050565b7f4f776e61626c653a206e6577206f776e657220697320746865207a65726f206160008201527f6464726573730000000000000000000000000000000000000000000000000000602082015250565b600061219d602683611dd5565b91506121a882612141565b604082019050919050565b600060208201905081810360008301526121cc81612190565b905091905056fe494c4c4547414c5f5452414e534645525f544f5f4e4f4e5f57484954454c49535445445f41444452455353a26469706673582212202409d39b151552d7e8a5bfff389f794fa9fa94888215dec7bb76e34c9f0a22fb64736f6c63430008090033",
  "immutableReferences": {},
  "source": "// SPDX-License-Identifier: MIT\npragma solidity ^0.8.9;\n\n/**\n *@notice The MyERC20Token implements the ERC20 token\n *@author brian wu\n */\n\n/**\n * define owner, transfer owner and assign admin\n */\ncontract Owned {\n    address private _owner;\n    mapping(address => bool) private admins;\n\n    event OwnershipTransferred(\n        address indexed previousOwner,\n        address indexed newOwner\n    );\n\n    constructor() {\n        _owner = msg.sender;\n        admins[msg.sender] = true;\n    }\n\n    modifier onlyOwner() {\n        require(msg.sender == _owner);\n        _;\n    }\n    modifier onlyAdmin() {\n        require(admins[msg.sender]);\n        _;\n    }\n\n    function transferOwnership(address newOwner) external onlyOwner {\n        require(\n            newOwner != address(0),\n            \"Ownable: new owner is the zero address\"\n        );\n        address oldOwner = _owner;\n        _owner = newOwner;\n        emit OwnershipTransferred(oldOwner, newOwner);\n    }\n\n    function isAdmin(address account) external view onlyOwner returns (bool) {\n        return admins[account];\n    }\n\n    function addAdmin(address account) external onlyOwner {\n        require(account != address(0) && !admins[account]);\n        admins[account] = true;\n    }\n\n    function removeAdmin(address account) external onlyOwner {\n        require(account != address(0) && admins[account]);\n        admins[account] = false;\n    }\n}\n\n/**\n * manage whitelsit\n */\ncontract Whitelist is Owned {\n    mapping(address => bool) private whitelist;\n\n    function addWhitelist(address account) public onlyAdmin {\n        require(account != address(0) && !whitelist[account]);\n        whitelist[account] = true;\n    }\n\n    function isWhitelist(address account) public view returns (bool) {\n        return whitelist[account];\n    }\n\n    function removeWhitelisted(address account) external onlyAdmin {\n        require(account != address(0) && whitelist[account]);\n        whitelist[account] = false;\n    }\n}\n\n/**\n * make contract function pausable\n */\ncontract Pausable is Owned {\n    event PausedEvt(address account);\n    event UnpausedEvt(address account);\n    bool private paused;\n\n    constructor() {\n        paused = false;\n    }\n\n    modifier whenNotPaused() {\n        require(!paused);\n        _;\n    }\n    modifier whenPaused() {\n        require(paused);\n        _;\n    }\n\n    function pause() external onlyAdmin whenNotPaused {\n        paused = true;\n        emit PausedEvt(msg.sender);\n    }\n\n    function unpause() external onlyAdmin whenPaused {\n        paused = false;\n        emit UnpausedEvt(msg.sender);\n    }\n}\n\n/**\n *Interface for ERC20\n */\ninterface ERC20 {\n    function transfer(address to, uint256 value) external returns (bool);\n\n    function approve(address spender, uint256 value) external returns (bool);\n\n    function transferFrom(\n        address from,\n        address to,\n        uint256 value\n    ) external returns (bool);\n\n    function totalSupply() external view returns (uint256);\n\n    function balanceOf(address who) external view returns (uint256);\n\n    function allowance(\n        address owner,\n        address spender\n    ) external view returns (uint256);\n\n    event TransferEvt(address indexed from, address indexed to, uint256 value);\n\n    event ApprovalEvt(\n        address indexed owner,\n        address indexed spender,\n        uint256 value\n    );\n}\n\ncontract MyERC20Tokens is ERC20, Whitelist, Pausable {\n    TokenSummary public tokenSummary;\n    mapping(address => uint256) internal balances;\n    mapping(address => mapping(address => uint256)) internal allowed;\n    uint256 private _totalSupply;\n    uint8 public constant SUCCESS_CODE = 0;\n    string public constant SUCCESS_MESSAGE = \"SUCCESS\";\n    uint8 public constant NON_WHITELIST_CODE = 1;\n    string public constant NON_WHITELIST_ERROR =\n        \"ILLEGAL_TRANSFER_TO_NON_WHITELISTED_ADDRESS\";\n    event BurnEvt(address from, uint256 value);\n\n    struct TokenSummary {\n        address initialAccount;\n        string name;\n        string symbol;\n    }\n\n    constructor(\n    ) {\n        addWhitelist(msg.sender);\n        balances[msg.sender] = 1000;\n        _totalSupply = 1000;\n        tokenSummary = TokenSummary(msg.sender, \"My ERC20 Token\", \"MTK\");\n    }\n\n    modifier verify(\n        address from,\n        address to,\n        uint256 value\n    ) {\n        uint8 restrictionCode = validateTransferRestricted(to);\n        require(\n            restrictionCode == SUCCESS_CODE,\n            messageHandler(restrictionCode)\n        );\n        _;\n    }\n\n    function validateTransferRestricted(\n        address to\n    ) public view returns (uint8 restrictionCode) {\n        if (!isWhitelist(to)) {\n            restrictionCode = NON_WHITELIST_CODE;\n        } else {\n            restrictionCode = SUCCESS_CODE;\n        }\n    }\n\n    function messageHandler(\n        uint8 restrictionCode\n    ) public pure returns (string memory message) {\n        if (restrictionCode == SUCCESS_CODE) {\n            message = SUCCESS_MESSAGE;\n        } else if (restrictionCode == NON_WHITELIST_CODE) {\n            message = NON_WHITELIST_ERROR;\n        }\n    }\n\n    function totalSupply() external view virtual override returns (uint256) {\n        return _totalSupply;\n    }\n\n    function balanceOf(\n        address account\n    ) external view virtual override returns (uint256) {\n        return balances[account];\n    }\n\n    function transfer(\n        address to,\n        uint256 value\n    )\n        external\n        override\n        verify(msg.sender, to, value)\n        whenNotPaused\n        returns (bool success)\n    {\n        require(to != address(0) && balances[msg.sender] > value);\n        balances[msg.sender] = balances[msg.sender] - value;\n        balances[to] = balances[to] + value;\n        emit TransferEvt(msg.sender, to, value);\n        return true;\n    }\n\n    function transferFrom(\n        address from,\n        address spender,\n        uint256 value\n    )\n        external\n        virtual\n        override\n        verify(from, spender, value)\n        whenNotPaused\n        returns (bool)\n    {\n        require(\n            spender != address(0) &&\n                value <= balances[from] &&\n                value <= allowed[from][msg.sender]\n        );\n        balances[from] = balances[from] - value;\n        balances[spender] = balances[spender] + value;\n        allowed[from][msg.sender] = allowed[from][msg.sender] - value;\n        emit TransferEvt(from, spender, value);\n        return true;\n    }\n\n    function allowance(\n        address ownerAddress,\n        address spender\n    ) external view virtual override returns (uint256) {\n        return allowed[ownerAddress][spender];\n    }\n\n    function approve(\n        address spender,\n        uint256 value\n    ) external virtual override returns (bool) {\n        require(spender != address(0));\n        allowed[msg.sender][spender] = value;\n        emit ApprovalEvt(msg.sender, spender, value);\n        return true;\n    }\n\n    function burn(\n        uint256 value\n    ) external whenNotPaused onlyAdmin returns (bool success) {\n        require(balances[msg.sender] >= value);\n        balances[msg.sender] -= value;\n        _totalSupply -= value;\n        emit BurnEvt(msg.sender, value);\n        return true;\n    }\n\n    function mint(\n        address account,\n        uint256 value\n    ) external whenNotPaused onlyAdmin returns (bool) {\n        require(account != address(0));\n        _totalSupply = _totalSupply += value;\n        balances[account] = balances[account] + value;\n        emit TransferEvt(address(0), account, value);\n        return true;\n    }\n}\n",
  "sourcePath": "/home/shkwon/Projects/Learn_Ethereum/chapter08/MyERC20Tokens/contracts/MyERC20Tokens.sol",
  "compiler": {
    "name": "solc",
    "version": "0.8.9+commit.e5eed63a.Emscripten.clang"
  },
  "schemaVersion": "3.4.16",
  "updatedAt": "2023-12-11T08:12:01.155Z",
  "networkType": "ethereum",
  "devdoc": {
    "kind": "dev",
    "methods": {},
    "version": 1
  },
  "userdoc": {
    "kind": "user",
    "methods": {},
    "version": 1
  }
}