{
  "contractName": "Whitelist",
  "abi": [
    {
      "anonymous": false,
      "inputs": [
        {
          "indexed": true,
          "internalType": "address",
          "name": "previousOwner",
          "type": "address"
        },
        {
          "indexed": true,
          "internalType": "address",
          "name": "newOwner",
          "type": "address"
        }
      ],
      "name": "OwnershipTransferred",
      "type": "event"
    },
    {
      "inputs": [
        {
          "internalType": "address",
          "name": "account",
          "type": "address"
        }
      ],
      "name": "addAdmin",
      "outputs": [],
      "stateMutability": "nonpayable",
      "type": "function"
    },
    {
      "inputs": [
        {
          "internalType": "address",
          "name": "account",
          "type": "address"
        }
      ],
      "name": "isAdmin",
      "outputs": [
        {
          "internalType": "bool",
          "name": "",
          "type": "bool"
        }
      ],
      "stateMutability": "view",
      "type": "function"
    },
    {
      "inputs": [
        {
          "internalType": "address",
          "name": "account",
          "type": "address"
        }
      ],
      "name": "removeAdmin",
      "outputs": [],
      "stateMutability": "nonpayable",
      "type": "function"
    },
    {
      "inputs": [
        {
          "internalType": "address",
          "name": "newOwner",
          "type": "address"
        }
      ],
      "name": "transferOwnership",
      "outputs": [],
      "stateMutability": "nonpayable",
      "type": "function"
    },
    {
      "inputs": [
        {
          "internalType": "address",
          "name": "account",
          "type": "address"
        }
      ],
      "name": "addWhitelist",
      "outputs": [],
      "stateMutability": "nonpayable",
      "type": "function"
    },
    {
      "inputs": [
        {
          "internalType": "address",
          "name": "account",
          "type": "address"
        }
      ],
      "name": "isWhitelist",
      "outputs": [
        {
          "internalType": "bool",
          "name": "",
          "type": "bool"
        }
      ],
      "stateMutability": "view",
      "type": "function"
    },
    {
      "inputs": [
        {
          "internalType": "address",
          "name": "account",
          "type": "address"
        }
      ],
      "name": "removeWhitelisted",
      "outputs": [],
      "stateMutability": "nonpayable",
      "type": "function"
    }
  ],
  "bytecode": "0x608060405234801561001057600080fd5b50336000806101000a81548173ffffffffffffffffffffffffffffffffffffffff021916908373ffffffffffffffffffffffffffffffffffffffff16021790555060018060003373ffffffffffffffffffffffffffffffffffffffff1673ffffffffffffffffffffffffffffffffffffffff16815260200190815260200160002060006101000a81548160ff021916908315150217905550610aa3806100b76000396000f3fe608060405234801561001057600080fd5b506004361061007d5760003560e01c8063704802751161005b57806370480275146100ea578063c683630d14610106578063f2fde38b14610136578063f80f5dd5146101525761007d565b80631785f53c1461008257806324d7806c1461009e578063291d9549146100ce575b600080fd5b61009c60048036038101906100979190610967565b61016e565b005b6100b860048036038101906100b39190610967565b6102b0565b6040516100c591906109af565b60405180910390f35b6100e860048036038101906100e39190610967565b61035f565b005b61010460048036038101906100ff9190610967565b61049f565b005b610120600480360381019061011b9190610967565b6105e1565b60405161012d91906109af565b60405180910390f35b610150600480360381019061014b9190610967565b610637565b005b61016c60048036038101906101679190610967565b6107c3565b005b60008054906101000a900473ffffffffffffffffffffffffffffffffffffffff1673ffffffffffffffffffffffffffffffffffffffff163373ffffffffffffffffffffffffffffffffffffffff16146101c657600080fd5b600073ffffffffffffffffffffffffffffffffffffffff168173ffffffffffffffffffffffffffffffffffffffff161415801561024c5750600160008273ffffffffffffffffffffffffffffffffffffffff1673ffffffffffffffffffffffffffffffffffffffff16815260200190815260200160002060009054906101000a900460ff165b61025557600080fd5b6000600160008373ffffffffffffffffffffffffffffffffffffffff1673ffffffffffffffffffffffffffffffffffffffff16815260200190815260200160002060006101000a81548160ff02191690831515021790555050565b60008060009054906101000a900473ffffffffffffffffffffffffffffffffffffffff1673ffffffffffffffffffffffffffffffffffffffff163373ffffffffffffffffffffffffffffffffffffffff161461030b57600080fd5b600160008373ffffffffffffffffffffffffffffffffffffffff1673ffffffffffffffffffffffffffffffffffffffff16815260200190815260200160002060009054906101000a900460ff169050919050565b600160003373ffffffffffffffffffffffffffffffffffffffff1673ffffffffffffffffffffffffffffffffffffffff16815260200190815260200160002060009054906101000a900460ff166103b557600080fd5b600073ffffffffffffffffffffffffffffffffffffffff168173ffffffffffffffffffffffffffffffffffffffff161415801561043b5750600260008273ffffffffffffffffffffffffffffffffffffffff1673ffffffffffffffffffffffffffffffffffffffff16815260200190815260200160002060009054906101000a900460ff165b61044457600080fd5b6000600260008373ffffffffffffffffffffffffffffffffffffffff1673ffffffffffffffffffffffffffffffffffffffff16815260200190815260200160002060006101000a81548160ff02191690831515021790555050565b60008054906101000a900473ffffffffffffffffffffffffffffffffffffffff1673ffffffffffffffffffffffffffffffffffffffff163373ffffffffffffffffffffffffffffffffffffffff16146104f757600080fd5b600073ffffffffffffffffffffffffffffffffffffffff168173ffffffffffffffffffffffffffffffffffffffff161415801561057e5750600160008273ffffffffffffffffffffffffffffffffffffffff1673ffffffffffffffffffffffffffffffffffffffff16815260200190815260200160002060009054906101000a900460ff16155b61058757600080fd5b60018060008373ffffffffffffffffffffffffffffffffffffffff1673ffffffffffffffffffffffffffffffffffffffff16815260200190815260200160002060006101000a81548160ff02191690831515021790555050565b6000600260008373ffffffffffffffffffffffffffffffffffffffff1673ffffffffffffffffffffffffffffffffffffffff16815260200190815260200160002060009054906101000a900460ff169050919050565b60008054906101000a900473ffffffffffffffffffffffffffffffffffffffff1673ffffffffffffffffffffffffffffffffffffffff163373ffffffffffffffffffffffffffffffffffffffff161461068f57600080fd5b600073ffffffffffffffffffffffffffffffffffffffff168173ffffffffffffffffffffffffffffffffffffffff1614156106ff576040517f08c379a00000000000000000000000000000000000000000000000000000000081526004016106f690610a4d565b60405180910390fd5b60008060009054906101000a900473ffffffffffffffffffffffffffffffffffffffff169050816000806101000a81548173ffffffffffffffffffffffffffffffffffffffff021916908373ffffffffffffffffffffffffffffffffffffffff1602179055508173ffffffffffffffffffffffffffffffffffffffff168173ffffffffffffffffffffffffffffffffffffffff167f8be0079c531659141344cd1fd0a4f28419497f9722a3daafe3b4186f6b6457e060405160405180910390a35050565b600160003373ffffffffffffffffffffffffffffffffffffffff1673ffffffffffffffffffffffffffffffffffffffff16815260200190815260200160002060009054906101000a900460ff1661081957600080fd5b600073ffffffffffffffffffffffffffffffffffffffff168173ffffffffffffffffffffffffffffffffffffffff16141580156108a05750600260008273ffffffffffffffffffffffffffffffffffffffff1673ffffffffffffffffffffffffffffffffffffffff16815260200190815260200160002060009054906101000a900460ff16155b6108a957600080fd5b6001600260008373ffffffffffffffffffffffffffffffffffffffff1673ffffffffffffffffffffffffffffffffffffffff16815260200190815260200160002060006101000a81548160ff02191690831515021790555050565b600080fd5b600073ffffffffffffffffffffffffffffffffffffffff82169050919050565b600061093482610909565b9050919050565b61094481610929565b811461094f57600080fd5b50565b6000813590506109618161093b565b92915050565b60006020828403121561097d5761097c610904565b5b600061098b84828501610952565b91505092915050565b60008115159050919050565b6109a981610994565b82525050565b60006020820190506109c460008301846109a0565b92915050565b600082825260208201905092915050565b7f4f776e61626c653a206e6577206f776e657220697320746865207a65726f206160008201527f6464726573730000000000000000000000000000000000000000000000000000602082015250565b6000610a376026836109ca565b9150610a42826109db565b604082019050919050565b60006020820190508181036000830152610a6681610a2a565b905091905056fea2646970667358221220c51e269ff6c34057a0976ac8250650ae2407f9757a43b74ccd1a013d5aab60e464736f6c63430008090033",
  "immutableReferences": {},
  "source": "// SPDX-License-Identifier: MIT\npragma solidity ^0.8.9;\n\n/**\n *@notice The MyERC20Token implements the ERC20 token\n *@author brian wu\n */\n\n/**\n * define owner, transfer owner and assign admin\n */\ncontract Owned {\n    address private _owner;\n    mapping(address => bool) private admins;\n\n    event OwnershipTransferred(\n        address indexed previousOwner,\n        address indexed newOwner\n    );\n\n    constructor() {\n        _owner = msg.sender;\n        admins[msg.sender] = true;\n    }\n\n    modifier onlyOwner() {\n        require(msg.sender == _owner);\n        _;\n    }\n    modifier onlyAdmin() {\n        require(admins[msg.sender]);\n        _;\n    }\n\n    function transferOwnership(address newOwner) external onlyOwner {\n        require(\n            newOwner != address(0),\n            \"Ownable: new owner is the zero address\"\n        );\n        address oldOwner = _owner;\n        _owner = newOwner;\n        emit OwnershipTransferred(oldOwner, newOwner);\n    }\n\n    function isAdmin(address account) external view onlyOwner returns (bool) {\n        return admins[account];\n    }\n\n    function addAdmin(address account) external onlyOwner {\n        require(account != address(0) && !admins[account]);\n        admins[account] = true;\n    }\n\n    function removeAdmin(address account) external onlyOwner {\n        require(account != address(0) && admins[account]);\n        admins[account] = false;\n    }\n}\n\n/**\n * manage whitelsit\n */\ncontract Whitelist is Owned {\n    mapping(address => bool) private whitelist;\n\n    function addWhitelist(address account) public onlyAdmin {\n        require(account != address(0) && !whitelist[account]);\n        whitelist[account] = true;\n    }\n\n    function isWhitelist(address account) public view returns (bool) {\n        return whitelist[account];\n    }\n\n    function removeWhitelisted(address account) external onlyAdmin {\n        require(account != address(0) && whitelist[account]);\n        whitelist[account] = false;\n    }\n}\n\n/**\n * make contract function pausable\n */\ncontract Pausable is Owned {\n    event PausedEvt(address account);\n    event UnpausedEvt(address account);\n    bool private paused;\n\n    constructor() {\n        paused = false;\n    }\n\n    modifier whenNotPaused() {\n        require(!paused);\n        _;\n    }\n    modifier whenPaused() {\n        require(paused);\n        _;\n    }\n\n    function pause() external onlyAdmin whenNotPaused {\n        paused = true;\n        emit PausedEvt(msg.sender);\n    }\n\n    function unpause() external onlyAdmin whenPaused {\n        paused = false;\n        emit UnpausedEvt(msg.sender);\n    }\n}\n\n/**\n *Interface for ERC20\n */\ninterface ERC20 {\n    function transfer(address to, uint256 value) external returns (bool);\n\n    function approve(address spender, uint256 value) external returns (bool);\n\n    function transferFrom(\n        address from,\n        address to,\n        uint256 value\n    ) external returns (bool);\n\n    function totalSupply() external view returns (uint256);\n\n    function balanceOf(address who) external view returns (uint256);\n\n    function allowance(\n        address owner,\n        address spender\n    ) external view returns (uint256);\n\n    event TransferEvt(address indexed from, address indexed to, uint256 value);\n\n    event ApprovalEvt(\n        address indexed owner,\n        address indexed spender,\n        uint256 value\n    );\n}\n\ncontract MyERC20Token is ERC20, Whitelist, Pausable {\n    TokenSummary public tokenSummary;\n    mapping(address => uint256) internal balances;\n    mapping(address => mapping(address => uint256)) internal allowed;\n    uint256 private _totalSupply;\n    uint8 public constant SUCCESS_CODE = 0;\n    string public constant SUCCESS_MESSAGE = \"SUCCESS\";\n    uint8 public constant NON_WHITELIST_CODE = 1;\n    string public constant NON_WHITELIST_ERROR =\n        \"ILLEGAL_TRANSFER_TO_NON_WHITELISTED_ADDRESS\";\n    event BurnEvt(address from, uint256 value);\n\n    struct TokenSummary {\n        address initialAccount;\n        string name;\n        string symbol;\n    }\n\n    constructor(\n        string memory _name,\n        string memory _symbol,\n        address _initialAccount,\n        uint _initialBalance\n    ) {\n        addWhitelist(_initialAccount);\n        balances[_initialAccount] = _initialBalance;\n        _totalSupply = _initialBalance;\n        tokenSummary = TokenSummary(_initialAccount, _name, _symbol);\n    }\n\n    modifier verify(\n        address from,\n        address to,\n        uint256 value\n    ) {\n        uint8 restrictionCode = validateTransferRestricted(to);\n        require(\n            restrictionCode == SUCCESS_CODE,\n            messageHandler(restrictionCode)\n        );\n        _;\n    }\n\n    function validateTransferRestricted(\n        address to\n    ) public view returns (uint8 restrictionCode) {\n        if (!isWhitelist(to)) {\n            restrictionCode = NON_WHITELIST_CODE;\n        } else {\n            restrictionCode = SUCCESS_CODE;\n        }\n    }\n\n    function messageHandler(\n        uint8 restrictionCode\n    ) public pure returns (string memory message) {\n        if (restrictionCode == SUCCESS_CODE) {\n            message = SUCCESS_MESSAGE;\n        } else if (restrictionCode == NON_WHITELIST_CODE) {\n            message = NON_WHITELIST_ERROR;\n        }\n    }\n\n    function totalSupply() external view virtual override returns (uint256) {\n        return _totalSupply;\n    }\n\n    function balanceOf(\n        address account\n    ) external view virtual override returns (uint256) {\n        return balances[account];\n    }\n\n    function transfer(\n        address to,\n        uint256 value\n    )\n        external\n        override\n        verify(msg.sender, to, value)\n        whenNotPaused\n        returns (bool success)\n    {\n        require(to != address(0) && balances[msg.sender] > value);\n        balances[msg.sender] = balances[msg.sender] - value;\n        balances[to] = balances[to] + value;\n        emit TransferEvt(msg.sender, to, value);\n        return true;\n    }\n\n    function transferFrom(\n        address from,\n        address spender,\n        uint256 value\n    )\n        external\n        virtual\n        override\n        verify(from, spender, value)\n        whenNotPaused\n        returns (bool)\n    {\n        require(\n            spender != address(0) &&\n                value <= balances[from] &&\n                value <= allowed[from][msg.sender]\n        );\n        balances[from] = balances[from] - value;\n        balances[spender] = balances[spender] + value;\n        allowed[from][msg.sender] = allowed[from][msg.sender] - value;\n        emit TransferEvt(from, spender, value);\n        return true;\n    }\n\n    function allowance(\n        address ownerAddress,\n        address spender\n    ) external view virtual override returns (uint256) {\n        return allowed[ownerAddress][spender];\n    }\n\n    function approve(\n        address spender,\n        uint256 value\n    ) external virtual override returns (bool) {\n        require(spender != address(0));\n        allowed[msg.sender][spender] = value;\n        emit ApprovalEvt(msg.sender, spender, value);\n        return true;\n    }\n\n    function burn(\n        uint256 value\n    ) external whenNotPaused onlyAdmin returns (bool success) {\n        require(balances[msg.sender] >= value);\n        balances[msg.sender] -= value;\n        _totalSupply -= value;\n        emit BurnEvt(msg.sender, value);\n        return true;\n    }\n\n    function mint(\n        address account,\n        uint256 value\n    ) external whenNotPaused onlyAdmin returns (bool) {\n        require(account != address(0));\n        _totalSupply = _totalSupply += value;\n        balances[account] = balances[account] + value;\n        emit TransferEvt(address(0), account, value);\n        return true;\n    }\n}\n",
  "sourcePath": "/home/shkwon/Projects/Learn_Ethereum/chapter08/MyERC20Tokens/contracts/MyERC20Tokens.sol",
  "compiler": {
    "name": "solc",
    "version": "0.8.9+commit.e5eed63a.Emscripten.clang"
  },
  "schemaVersion": "3.4.16",
  "updatedAt": "2023-12-11T07:28:35.265Z",
  "devdoc": {
    "kind": "dev",
    "methods": {},
    "version": 1
  },
  "userdoc": {
    "kind": "user",
    "methods": {},
    "notice": "manage whitelsit",
    "version": 1
  }
}