{
  "_format": "hh-sol-artifact-1",
  "contractName": "SampleToken",
  "sourceName": "contracts/SampleToken.sol",
  "abi": [
    {
      "inputs": [],
      "stateMutability": "nonpayable",
      "type": "constructor"
    },
    {
      "anonymous": false,
      "inputs": [
        {
          "indexed": true,
          "internalType": "address",
          "name": "owner",
          "type": "address"
        },
        {
          "indexed": true,
          "internalType": "address",
          "name": "spender",
          "type": "address"
        },
        {
          "indexed": false,
          "internalType": "uint256",
          "name": "value",
          "type": "uint256"
        }
      ],
      "name": "Approval",
      "type": "event"
    },
    {
      "anonymous": false,
      "inputs": [
        {
          "indexed": true,
          "internalType": "address",
          "name": "previousOwner",
          "type": "address"
        },
        {
          "indexed": true,
          "internalType": "address",
          "name": "newOwner",
          "type": "address"
        }
      ],
      "name": "OwnershipTransferred",
      "type": "event"
    },
    {
      "anonymous": false,
      "inputs": [
        {
          "indexed": true,
          "internalType": "bytes32",
          "name": "role",
          "type": "bytes32"
        },
        {
          "indexed": true,
          "internalType": "bytes32",
          "name": "previousAdminRole",
          "type": "bytes32"
        },
        {
          "indexed": true,
          "internalType": "bytes32",
          "name": "newAdminRole",
          "type": "bytes32"
        }
      ],
      "name": "RoleAdminChanged",
      "type": "event"
    },
    {
      "anonymous": false,
      "inputs": [
        {
          "indexed": true,
          "internalType": "bytes32",
          "name": "role",
          "type": "bytes32"
        },
        {
          "indexed": true,
          "internalType": "address",
          "name": "account",
          "type": "address"
        },
        {
          "indexed": true,
          "internalType": "address",
          "name": "sender",
          "type": "address"
        }
      ],
      "name": "RoleGranted",
      "type": "event"
    },
    {
      "anonymous": false,
      "inputs": [
        {
          "indexed": true,
          "internalType": "bytes32",
          "name": "role",
          "type": "bytes32"
        },
        {
          "indexed": true,
          "internalType": "address",
          "name": "account",
          "type": "address"
        },
        {
          "indexed": true,
          "internalType": "address",
          "name": "sender",
          "type": "address"
        }
      ],
      "name": "RoleRevoked",
      "type": "event"
    },
    {
      "anonymous": false,
      "inputs": [
        {
          "indexed": false,
          "internalType": "uint256",
          "name": "id",
          "type": "uint256"
        }
      ],
      "name": "Snapshot",
      "type": "event"
    },
    {
      "anonymous": false,
      "inputs": [
        {
          "indexed": true,
          "internalType": "address",
          "name": "from",
          "type": "address"
        },
        {
          "indexed": true,
          "internalType": "address",
          "name": "to",
          "type": "address"
        },
        {
          "indexed": false,
          "internalType": "uint256",
          "name": "value",
          "type": "uint256"
        }
      ],
      "name": "Transfer",
      "type": "event"
    },
    {
      "inputs": [],
      "name": "BURNER_ROLE",
      "outputs": [
        {
          "internalType": "bytes32",
          "name": "",
          "type": "bytes32"
        }
      ],
      "stateMutability": "view",
      "type": "function"
    },
    {
      "inputs": [],
      "name": "DEFAULT_ADMIN_ROLE",
      "outputs": [
        {
          "internalType": "bytes32",
          "name": "",
          "type": "bytes32"
        }
      ],
      "stateMutability": "view",
      "type": "function"
    },
    {
      "inputs": [],
      "name": "MINTER_ROLE",
      "outputs": [
        {
          "internalType": "bytes32",
          "name": "",
          "type": "bytes32"
        }
      ],
      "stateMutability": "view",
      "type": "function"
    },
    {
      "inputs": [
        {
          "internalType": "address",
          "name": "owner",
          "type": "address"
        },
        {
          "internalType": "address",
          "name": "spender",
          "type": "address"
        }
      ],
      "name": "allowance",
      "outputs": [
        {
          "internalType": "uint256",
          "name": "",
          "type": "uint256"
        }
      ],
      "stateMutability": "view",
      "type": "function"
    },
    {
      "inputs": [
        {
          "internalType": "address",
          "name": "spender",
          "type": "address"
        },
        {
          "internalType": "uint256",
          "name": "amount",
          "type": "uint256"
        }
      ],
      "name": "approve",
      "outputs": [
        {
          "internalType": "bool",
          "name": "",
          "type": "bool"
        }
      ],
      "stateMutability": "nonpayable",
      "type": "function"
    },
    {
      "inputs": [
        {
          "internalType": "address",
          "name": "account",
          "type": "address"
        }
      ],
      "name": "balanceOf",
      "outputs": [
        {
          "internalType": "uint256",
          "name": "",
          "type": "uint256"
        }
      ],
      "stateMutability": "view",
      "type": "function"
    },
    {
      "inputs": [
        {
          "internalType": "address",
          "name": "account",
          "type": "address"
        },
        {
          "internalType": "uint256",
          "name": "snapshotId",
          "type": "uint256"
        }
      ],
      "name": "balanceOfAt",
      "outputs": [
        {
          "internalType": "uint256",
          "name": "",
          "type": "uint256"
        }
      ],
      "stateMutability": "view",
      "type": "function"
    },
    {
      "inputs": [],
      "name": "decimals",
      "outputs": [
        {
          "internalType": "uint8",
          "name": "",
          "type": "uint8"
        }
      ],
      "stateMutability": "view",
      "type": "function"
    },
    {
      "inputs": [
        {
          "internalType": "address",
          "name": "spender",
          "type": "address"
        },
        {
          "internalType": "uint256",
          "name": "subtractedValue",
          "type": "uint256"
        }
      ],
      "name": "decreaseAllowance",
      "outputs": [
        {
          "internalType": "bool",
          "name": "",
          "type": "bool"
        }
      ],
      "stateMutability": "nonpayable",
      "type": "function"
    },
    {
      "inputs": [
        {
          "internalType": "bytes32",
          "name": "role",
          "type": "bytes32"
        }
      ],
      "name": "getRoleAdmin",
      "outputs": [
        {
          "internalType": "bytes32",
          "name": "",
          "type": "bytes32"
        }
      ],
      "stateMutability": "view",
      "type": "function"
    },
    {
      "inputs": [
        {
          "internalType": "bytes32",
          "name": "role",
          "type": "bytes32"
        },
        {
          "internalType": "address",
          "name": "account",
          "type": "address"
        }
      ],
      "name": "grantRole",
      "outputs": [],
      "stateMutability": "nonpayable",
      "type": "function"
    },
    {
      "inputs": [
        {
          "internalType": "bytes32",
          "name": "role",
          "type": "bytes32"
        },
        {
          "internalType": "address",
          "name": "account",
          "type": "address"
        }
      ],
      "name": "hasRole",
      "outputs": [
        {
          "internalType": "bool",
          "name": "",
          "type": "bool"
        }
      ],
      "stateMutability": "view",
      "type": "function"
    },
    {
      "inputs": [
        {
          "internalType": "address",
          "name": "spender",
          "type": "address"
        },
        {
          "internalType": "uint256",
          "name": "addedValue",
          "type": "uint256"
        }
      ],
      "name": "increaseAllowance",
      "outputs": [
        {
          "internalType": "bool",
          "name": "",
          "type": "bool"
        }
      ],
      "stateMutability": "nonpayable",
      "type": "function"
    },
    {
      "inputs": [],
      "name": "name",
      "outputs": [
        {
          "internalType": "string",
          "name": "",
          "type": "string"
        }
      ],
      "stateMutability": "view",
      "type": "function"
    },
    {
      "inputs": [],
      "name": "owner",
      "outputs": [
        {
          "internalType": "address",
          "name": "",
          "type": "address"
        }
      ],
      "stateMutability": "view",
      "type": "function"
    },
    {
      "inputs": [],
      "name": "renounceOwnership",
      "outputs": [],
      "stateMutability": "nonpayable",
      "type": "function"
    },
    {
      "inputs": [
        {
          "internalType": "bytes32",
          "name": "role",
          "type": "bytes32"
        },
        {
          "internalType": "address",
          "name": "account",
          "type": "address"
        }
      ],
      "name": "renounceRole",
      "outputs": [],
      "stateMutability": "nonpayable",
      "type": "function"
    },
    {
      "inputs": [
        {
          "internalType": "bytes32",
          "name": "role",
          "type": "bytes32"
        },
        {
          "internalType": "address",
          "name": "account",
          "type": "address"
        }
      ],
      "name": "revokeRole",
      "outputs": [],
      "stateMutability": "nonpayable",
      "type": "function"
    },
    {
      "inputs": [],
      "name": "snapshot",
      "outputs": [],
      "stateMutability": "nonpayable",
      "type": "function"
    },
    {
      "inputs": [
        {
          "internalType": "bytes4",
          "name": "interfaceId",
          "type": "bytes4"
        }
      ],
      "name": "supportsInterface",
      "outputs": [
        {
          "internalType": "bool",
          "name": "",
          "type": "bool"
        }
      ],
      "stateMutability": "view",
      "type": "function"
    },
    {
      "inputs": [],
      "name": "symbol",
      "outputs": [
        {
          "internalType": "string",
          "name": "",
          "type": "string"
        }
      ],
      "stateMutability": "view",
      "type": "function"
    },
    {
      "inputs": [],
      "name": "totalSupply",
      "outputs": [
        {
          "internalType": "uint256",
          "name": "",
          "type": "uint256"
        }
      ],
      "stateMutability": "view",
      "type": "function"
    },
    {
      "inputs": [
        {
          "internalType": "uint256",
          "name": "snapshotId",
          "type": "uint256"
        }
      ],
      "name": "totalSupplyAt",
      "outputs": [
        {
          "internalType": "uint256",
          "name": "",
          "type": "uint256"
        }
      ],
      "stateMutability": "view",
      "type": "function"
    },
    {
      "inputs": [
        {
          "internalType": "address",
          "name": "to",
          "type": "address"
        },
        {
          "internalType": "uint256",
          "name": "amount",
          "type": "uint256"
        }
      ],
      "name": "transfer",
      "outputs": [
        {
          "internalType": "bool",
          "name": "",
          "type": "bool"
        }
      ],
      "stateMutability": "nonpayable",
      "type": "function"
    },
    {
      "inputs": [
        {
          "internalType": "address",
          "name": "from",
          "type": "address"
        },
        {
          "internalType": "address",
          "name": "to",
          "type": "address"
        },
        {
          "internalType": "uint256",
          "name": "amount",
          "type": "uint256"
        }
      ],
      "name": "transferFrom",
      "outputs": [
        {
          "internalType": "bool",
          "name": "",
          "type": "bool"
        }
      ],
      "stateMutability": "nonpayable",
      "type": "function"
    },
    {
      "inputs": [
        {
          "internalType": "address",
          "name": "newOwner",
          "type": "address"
        }
      ],
      "name": "transferOwnership",
      "outputs": [],
      "stateMutability": "nonpayable",
      "type": "function"
    }
  ],
  "bytecode": "0x60806040523480156200001157600080fd5b50604080518082018252600b81526a29b0b6b83632aa37b5b2b760a91b60208083019182528351808501909452600284526114d560f21b9084015281519192916200005f9160039162000446565b5080516200007590600490602084019062000446565b505050620000926200008c620000cd60201b60201c565b620000d1565b6200009f60003362000123565b620000c733620000b26012600a620005ff565b620000c190620186a062000617565b62000133565b620006c1565b3390565b600a80546001600160a01b038381166001600160a01b0319831681179093556040519116919082907f8be0079c531659141344cd1fd0a4f28419497f9722a3daafe3b4186f6b6457e090600090a35050565b6200012f828262000207565b5050565b6001600160a01b0382166200018e5760405162461bcd60e51b815260206004820152601f60248201527f45524332303a206d696e7420746f20746865207a65726f206164647265737300604482015260640160405180910390fd5b6200019c6000838362000291565b8060026000828254620001b0919062000639565b90915550506001600160a01b038216600081815260208181526040808320805486019055518481527fddf252ad1be2c89b69c2b068fc378daa952ba7f163c4a11628f55a4df523b3ef910160405180910390a35050565b620002138282620002ae565b6200012f5760008281526009602090815260408083206001600160a01b03851684529091529020805460ff191660011790556200024d3390565b6001600160a01b0316816001600160a01b0316837f2f8788117e7eff1d82e926ec794901d17c78024a50270940304540a733656f0d60405160405180910390a45050565b620002a9838383620002db60201b620008111760201c565b505050565b60008281526009602090815260408083206001600160a01b038516845290915290205460ff165b92915050565b620002f3838383620002a960201b620005551760201c565b6001600160a01b03831662000317576200030d8262000342565b620002a96200037a565b6001600160a01b03821662000331576200030d8362000342565b6200033c8362000342565b620002a9825b6001600160a01b038116600090815260056020908152604080832091839052909120546200037791906200038c565b6200038c565b50565b6200038a60066200037160025490565b565b600062000398620003db565b905080620003a684620003f9565b1015620002a9578254600180820185556000858152602080822090930193909355938401805494850181558252902090910155565b6000620003f460086200044260201b620008591760201c565b905090565b80546000906200040b57506000919050565b815482906200041d9060019062000654565b815481106200043057620004306200066e565b90600052602060002001549050919050565b5490565b828054620004549062000684565b90600052602060002090601f016020900481019282620004785760008555620004c3565b82601f106200049357805160ff1916838001178555620004c3565b82800160010185558215620004c3579182015b82811115620004c3578251825591602001919060010190620004a6565b50620004d1929150620004d5565b5090565b5b80821115620004d15760008155600101620004d6565b634e487b7160e01b600052601160045260246000fd5b600181815b8085111562000543578160001904821115620005275762000527620004ec565b808516156200053557918102915b93841c939080029062000507565b509250929050565b6000826200055c57506001620002d5565b816200056b57506000620002d5565b81600181146200058457600281146200058f57620005af565b6001915050620002d5565b60ff841115620005a357620005a3620004ec565b50506001821b620002d5565b5060208310610133831016604e8410600b8410161715620005d4575081810a620002d5565b620005e0838362000502565b8060001904821115620005f757620005f7620004ec565b029392505050565b60006200061060ff8416836200054b565b9392505050565b6000816000190483118215151615620006345762000634620004ec565b500290565b600082198211156200064f576200064f620004ec565b500190565b600082821015620006695762000669620004ec565b500390565b634e487b7160e01b600052603260045260246000fd5b600181811c908216806200069957607f821691505b60208210811415620006bb57634e487b7160e01b600052602260045260246000fd5b50919050565b61161e80620006d16000396000f3fe608060405234801561001057600080fd5b50600436106101ae5760003560e01c8063715018a6116100ee578063a217fddf11610097578063d539139311610071578063d5391393146103a5578063d547741f146103cc578063dd62ed3e146103df578063f2fde38b1461041857600080fd5b8063a217fddf14610377578063a457c2d71461037f578063a9059cbb1461039257600080fd5b806395d89b41116100c857806395d89b41146103545780639711715a1461035c578063981b24d01461036457600080fd5b8063715018a6146102f85780638da5cb5b1461030057806391d148541461031b57600080fd5b8063282c51f31161015b57806336568abe1161013557806336568abe1461029657806339509351146102a95780634ee2cd7e146102bc57806370a08231146102cf57600080fd5b8063282c51f31461024b5780632f2ff15d14610272578063313ce5671461028757600080fd5b806318160ddd1161018c57806318160ddd1461020357806323b872dd14610215578063248a9ca31461022857600080fd5b806301ffc9a7146101b357806306fdde03146101db578063095ea7b3146101f0575b600080fd5b6101c66101c13660046112df565b61042b565b60405190151581526020015b60405180910390f35b6101e3610462565b6040516101d29190611335565b6101c66101fe36600461137f565b6104f4565b6002545b6040519081526020016101d2565b6101c66102233660046113a9565b61050c565b6102076102363660046113e5565b60009081526009602052604090206001015490565b6102077f3c11d16cbaffd01df69ce1c404f6340ee057498f5f00246190ea54220576a84881565b6102856102803660046113fe565b610530565b005b604051601281526020016101d2565b6102856102a43660046113fe565b61055a565b6101c66102b736600461137f565b6105dd565b6102076102ca36600461137f565b61061c565b6102076102dd36600461142a565b6001600160a01b031660009081526020819052604090205490565b610285610675565b600a546040516001600160a01b0390911681526020016101d2565b6101c66103293660046113fe565b60009182526009602090815260408084206001600160a01b0393909316845291905290205460ff1690565b6101e3610689565b610285610698565b6102076103723660046113e5565b6106ab565b610207600081565b6101c661038d36600461137f565b6106d6565b6101c66103a036600461137f565b610768565b6102077f9f2df0fed2c77648de5860a4cc508cd0818c85b8b8a1ab4ceeef8d981c8956a681565b6102856103da3660046113fe565b610776565b6102076103ed366004611445565b6001600160a01b03918216600090815260016020908152604080832093909416825291909152205490565b61028561042636600461142a565b61079b565b60006001600160e01b03198216637965db0b60e01b148061045c57506301ffc9a760e01b6001600160e01b03198316145b92915050565b6060600380546104719061146f565b80601f016020809104026020016040519081016040528092919081815260200182805461049d9061146f565b80156104ea5780601f106104bf576101008083540402835291602001916104ea565b820191906000526020600020905b8154815290600101906020018083116104cd57829003601f168201915b5050505050905090565b60003361050281858561085d565b5060019392505050565b60003361051a858285610981565b610525858585610a13565b506001949350505050565b60008281526009602052604090206001015461054b81610bc2565b6105558383610bcc565b505050565b6001600160a01b03811633146105cf5760405162461bcd60e51b815260206004820152602f60248201527f416363657373436f6e74726f6c3a2063616e206f6e6c792072656e6f756e636560448201526e103937b632b9903337b91039b2b63360891b60648201526084015b60405180910390fd5b6105d98282610c6e565b5050565b3360008181526001602090815260408083206001600160a01b038716845290915281205490919061050290829086906106179087906114c0565b61085d565b6001600160a01b038216600090815260056020526040812081908190610643908590610cf1565b915091508161066a576001600160a01b03851660009081526020819052604090205461066c565b805b95945050505050565b61067d610def565b6106876000610e49565b565b6060600480546104719061146f565b6106a0610def565b6106a8610ea8565b50565b60008060006106bb846006610cf1565b91509150816106cc576002546106ce565b805b949350505050565b3360008181526001602090815260408083206001600160a01b03871684529091528120549091908381101561075b5760405162461bcd60e51b815260206004820152602560248201527f45524332303a2064656372656173656420616c6c6f77616e63652062656c6f77604482015264207a65726f60d81b60648201526084016105c6565b610525828686840361085d565b600033610502818585610a13565b60008281526009602052604090206001015461079181610bc2565b6105558383610c6e565b6107a3610def565b6001600160a01b0381166108085760405162461bcd60e51b815260206004820152602660248201527f4f776e61626c653a206e6577206f776e657220697320746865207a65726f206160448201526564647265737360d01b60648201526084016105c6565b6106a881610e49565b6001600160a01b0383166108305761082882610f02565b610555610f34565b6001600160a01b0382166108475761082883610f02565b61085083610f02565b61055582610f02565b5490565b6001600160a01b0383166108bf5760405162461bcd60e51b8152602060048201526024808201527f45524332303a20617070726f76652066726f6d20746865207a65726f206164646044820152637265737360e01b60648201526084016105c6565b6001600160a01b0382166109205760405162461bcd60e51b815260206004820152602260248201527f45524332303a20617070726f766520746f20746865207a65726f206164647265604482015261737360f01b60648201526084016105c6565b6001600160a01b0383811660008181526001602090815260408083209487168084529482529182902085905590518481527f8c5be1e5ebec7d5bd14f71427d1e84f3dd0314c0f7b2291e5b200ac8c7c3b925910160405180910390a3505050565b6001600160a01b038381166000908152600160209081526040808320938616835292905220546000198114610a0d5781811015610a005760405162461bcd60e51b815260206004820152601d60248201527f45524332303a20696e73756666696369656e7420616c6c6f77616e636500000060448201526064016105c6565b610a0d848484840361085d565b50505050565b6001600160a01b038316610a775760405162461bcd60e51b815260206004820152602560248201527f45524332303a207472616e736665722066726f6d20746865207a65726f206164604482015264647265737360d81b60648201526084016105c6565b6001600160a01b038216610ad95760405162461bcd60e51b815260206004820152602360248201527f45524332303a207472616e7366657220746f20746865207a65726f206164647260448201526265737360e81b60648201526084016105c6565b610ae4838383610f42565b6001600160a01b03831660009081526020819052604090205481811015610b5c5760405162461bcd60e51b815260206004820152602660248201527f45524332303a207472616e7366657220616d6f756e7420657863656564732062604482015265616c616e636560d01b60648201526084016105c6565b6001600160a01b03848116600081815260208181526040808320878703905593871680835291849020805487019055925185815290927fddf252ad1be2c89b69c2b068fc378daa952ba7f163c4a11628f55a4df523b3ef910160405180910390a3610a0d565b6106a88133610f4d565b60008281526009602090815260408083206001600160a01b038516845290915290205460ff166105d95760008281526009602090815260408083206001600160a01b03851684529091529020805460ff19166001179055610c2a3390565b6001600160a01b0316816001600160a01b0316837f2f8788117e7eff1d82e926ec794901d17c78024a50270940304540a733656f0d60405160405180910390a45050565b60008281526009602090815260408083206001600160a01b038516845290915290205460ff16156105d95760008281526009602090815260408083206001600160a01b0385168085529252808320805460ff1916905551339285917ff6391f5c32d9c69d2a47ea670b442974b53935d1edc7fd64eb21e047a839171b9190a45050565b60008060008411610d445760405162461bcd60e51b815260206004820152601660248201527f4552433230536e617073686f743a20696420697320300000000000000000000060448201526064016105c6565b610d4c610fc2565b841115610d9b5760405162461bcd60e51b815260206004820152601d60248201527f4552433230536e617073686f743a206e6f6e6578697374656e7420696400000060448201526064016105c6565b6000610da78486610fd2565b8454909150811415610dc0576000809250925050610de8565b6001846001018281548110610dd757610dd76114d8565b906000526020600020015492509250505b9250929050565b600a546001600160a01b031633146106875760405162461bcd60e51b815260206004820181905260248201527f4f776e61626c653a2063616c6c6572206973206e6f7420746865206f776e657260448201526064016105c6565b600a80546001600160a01b0383811673ffffffffffffffffffffffffffffffffffffffff19831681179093556040519116919082907f8be0079c531659141344cd1fd0a4f28419497f9722a3daafe3b4186f6b6457e090600090a35050565b6000610eb8600880546001019055565b6000610ec2610fc2565b90507f8030e83b04d87bef53480e26263266d6ca66863aa8506aca6f2559d18aa1cb6781604051610ef591815260200190565b60405180910390a1919050565b6001600160a01b038116600090815260056020908152604080832091839052909120546106a8919061107d565b61107d565b6106876006610f2f60025490565b610555838383610811565b60008281526009602090815260408083206001600160a01b038516845290915290205460ff166105d957610f80816110c7565b610f8b8360206110d9565b604051602001610f9c9291906114ee565b60408051601f198184030181529082905262461bcd60e51b82526105c691600401611335565b6000610fcd60085490565b905090565b8154600090610fe35750600061045c565b82546000905b80821015611030576000610ffd838361127c565b6000878152602090209091508590820154111561101c5780915061102a565b6110278160016114c0565b92505b50610fe9565b60008211801561105c5750836110598661104b600186611563565b600091825260209091200190565b54145b156110755761106c600183611563565b9250505061045c565b50905061045c565b6000611087610fc2565b90508061109384611297565b1015610555578254600180820185556000858152602080822090930193909355938401805494850181558252902090910155565b606061045c6001600160a01b03831660145b606060006110e883600261157a565b6110f39060026114c0565b67ffffffffffffffff81111561110b5761110b611599565b6040519080825280601f01601f191660200182016040528015611135576020820181803683370190505b509050600360fc1b81600081518110611150576111506114d8565b60200101906001600160f81b031916908160001a905350600f60fb1b8160018151811061117f5761117f6114d8565b60200101906001600160f81b031916908160001a90535060006111a384600261157a565b6111ae9060016114c0565b90505b6001811115611226576f181899199a1a9b1b9c1cb0b131b232b360811b85600f16601081106111e2576111e26114d8565b1a60f81b8282815181106111f8576111f86114d8565b60200101906001600160f81b031916908160001a90535060049490941c9361121f816115af565b90506111b1565b5083156112755760405162461bcd60e51b815260206004820181905260248201527f537472696e67733a20686578206c656e67746820696e73756666696369656e7460448201526064016105c6565b9392505050565b600061128b60028484186115c6565b611275908484166114c0565b80546000906112a857506000919050565b815482906112b890600190611563565b815481106112c8576112c86114d8565b90600052602060002001549050919050565b919050565b6000602082840312156112f157600080fd5b81356001600160e01b03198116811461127557600080fd5b60005b8381101561132457818101518382015260200161130c565b83811115610a0d5750506000910152565b6020815260008251806020840152611354816040850160208701611309565b601f01601f19169190910160400192915050565b80356001600160a01b03811681146112da57600080fd5b6000806040838503121561139257600080fd5b61139b83611368565b946020939093013593505050565b6000806000606084860312156113be57600080fd5b6113c784611368565b92506113d560208501611368565b9150604084013590509250925092565b6000602082840312156113f757600080fd5b5035919050565b6000806040838503121561141157600080fd5b8235915061142160208401611368565b90509250929050565b60006020828403121561143c57600080fd5b61127582611368565b6000806040838503121561145857600080fd5b61146183611368565b915061142160208401611368565b600181811c9082168061148357607f821691505b602082108114156114a457634e487b7160e01b600052602260045260246000fd5b50919050565b634e487b7160e01b600052601160045260246000fd5b600082198211156114d3576114d36114aa565b500190565b634e487b7160e01b600052603260045260246000fd5b7f416363657373436f6e74726f6c3a206163636f756e7420000000000000000000815260008351611526816017850160208801611309565b7001034b99036b4b9b9b4b733903937b6329607d1b6017918401918201528351611557816028840160208801611309565b01602801949350505050565b600082821015611575576115756114aa565b500390565b6000816000190483118215151615611594576115946114aa565b500290565b634e487b7160e01b600052604160045260246000fd5b6000816115be576115be6114aa565b506000190190565b6000826115e357634e487b7160e01b600052601260045260246000fd5b50049056fea264697066735822122082f7d090ffad44d974fa197b640f8eccb72efbfbceb3a1cd24ab2b49e4a01b6864736f6c63430008090033",
  "linkReferences": {},
  "deployedLinkReferences": {}
}