{
  "_format": "hh-sol-artifact-1",
  "contractName": "SampleToken",
  "sourceName": "contracts/SampleToken.sol",
  "abi": [
    {
      "inputs": [],
      "stateMutability": "nonpayable",
      "type": "constructor"
    },
    {
      "anonymous": false,
      "inputs": [
        {
          "indexed": true,
          "internalType": "address",
          "name": "owner",
          "type": "address"
        },
        {
          "indexed": true,
          "internalType": "address",
          "name": "spender",
          "type": "address"
        },
        {
          "indexed": false,
          "internalType": "uint256",
          "name": "value",
          "type": "uint256"
        }
      ],
      "name": "Approval",
      "type": "event"
    },
    {
      "anonymous": false,
      "inputs": [
        {
          "indexed": true,
          "internalType": "address",
          "name": "previousOwner",
          "type": "address"
        },
        {
          "indexed": true,
          "internalType": "address",
          "name": "newOwner",
          "type": "address"
        }
      ],
      "name": "OwnershipTransferred",
      "type": "event"
    },
    {
      "anonymous": false,
      "inputs": [
        {
          "indexed": true,
          "internalType": "bytes32",
          "name": "role",
          "type": "bytes32"
        },
        {
          "indexed": true,
          "internalType": "bytes32",
          "name": "previousAdminRole",
          "type": "bytes32"
        },
        {
          "indexed": true,
          "internalType": "bytes32",
          "name": "newAdminRole",
          "type": "bytes32"
        }
      ],
      "name": "RoleAdminChanged",
      "type": "event"
    },
    {
      "anonymous": false,
      "inputs": [
        {
          "indexed": true,
          "internalType": "bytes32",
          "name": "role",
          "type": "bytes32"
        },
        {
          "indexed": true,
          "internalType": "address",
          "name": "account",
          "type": "address"
        },
        {
          "indexed": true,
          "internalType": "address",
          "name": "sender",
          "type": "address"
        }
      ],
      "name": "RoleGranted",
      "type": "event"
    },
    {
      "anonymous": false,
      "inputs": [
        {
          "indexed": true,
          "internalType": "bytes32",
          "name": "role",
          "type": "bytes32"
        },
        {
          "indexed": true,
          "internalType": "address",
          "name": "account",
          "type": "address"
        },
        {
          "indexed": true,
          "internalType": "address",
          "name": "sender",
          "type": "address"
        }
      ],
      "name": "RoleRevoked",
      "type": "event"
    },
    {
      "anonymous": false,
      "inputs": [
        {
          "indexed": false,
          "internalType": "uint256",
          "name": "id",
          "type": "uint256"
        }
      ],
      "name": "Snapshot",
      "type": "event"
    },
    {
      "anonymous": false,
      "inputs": [
        {
          "indexed": true,
          "internalType": "address",
          "name": "from",
          "type": "address"
        },
        {
          "indexed": true,
          "internalType": "address",
          "name": "to",
          "type": "address"
        },
        {
          "indexed": false,
          "internalType": "uint256",
          "name": "value",
          "type": "uint256"
        }
      ],
      "name": "Transfer",
      "type": "event"
    },
    {
      "inputs": [],
      "name": "BURNER_ROLE",
      "outputs": [
        {
          "internalType": "bytes32",
          "name": "",
          "type": "bytes32"
        }
      ],
      "stateMutability": "view",
      "type": "function"
    },
    {
      "inputs": [],
      "name": "DEFAULT_ADMIN_ROLE",
      "outputs": [
        {
          "internalType": "bytes32",
          "name": "",
          "type": "bytes32"
        }
      ],
      "stateMutability": "view",
      "type": "function"
    },
    {
      "inputs": [],
      "name": "MINTER_ROLE",
      "outputs": [
        {
          "internalType": "bytes32",
          "name": "",
          "type": "bytes32"
        }
      ],
      "stateMutability": "view",
      "type": "function"
    },
    {
      "inputs": [
        {
          "internalType": "address",
          "name": "owner",
          "type": "address"
        },
        {
          "internalType": "address",
          "name": "spender",
          "type": "address"
        }
      ],
      "name": "allowance",
      "outputs": [
        {
          "internalType": "uint256",
          "name": "",
          "type": "uint256"
        }
      ],
      "stateMutability": "view",
      "type": "function"
    },
    {
      "inputs": [
        {
          "internalType": "address",
          "name": "spender",
          "type": "address"
        },
        {
          "internalType": "uint256",
          "name": "amount",
          "type": "uint256"
        }
      ],
      "name": "approve",
      "outputs": [
        {
          "internalType": "bool",
          "name": "",
          "type": "bool"
        }
      ],
      "stateMutability": "nonpayable",
      "type": "function"
    },
    {
      "inputs": [
        {
          "internalType": "address",
          "name": "account",
          "type": "address"
        }
      ],
      "name": "balanceOf",
      "outputs": [
        {
          "internalType": "uint256",
          "name": "",
          "type": "uint256"
        }
      ],
      "stateMutability": "view",
      "type": "function"
    },
    {
      "inputs": [
        {
          "internalType": "address",
          "name": "account",
          "type": "address"
        },
        {
          "internalType": "uint256",
          "name": "snapshotId",
          "type": "uint256"
        }
      ],
      "name": "balanceOfAt",
      "outputs": [
        {
          "internalType": "uint256",
          "name": "",
          "type": "uint256"
        }
      ],
      "stateMutability": "view",
      "type": "function"
    },
    {
      "inputs": [],
      "name": "decimals",
      "outputs": [
        {
          "internalType": "uint8",
          "name": "",
          "type": "uint8"
        }
      ],
      "stateMutability": "view",
      "type": "function"
    },
    {
      "inputs": [
        {
          "internalType": "address",
          "name": "spender",
          "type": "address"
        },
        {
          "internalType": "uint256",
          "name": "subtractedValue",
          "type": "uint256"
        }
      ],
      "name": "decreaseAllowance",
      "outputs": [
        {
          "internalType": "bool",
          "name": "",
          "type": "bool"
        }
      ],
      "stateMutability": "nonpayable",
      "type": "function"
    },
    {
      "inputs": [
        {
          "internalType": "bytes32",
          "name": "role",
          "type": "bytes32"
        }
      ],
      "name": "getRoleAdmin",
      "outputs": [
        {
          "internalType": "bytes32",
          "name": "",
          "type": "bytes32"
        }
      ],
      "stateMutability": "view",
      "type": "function"
    },
    {
      "inputs": [
        {
          "internalType": "bytes32",
          "name": "role",
          "type": "bytes32"
        },
        {
          "internalType": "address",
          "name": "account",
          "type": "address"
        }
      ],
      "name": "grantRole",
      "outputs": [],
      "stateMutability": "nonpayable",
      "type": "function"
    },
    {
      "inputs": [
        {
          "internalType": "bytes32",
          "name": "role",
          "type": "bytes32"
        },
        {
          "internalType": "address",
          "name": "account",
          "type": "address"
        }
      ],
      "name": "hasRole",
      "outputs": [
        {
          "internalType": "bool",
          "name": "",
          "type": "bool"
        }
      ],
      "stateMutability": "view",
      "type": "function"
    },
    {
      "inputs": [
        {
          "internalType": "address",
          "name": "spender",
          "type": "address"
        },
        {
          "internalType": "uint256",
          "name": "addedValue",
          "type": "uint256"
        }
      ],
      "name": "increaseAllowance",
      "outputs": [
        {
          "internalType": "bool",
          "name": "",
          "type": "bool"
        }
      ],
      "stateMutability": "nonpayable",
      "type": "function"
    },
    {
      "inputs": [],
      "name": "name",
      "outputs": [
        {
          "internalType": "string",
          "name": "",
          "type": "string"
        }
      ],
      "stateMutability": "view",
      "type": "function"
    },
    {
      "inputs": [],
      "name": "owner",
      "outputs": [
        {
          "internalType": "address",
          "name": "",
          "type": "address"
        }
      ],
      "stateMutability": "view",
      "type": "function"
    },
    {
      "inputs": [],
      "name": "renounceOwnership",
      "outputs": [],
      "stateMutability": "nonpayable",
      "type": "function"
    },
    {
      "inputs": [
        {
          "internalType": "bytes32",
          "name": "role",
          "type": "bytes32"
        },
        {
          "internalType": "address",
          "name": "account",
          "type": "address"
        }
      ],
      "name": "renounceRole",
      "outputs": [],
      "stateMutability": "nonpayable",
      "type": "function"
    },
    {
      "inputs": [
        {
          "internalType": "bytes32",
          "name": "role",
          "type": "bytes32"
        },
        {
          "internalType": "address",
          "name": "account",
          "type": "address"
        }
      ],
      "name": "revokeRole",
      "outputs": [],
      "stateMutability": "nonpayable",
      "type": "function"
    },
    {
      "inputs": [],
      "name": "snapshot",
      "outputs": [],
      "stateMutability": "nonpayable",
      "type": "function"
    },
    {
      "inputs": [
        {
          "internalType": "bytes4",
          "name": "interfaceId",
          "type": "bytes4"
        }
      ],
      "name": "supportsInterface",
      "outputs": [
        {
          "internalType": "bool",
          "name": "",
          "type": "bool"
        }
      ],
      "stateMutability": "view",
      "type": "function"
    },
    {
      "inputs": [],
      "name": "symbol",
      "outputs": [
        {
          "internalType": "string",
          "name": "",
          "type": "string"
        }
      ],
      "stateMutability": "view",
      "type": "function"
    },
    {
      "inputs": [],
      "name": "totalSupply",
      "outputs": [
        {
          "internalType": "uint256",
          "name": "",
          "type": "uint256"
        }
      ],
      "stateMutability": "view",
      "type": "function"
    },
    {
      "inputs": [
        {
          "internalType": "uint256",
          "name": "snapshotId",
          "type": "uint256"
        }
      ],
      "name": "totalSupplyAt",
      "outputs": [
        {
          "internalType": "uint256",
          "name": "",
          "type": "uint256"
        }
      ],
      "stateMutability": "view",
      "type": "function"
    },
    {
      "inputs": [
        {
          "internalType": "address",
          "name": "to",
          "type": "address"
        },
        {
          "internalType": "uint256",
          "name": "amount",
          "type": "uint256"
        }
      ],
      "name": "transfer",
      "outputs": [
        {
          "internalType": "bool",
          "name": "",
          "type": "bool"
        }
      ],
      "stateMutability": "nonpayable",
      "type": "function"
    },
    {
      "inputs": [
        {
          "internalType": "address",
          "name": "from",
          "type": "address"
        },
        {
          "internalType": "address",
          "name": "to",
          "type": "address"
        },
        {
          "internalType": "uint256",
          "name": "amount",
          "type": "uint256"
        }
      ],
      "name": "transferFrom",
      "outputs": [
        {
          "internalType": "bool",
          "name": "",
          "type": "bool"
        }
      ],
      "stateMutability": "nonpayable",
      "type": "function"
    },
    {
      "inputs": [
        {
          "internalType": "address",
          "name": "newOwner",
          "type": "address"
        }
      ],
      "name": "transferOwnership",
      "outputs": [],
      "stateMutability": "nonpayable",
      "type": "function"
    }
  ],
  "bytecode": "0x60806040523480156200001157600080fd5b506040518060400160405280600b81526020017f53616d706c65546f6b656e0000000000000000000000000000000000000000008152506040518060400160405280600281526020017f5354000000000000000000000000000000000000000000000000000000000000815250816003908051906020019062000096929190620007eb565b508060049080519060200190620000af929190620007eb565b505050620000d2620000c66200012c60201b60201c565b6200013460201b60201c565b620000e76000801b33620001fa60201b60201c565b6200012633620000fc6200021060201b60201c565b600a6200010a919062000a35565b620186a06200011a919062000a86565b6200021960201b60201c565b62000cc4565b600033905090565b6000600a60009054906101000a900473ffffffffffffffffffffffffffffffffffffffff16905081600a60006101000a81548173ffffffffffffffffffffffffffffffffffffffff021916908373ffffffffffffffffffffffffffffffffffffffff1602179055508173ffffffffffffffffffffffffffffffffffffffff168173ffffffffffffffffffffffffffffffffffffffff167f8be0079c531659141344cd1fd0a4f28419497f9722a3daafe3b4186f6b6457e060405160405180910390a35050565b6200020c82826200038760201b60201c565b5050565b60006012905090565b600073ffffffffffffffffffffffffffffffffffffffff168273ffffffffffffffffffffffffffffffffffffffff1614156200028c576040517f08c379a0000000000000000000000000000000000000000000000000000000008152600401620002839062000b48565b60405180910390fd5b620002a0600083836200047960201b60201c565b8060026000828254620002b4919062000b6a565b92505081905550806000808473ffffffffffffffffffffffffffffffffffffffff1673ffffffffffffffffffffffffffffffffffffffff168152602001908152602001600020600082825401925050819055508173ffffffffffffffffffffffffffffffffffffffff16600073ffffffffffffffffffffffffffffffffffffffff167fddf252ad1be2c89b69c2b068fc378daa952ba7f163c4a11628f55a4df523b3ef8360405162000367919062000bd8565b60405180910390a362000383600083836200049660201b60201c565b5050565b6200039982826200049b60201b60201c565b620004755760016009600084815260200190815260200160002060000160008373ffffffffffffffffffffffffffffffffffffffff1673ffffffffffffffffffffffffffffffffffffffff16815260200190815260200160002060006101000a81548160ff0219169083151502179055506200041a6200012c60201b60201c565b73ffffffffffffffffffffffffffffffffffffffff168173ffffffffffffffffffffffffffffffffffffffff16837f2f8788117e7eff1d82e926ec794901d17c78024a50270940304540a733656f0d60405160405180910390a45b5050565b620004918383836200050660201b62000bff1760201c565b505050565b505050565b60006009600084815260200190815260200160002060000160008373ffffffffffffffffffffffffffffffffffffffff1673ffffffffffffffffffffffffffffffffffffffff16815260200190815260200160002060009054906101000a900460ff16905092915050565b6200051e8383836200060160201b62000cb91760201c565b600073ffffffffffffffffffffffffffffffffffffffff168373ffffffffffffffffffffffffffffffffffffffff1614156200057b5762000565826200060660201b60201c565b620005756200066960201b60201c565b620005fc565b600073ffffffffffffffffffffffffffffffffffffffff168273ffffffffffffffffffffffffffffffffffffffff161415620005d857620005c2836200060660201b60201c565b620005d26200066960201b60201c565b620005fb565b620005e9836200060660201b60201c565b620005fa826200060660201b60201c565b5b5b505050565b505050565b62000666600560008373ffffffffffffffffffffffffffffffffffffffff1673ffffffffffffffffffffffffffffffffffffffff1681526020019081526020016000206200065a836200068d60201b60201c565b620006d560201b60201c565b50565b6200068b60066200067f6200076160201b60201c565b620006d560201b60201c565b565b60008060008373ffffffffffffffffffffffffffffffffffffffff1673ffffffffffffffffffffffffffffffffffffffff168152602001908152602001600020549050919050565b6000620006e76200076b60201b60201c565b905080620006fe846000016200078960201b60201c565b10156200075c5782600001819080600181540180825580915050600190039060005260206000200160009091909190915055826001018290806001815401808255809150506001900390600052602060002001600090919091909150555b505050565b6000600254905090565b6000620007846008620007dd60201b62000cbe1760201c565b905090565b60008082805490501415620007a25760009050620007d8565b8160018380549050620007b6919062000bf5565b81548110620007ca57620007c962000c30565b5b906000526020600020015490505b919050565b600081600001549050919050565b828054620007f99062000c8e565b90600052602060002090601f0160209004810192826200081d576000855562000869565b82601f106200083857805160ff191683800117855562000869565b8280016001018555821562000869579182015b82811115620008685782518255916020019190600101906200084b565b5b5090506200087891906200087c565b5090565b5b80821115620008975760008160009055506001016200087d565b5090565b7f4e487b7100000000000000000000000000000000000000000000000000000000600052601160045260246000fd5b60008160011c9050919050565b6000808291508390505b600185111562000929578086048111156200090157620009006200089b565b5b6001851615620009115780820291505b80810290506200092185620008ca565b9450620008e1565b94509492505050565b60008262000944576001905062000a17565b8162000954576000905062000a17565b81600181146200096d57600281146200097857620009ae565b600191505062000a17565b60ff8411156200098d576200098c6200089b565b5b8360020a915084821115620009a757620009a66200089b565b5b5062000a17565b5060208310610133831016604e8410600b8410161715620009e85782820a905083811115620009e257620009e16200089b565b5b62000a17565b620009f78484846001620008d7565b9250905081840481111562000a115762000a106200089b565b5b81810290505b9392505050565b6000819050919050565b600060ff82169050919050565b600062000a428262000a1e565b915062000a4f8362000a28565b925062000a7e7fffffffffffffffffffffffffffffffffffffffffffffffffffffffffffffffff848462000932565b905092915050565b600062000a938262000a1e565b915062000aa08362000a1e565b9250817fffffffffffffffffffffffffffffffffffffffffffffffffffffffffffffffff048311821515161562000adc5762000adb6200089b565b5b828202905092915050565b600082825260208201905092915050565b7f45524332303a206d696e7420746f20746865207a65726f206164647265737300600082015250565b600062000b30601f8362000ae7565b915062000b3d8262000af8565b602082019050919050565b6000602082019050818103600083015262000b638162000b21565b9050919050565b600062000b778262000a1e565b915062000b848362000a1e565b9250827fffffffffffffffffffffffffffffffffffffffffffffffffffffffffffffffff0382111562000bbc5762000bbb6200089b565b5b828201905092915050565b62000bd28162000a1e565b82525050565b600060208201905062000bef600083018462000bc7565b92915050565b600062000c028262000a1e565b915062000c0f8362000a1e565b92508282101562000c255762000c246200089b565b5b828203905092915050565b7f4e487b7100000000000000000000000000000000000000000000000000000000600052603260045260246000fd5b7f4e487b7100000000000000000000000000000000000000000000000000000000600052602260045260246000fd5b6000600282049050600182168062000ca757607f821691505b6020821081141562000cbe5762000cbd62000c5f565b5b50919050565b612ab98062000cd46000396000f3fe608060405234801561001057600080fd5b506004361061018e5760003560e01c8063715018a6116100de578063a217fddf11610097578063d539139311610071578063d5391393146104c1578063d547741f146104df578063dd62ed3e146104fb578063f2fde38b1461052b5761018e565b8063a217fddf14610443578063a457c2d714610461578063a9059cbb146104915761018e565b8063715018a6146103935780638da5cb5b1461039d57806391d14854146103bb57806395d89b41146103eb5780639711715a14610409578063981b24d0146104135761018e565b8063282c51f31161014b57806336568abe1161012557806336568abe146102e757806339509351146103035780634ee2cd7e1461033357806370a08231146103635761018e565b8063282c51f31461028f5780632f2ff15d146102ad578063313ce567146102c95761018e565b806301ffc9a71461019357806306fdde03146101c3578063095ea7b3146101e157806318160ddd1461021157806323b872dd1461022f578063248a9ca31461025f575b600080fd5b6101ad60048036038101906101a89190611c36565b610547565b6040516101ba9190611c7e565b60405180910390f35b6101cb6105c1565b6040516101d89190611d32565b60405180910390f35b6101fb60048036038101906101f69190611de8565b610653565b6040516102089190611c7e565b60405180910390f35b610219610676565b6040516102269190611e37565b60405180910390f35b61024960048036038101906102449190611e52565b610680565b6040516102569190611c7e565b60405180910390f35b61027960048036038101906102749190611edb565b6106af565b6040516102869190611f17565b60405180910390f35b6102976106cf565b6040516102a49190611f17565b60405180910390f35b6102c760048036038101906102c29190611f32565b6106f3565b005b6102d1610714565b6040516102de9190611f8e565b60405180910390f35b61030160048036038101906102fc9190611f32565b61071d565b005b61031d60048036038101906103189190611de8565b6107a0565b60405161032a9190611c7e565b60405180910390f35b61034d60048036038101906103489190611de8565b6107d7565b60405161035a9190611e37565b60405180910390f35b61037d60048036038101906103789190611fa9565b610847565b60405161038a9190611e37565b60405180910390f35b61039b61088f565b005b6103a56108a3565b6040516103b29190611fe5565b60405180910390f35b6103d560048036038101906103d09190611f32565b6108cd565b6040516103e29190611c7e565b60405180910390f35b6103f3610938565b6040516104009190611d32565b60405180910390f35b6104116109ca565b005b61042d60048036038101906104289190612000565b6109dd565b60405161043a9190611e37565b60405180910390f35b61044b610a0e565b6040516104589190611f17565b60405180910390f35b61047b60048036038101906104769190611de8565b610a15565b6040516104889190611c7e565b60405180910390f35b6104ab60048036038101906104a69190611de8565b610a8c565b6040516104b89190611c7e565b60405180910390f35b6104c9610aaf565b6040516104d69190611f17565b60405180910390f35b6104f960048036038101906104f49190611f32565b610ad3565b005b6105156004803603810190610510919061202d565b610af4565b6040516105229190611e37565b60405180910390f35b61054560048036038101906105409190611fa9565b610b7b565b005b60007f7965db0b000000000000000000000000000000000000000000000000000000007bffffffffffffffffffffffffffffffffffffffffffffffffffffffff1916827bffffffffffffffffffffffffffffffffffffffffffffffffffffffff191614806105ba57506105b982610ccc565b5b9050919050565b6060600380546105d09061209c565b80601f01602080910402602001604051908101604052809291908181526020018280546105fc9061209c565b80156106495780601f1061061e57610100808354040283529160200191610649565b820191906000526020600020905b81548152906001019060200180831161062c57829003601f168201915b5050505050905090565b60008061065e610d36565b905061066b818585610d3e565b600191505092915050565b6000600254905090565b60008061068b610d36565b9050610698858285610f09565b6106a3858585610f95565b60019150509392505050565b600060096000838152602001908152602001600020600101549050919050565b7f3c11d16cbaffd01df69ce1c404f6340ee057498f5f00246190ea54220576a84881565b6106fc826106af565b6107058161120d565b61070f8383611221565b505050565b60006012905090565b610725610d36565b73ffffffffffffffffffffffffffffffffffffffff168173ffffffffffffffffffffffffffffffffffffffff1614610792576040517f08c379a000000000000000000000000000000000000000000000000000000000815260040161078990612140565b60405180910390fd5b61079c8282611302565b5050565b6000806107ab610d36565b90506107cc8185856107bd8589610af4565b6107c7919061218f565b610d3e565b600191505092915050565b600080600061082484600560008873ffffffffffffffffffffffffffffffffffffffff1673ffffffffffffffffffffffffffffffffffffffff1681526020019081526020016000206113e4565b915091508161083b5761083685610847565b61083d565b805b9250505092915050565b60008060008373ffffffffffffffffffffffffffffffffffffffff1673ffffffffffffffffffffffffffffffffffffffff168152602001908152602001600020549050919050565b6108976114da565b6108a16000611558565b565b6000600a60009054906101000a900473ffffffffffffffffffffffffffffffffffffffff16905090565b60006009600084815260200190815260200160002060000160008373ffffffffffffffffffffffffffffffffffffffff1673ffffffffffffffffffffffffffffffffffffffff16815260200190815260200160002060009054906101000a900460ff16905092915050565b6060600480546109479061209c565b80601f01602080910402602001604051908101604052809291908181526020018280546109739061209c565b80156109c05780601f10610995576101008083540402835291602001916109c0565b820191906000526020600020905b8154815290600101906020018083116109a357829003601f168201915b5050505050905090565b6109d26114da565b6109da61161e565b50565b60008060006109ed8460066113e4565b9150915081610a03576109fe610676565b610a05565b805b92505050919050565b6000801b81565b600080610a20610d36565b90506000610a2e8286610af4565b905083811015610a73576040517f08c379a0000000000000000000000000000000000000000000000000000000008152600401610a6a90612257565b60405180910390fd5b610a808286868403610d3e565b60019250505092915050565b600080610a97610d36565b9050610aa4818585610f95565b600191505092915050565b7f9f2df0fed2c77648de5860a4cc508cd0818c85b8b8a1ab4ceeef8d981c8956a681565b610adc826106af565b610ae58161120d565b610aef8383611302565b505050565b6000600160008473ffffffffffffffffffffffffffffffffffffffff1673ffffffffffffffffffffffffffffffffffffffff16815260200190815260200160002060008373ffffffffffffffffffffffffffffffffffffffff1673ffffffffffffffffffffffffffffffffffffffff16815260200190815260200160002054905092915050565b610b836114da565b600073ffffffffffffffffffffffffffffffffffffffff168173ffffffffffffffffffffffffffffffffffffffff161415610bf3576040517f08c379a0000000000000000000000000000000000000000000000000000000008152600401610bea906122e9565b60405180910390fd5b610bfc81611558565b50565b610c0a838383610cb9565b600073ffffffffffffffffffffffffffffffffffffffff168373ffffffffffffffffffffffffffffffffffffffff161415610c5557610c4882611674565b610c506116c7565b610cb4565b600073ffffffffffffffffffffffffffffffffffffffff168273ffffffffffffffffffffffffffffffffffffffff161415610ca057610c9383611674565b610c9b6116c7565b610cb3565b610ca983611674565b610cb282611674565b5b5b505050565b505050565b600081600001549050919050565b60007f01ffc9a7000000000000000000000000000000000000000000000000000000007bffffffffffffffffffffffffffffffffffffffffffffffffffffffff1916827bffffffffffffffffffffffffffffffffffffffffffffffffffffffff1916149050919050565b600033905090565b600073ffffffffffffffffffffffffffffffffffffffff168373ffffffffffffffffffffffffffffffffffffffff161415610dae576040517f08c379a0000000000000000000000000000000000000000000000000000000008152600401610da59061237b565b60405180910390fd5b600073ffffffffffffffffffffffffffffffffffffffff168273ffffffffffffffffffffffffffffffffffffffff161415610e1e576040517f08c379a0000000000000000000000000000000000000000000000000000000008152600401610e159061240d565b60405180910390fd5b80600160008573ffffffffffffffffffffffffffffffffffffffff1673ffffffffffffffffffffffffffffffffffffffff16815260200190815260200160002060008473ffffffffffffffffffffffffffffffffffffffff1673ffffffffffffffffffffffffffffffffffffffff168152602001908152602001600020819055508173ffffffffffffffffffffffffffffffffffffffff168373ffffffffffffffffffffffffffffffffffffffff167f8c5be1e5ebec7d5bd14f71427d1e84f3dd0314c0f7b2291e5b200ac8c7c3b92583604051610efc9190611e37565b60405180910390a3505050565b6000610f158484610af4565b90507fffffffffffffffffffffffffffffffffffffffffffffffffffffffffffffffff8114610f8f5781811015610f81576040517f08c379a0000000000000000000000000000000000000000000000000000000008152600401610f7890612479565b60405180910390fd5b610f8e8484848403610d3e565b5b50505050565b600073ffffffffffffffffffffffffffffffffffffffff168373ffffffffffffffffffffffffffffffffffffffff161415611005576040517f08c379a0000000000000000000000000000000000000000000000000000000008152600401610ffc9061250b565b60405180910390fd5b600073ffffffffffffffffffffffffffffffffffffffff168273ffffffffffffffffffffffffffffffffffffffff161415611075576040517f08c379a000000000000000000000000000000000000000000000000000000000815260040161106c9061259d565b60405180910390fd5b6110808383836116db565b60008060008573ffffffffffffffffffffffffffffffffffffffff1673ffffffffffffffffffffffffffffffffffffffff16815260200190815260200160002054905081811015611106576040517f08c379a00000000000000000000000000000000000000000000000000000000081526004016110fd9061262f565b60405180910390fd5b8181036000808673ffffffffffffffffffffffffffffffffffffffff1673ffffffffffffffffffffffffffffffffffffffff16815260200190815260200160002081905550816000808573ffffffffffffffffffffffffffffffffffffffff1673ffffffffffffffffffffffffffffffffffffffff168152602001908152602001600020600082825401925050819055508273ffffffffffffffffffffffffffffffffffffffff168473ffffffffffffffffffffffffffffffffffffffff167fddf252ad1be2c89b69c2b068fc378daa952ba7f163c4a11628f55a4df523b3ef846040516111f49190611e37565b60405180910390a36112078484846116eb565b50505050565b61121e81611219610d36565b6116f0565b50565b61122b82826108cd565b6112fe5760016009600084815260200190815260200160002060000160008373ffffffffffffffffffffffffffffffffffffffff1673ffffffffffffffffffffffffffffffffffffffff16815260200190815260200160002060006101000a81548160ff0219169083151502179055506112a3610d36565b73ffffffffffffffffffffffffffffffffffffffff168173ffffffffffffffffffffffffffffffffffffffff16837f2f8788117e7eff1d82e926ec794901d17c78024a50270940304540a733656f0d60405160405180910390a45b5050565b61130c82826108cd565b156113e05760006009600084815260200190815260200160002060000160008373ffffffffffffffffffffffffffffffffffffffff1673ffffffffffffffffffffffffffffffffffffffff16815260200190815260200160002060006101000a81548160ff021916908315150217905550611385610d36565b73ffffffffffffffffffffffffffffffffffffffff168173ffffffffffffffffffffffffffffffffffffffff16837ff6391f5c32d9c69d2a47ea670b442974b53935d1edc7fd64eb21e047a839171b60405160405180910390a45b5050565b6000806000841161142a576040517f08c379a00000000000000000000000000000000000000000000000000000000081526004016114219061269b565b60405180910390fd5b611432611775565b841115611474576040517f08c379a000000000000000000000000000000000000000000000000000000000815260040161146b90612707565b60405180910390fd5b600061148c858560000161178690919063ffffffff16565b905083600001805490508114156114aa5760008092509250506114d3565b60018460010182815481106114c2576114c1612727565b5b906000526020600020015492509250505b9250929050565b6114e2610d36565b73ffffffffffffffffffffffffffffffffffffffff166115006108a3565b73ffffffffffffffffffffffffffffffffffffffff1614611556576040517f08c379a000000000000000000000000000000000000000000000000000000000815260040161154d906127a2565b60405180910390fd5b565b6000600a60009054906101000a900473ffffffffffffffffffffffffffffffffffffffff16905081600a60006101000a81548173ffffffffffffffffffffffffffffffffffffffff021916908373ffffffffffffffffffffffffffffffffffffffff1602179055508173ffffffffffffffffffffffffffffffffffffffff168173ffffffffffffffffffffffffffffffffffffffff167f8be0079c531659141344cd1fd0a4f28419497f9722a3daafe3b4186f6b6457e060405160405180910390a35050565b600061162a6008611840565b6000611634611775565b90507f8030e83b04d87bef53480e26263266d6ca66863aa8506aca6f2559d18aa1cb67816040516116659190611e37565b60405180910390a18091505090565b6116c4600560008373ffffffffffffffffffffffffffffffffffffffff1673ffffffffffffffffffffffffffffffffffffffff1681526020019081526020016000206116bf83610847565b611856565b50565b6116d960066116d4610676565b611856565b565b6116e6838383610bff565b505050565b505050565b6116fa82826108cd565b61177157611707816118d1565b6117158360001c60206118fe565b604051602001611726929190612896565b6040516020818303038152906040526040517f08c379a00000000000000000000000000000000000000000000000000000000081526004016117689190611d32565b60405180910390fd5b5050565b60006117816008610cbe565b905090565b6000808380549050141561179d576000905061183a565b600080848054905090505b808210156117f15760006117bc8383611b3a565b9050846117c98783611b60565b6000015411156117db578091506117eb565b6001816117e8919061218f565b92505b506117a8565b6000821180156118195750836118138660018561180e91906128d0565b611b60565b60000154145b156118345760018261182b91906128d0565b9250505061183a565b81925050505b92915050565b6001816000016000828254019250508190555050565b6000611860611775565b90508061186f84600001611b82565b10156118cc5782600001819080600181540180825580915050600190039060005260206000200160009091909190915055826001018290806001815401808255809150506001900390600052602060002001600090919091909150555b505050565b60606118f78273ffffffffffffffffffffffffffffffffffffffff16601460ff166118fe565b9050919050565b6060600060028360026119119190612904565b61191b919061218f565b67ffffffffffffffff8111156119345761193361295e565b5b6040519080825280601f01601f1916602001820160405280156119665781602001600182028036833780820191505090505b5090507f30000000000000000000000000000000000000000000000000000000000000008160008151811061199e5761199d612727565b5b60200101907effffffffffffffffffffffffffffffffffffffffffffffffffffffffffffff1916908160001a9053507f780000000000000000000000000000000000000000000000000000000000000081600181518110611a0257611a01612727565b5b60200101907effffffffffffffffffffffffffffffffffffffffffffffffffffffffffffff1916908160001a90535060006001846002611a429190612904565b611a4c919061218f565b90505b6001811115611aec577f3031323334353637383961626364656600000000000000000000000000000000600f861660108110611a8e57611a8d612727565b5b1a60f81b828281518110611aa557611aa4612727565b5b60200101907effffffffffffffffffffffffffffffffffffffffffffffffffffffffffffff1916908160001a905350600485901c945080611ae59061298d565b9050611a4f565b5060008414611b30576040517f08c379a0000000000000000000000000000000000000000000000000000000008152600401611b2790612a03565b60405180910390fd5b8091505092915050565b60006002828418611b4b9190612a52565b828416611b58919061218f565b905092915050565b60008083600052826020600020019050611b7981611bcf565b91505092915050565b60008082805490501415611b995760009050611bca565b8160018380549050611bab91906128d0565b81548110611bbc57611bbb612727565b5b906000526020600020015490505b919050565b6000819050919050565b600080fd5b60007fffffffff0000000000000000000000000000000000000000000000000000000082169050919050565b611c1381611bde565b8114611c1e57600080fd5b50565b600081359050611c3081611c0a565b92915050565b600060208284031215611c4c57611c4b611bd9565b5b6000611c5a84828501611c21565b91505092915050565b60008115159050919050565b611c7881611c63565b82525050565b6000602082019050611c936000830184611c6f565b92915050565b600081519050919050565b600082825260208201905092915050565b60005b83811015611cd3578082015181840152602081019050611cb8565b83811115611ce2576000848401525b50505050565b6000601f19601f8301169050919050565b6000611d0482611c99565b611d0e8185611ca4565b9350611d1e818560208601611cb5565b611d2781611ce8565b840191505092915050565b60006020820190508181036000830152611d4c8184611cf9565b905092915050565b600073ffffffffffffffffffffffffffffffffffffffff82169050919050565b6000611d7f82611d54565b9050919050565b611d8f81611d74565b8114611d9a57600080fd5b50565b600081359050611dac81611d86565b92915050565b6000819050919050565b611dc581611db2565b8114611dd057600080fd5b50565b600081359050611de281611dbc565b92915050565b60008060408385031215611dff57611dfe611bd9565b5b6000611e0d85828601611d9d565b9250506020611e1e85828601611dd3565b9150509250929050565b611e3181611db2565b82525050565b6000602082019050611e4c6000830184611e28565b92915050565b600080600060608486031215611e6b57611e6a611bd9565b5b6000611e7986828701611d9d565b9350506020611e8a86828701611d9d565b9250506040611e9b86828701611dd3565b9150509250925092565b6000819050919050565b611eb881611ea5565b8114611ec357600080fd5b50565b600081359050611ed581611eaf565b92915050565b600060208284031215611ef157611ef0611bd9565b5b6000611eff84828501611ec6565b91505092915050565b611f1181611ea5565b82525050565b6000602082019050611f2c6000830184611f08565b92915050565b60008060408385031215611f4957611f48611bd9565b5b6000611f5785828601611ec6565b9250506020611f6885828601611d9d565b9150509250929050565b600060ff82169050919050565b611f8881611f72565b82525050565b6000602082019050611fa36000830184611f7f565b92915050565b600060208284031215611fbf57611fbe611bd9565b5b6000611fcd84828501611d9d565b91505092915050565b611fdf81611d74565b82525050565b6000602082019050611ffa6000830184611fd6565b92915050565b60006020828403121561201657612015611bd9565b5b600061202484828501611dd3565b91505092915050565b6000806040838503121561204457612043611bd9565b5b600061205285828601611d9d565b925050602061206385828601611d9d565b9150509250929050565b7f4e487b7100000000000000000000000000000000000000000000000000000000600052602260045260246000fd5b600060028204905060018216806120b457607f821691505b602082108114156120c8576120c761206d565b5b50919050565b7f416363657373436f6e74726f6c3a2063616e206f6e6c792072656e6f756e636560008201527f20726f6c657320666f722073656c660000000000000000000000000000000000602082015250565b600061212a602f83611ca4565b9150612135826120ce565b604082019050919050565b600060208201905081810360008301526121598161211d565b9050919050565b7f4e487b7100000000000000000000000000000000000000000000000000000000600052601160045260246000fd5b600061219a82611db2565b91506121a583611db2565b9250827fffffffffffffffffffffffffffffffffffffffffffffffffffffffffffffffff038211156121da576121d9612160565b5b828201905092915050565b7f45524332303a2064656372656173656420616c6c6f77616e63652062656c6f7760008201527f207a65726f000000000000000000000000000000000000000000000000000000602082015250565b6000612241602583611ca4565b915061224c826121e5565b604082019050919050565b6000602082019050818103600083015261227081612234565b9050919050565b7f4f776e61626c653a206e6577206f776e657220697320746865207a65726f206160008201527f6464726573730000000000000000000000000000000000000000000000000000602082015250565b60006122d3602683611ca4565b91506122de82612277565b604082019050919050565b60006020820190508181036000830152612302816122c6565b9050919050565b7f45524332303a20617070726f76652066726f6d20746865207a65726f2061646460008201527f7265737300000000000000000000000000000000000000000000000000000000602082015250565b6000612365602483611ca4565b915061237082612309565b604082019050919050565b6000602082019050818103600083015261239481612358565b9050919050565b7f45524332303a20617070726f766520746f20746865207a65726f20616464726560008201527f7373000000000000000000000000000000000000000000000000000000000000602082015250565b60006123f7602283611ca4565b91506124028261239b565b604082019050919050565b60006020820190508181036000830152612426816123ea565b9050919050565b7f45524332303a20696e73756666696369656e7420616c6c6f77616e6365000000600082015250565b6000612463601d83611ca4565b915061246e8261242d565b602082019050919050565b6000602082019050818103600083015261249281612456565b9050919050565b7f45524332303a207472616e736665722066726f6d20746865207a65726f20616460008201527f6472657373000000000000000000000000000000000000000000000000000000602082015250565b60006124f5602583611ca4565b915061250082612499565b604082019050919050565b60006020820190508181036000830152612524816124e8565b9050919050565b7f45524332303a207472616e7366657220746f20746865207a65726f206164647260008201527f6573730000000000000000000000000000000000000000000000000000000000602082015250565b6000612587602383611ca4565b91506125928261252b565b604082019050919050565b600060208201905081810360008301526125b68161257a565b9050919050565b7f45524332303a207472616e7366657220616d6f756e742065786365656473206260008201527f616c616e63650000000000000000000000000000000000000000000000000000602082015250565b6000612619602683611ca4565b9150612624826125bd565b604082019050919050565b600060208201905081810360008301526126488161260c565b9050919050565b7f4552433230536e617073686f743a206964206973203000000000000000000000600082015250565b6000612685601683611ca4565b91506126908261264f565b602082019050919050565b600060208201905081810360008301526126b481612678565b9050919050565b7f4552433230536e617073686f743a206e6f6e6578697374656e74206964000000600082015250565b60006126f1601d83611ca4565b91506126fc826126bb565b602082019050919050565b60006020820190508181036000830152612720816126e4565b9050919050565b7f4e487b7100000000000000000000000000000000000000000000000000000000600052603260045260246000fd5b7f4f776e61626c653a2063616c6c6572206973206e6f7420746865206f776e6572600082015250565b600061278c602083611ca4565b915061279782612756565b602082019050919050565b600060208201905081810360008301526127bb8161277f565b9050919050565b600081905092915050565b7f416363657373436f6e74726f6c3a206163636f756e7420000000000000000000600082015250565b60006128036017836127c2565b915061280e826127cd565b601782019050919050565b600061282482611c99565b61282e81856127c2565b935061283e818560208601611cb5565b80840191505092915050565b7f206973206d697373696e6720726f6c6520000000000000000000000000000000600082015250565b60006128806011836127c2565b915061288b8261284a565b601182019050919050565b60006128a1826127f6565b91506128ad8285612819565b91506128b882612873565b91506128c48284612819565b91508190509392505050565b60006128db82611db2565b91506128e683611db2565b9250828210156128f9576128f8612160565b5b828203905092915050565b600061290f82611db2565b915061291a83611db2565b9250817fffffffffffffffffffffffffffffffffffffffffffffffffffffffffffffffff048311821515161561295357612952612160565b5b828202905092915050565b7f4e487b7100000000000000000000000000000000000000000000000000000000600052604160045260246000fd5b600061299882611db2565b915060008214156129ac576129ab612160565b5b600182039050919050565b7f537472696e67733a20686578206c656e67746820696e73756666696369656e74600082015250565b60006129ed602083611ca4565b91506129f8826129b7565b602082019050919050565b60006020820190508181036000830152612a1c816129e0565b9050919050565b7f4e487b7100000000000000000000000000000000000000000000000000000000600052601260045260246000fd5b6000612a5d82611db2565b9150612a6883611db2565b925082612a7857612a77612a23565b5b82820490509291505056fea264697066735822122006938c5e1fbf0b9fca817f0f4d3312af9407cda0d403053752d38a42cd9d3e6464736f6c63430008090033",
  "linkReferences": {},
  "deployedLinkReferences": {}
}