{
  "contractName": "DigitalArt",
  "abi": [
    {
      "constant": true,
      "inputs": [],
      "name": "index",
      "outputs": [
        {
          "name": "",
          "type": "uint256"
        }
      ],
      "payable": false,
      "stateMutability": "view",
      "type": "function"
    },
    {
      "constant": true,
      "inputs": [
        {
          "name": "",
          "type": "uint256"
        }
      ],
      "name": "arts",
      "outputs": [
        {
          "name": "id",
          "type": "uint256"
        },
        {
          "name": "title",
          "type": "string"
        },
        {
          "name": "description",
          "type": "string"
        },
        {
          "name": "price",
          "type": "uint256"
        },
        {
          "name": "date",
          "type": "string"
        },
        {
          "name": "authorName",
          "type": "string"
        },
        {
          "name": "author",
          "type": "address"
        },
        {
          "name": "owner",
          "type": "address"
        },
        {
          "name": "status",
          "type": "uint256"
        },
        {
          "name": "image",
          "type": "string"
        }
      ],
      "payable": false,
      "stateMutability": "view",
      "type": "function"
    },
    {
      "inputs": [
        {
          "name": "name",
          "type": "string"
        },
        {
          "name": "symbol",
          "type": "string"
        }
      ],
      "payable": false,
      "stateMutability": "nonpayable",
      "type": "constructor"
    },
    {
      "anonymous": false,
      "inputs": [
        {
          "indexed": false,
          "name": "_tokenId",
          "type": "uint256"
        },
        {
          "indexed": false,
          "name": "_title",
          "type": "string"
        },
        {
          "indexed": false,
          "name": "_authorName",
          "type": "string"
        },
        {
          "indexed": false,
          "name": "_price",
          "type": "uint256"
        },
        {
          "indexed": false,
          "name": "_author",
          "type": "address"
        },
        {
          "indexed": false,
          "name": "_current_owner",
          "type": "address"
        },
        {
          "indexed": false,
          "name": "_buyer",
          "type": "address"
        }
      ],
      "name": "LogArtSold",
      "type": "event"
    },
    {
      "anonymous": false,
      "inputs": [
        {
          "indexed": false,
          "name": "_tokenId",
          "type": "uint256"
        },
        {
          "indexed": false,
          "name": "_title",
          "type": "string"
        },
        {
          "indexed": false,
          "name": "_category",
          "type": "string"
        },
        {
          "indexed": false,
          "name": "_authorName",
          "type": "string"
        },
        {
          "indexed": false,
          "name": "_price",
          "type": "uint256"
        },
        {
          "indexed": false,
          "name": "_author",
          "type": "address"
        },
        {
          "indexed": false,
          "name": "_current_owner",
          "type": "address"
        }
      ],
      "name": "LogArtTokenCreate",
      "type": "event"
    },
    {
      "anonymous": false,
      "inputs": [
        {
          "indexed": false,
          "name": "_tokenId",
          "type": "uint256"
        },
        {
          "indexed": false,
          "name": "_status",
          "type": "uint256"
        },
        {
          "indexed": false,
          "name": "_price",
          "type": "uint256"
        }
      ],
      "name": "LogArtResell",
      "type": "event"
    },
    {
      "anonymous": false,
      "inputs": [
        {
          "indexed": true,
          "name": "from",
          "type": "address"
        },
        {
          "indexed": true,
          "name": "to",
          "type": "address"
        },
        {
          "indexed": true,
          "name": "tokenId",
          "type": "uint256"
        }
      ],
      "name": "Transfer",
      "type": "event"
    },
    {
      "anonymous": false,
      "inputs": [
        {
          "indexed": true,
          "name": "owner",
          "type": "address"
        },
        {
          "indexed": true,
          "name": "approved",
          "type": "address"
        },
        {
          "indexed": true,
          "name": "tokenId",
          "type": "uint256"
        }
      ],
      "name": "Approval",
      "type": "event"
    },
    {
      "anonymous": false,
      "inputs": [
        {
          "indexed": true,
          "name": "owner",
          "type": "address"
        },
        {
          "indexed": true,
          "name": "operator",
          "type": "address"
        },
        {
          "indexed": false,
          "name": "approved",
          "type": "bool"
        }
      ],
      "name": "ApprovalForAll",
      "type": "event"
    },
    {
      "constant": true,
      "inputs": [],
      "name": "name",
      "outputs": [
        {
          "name": "",
          "type": "string"
        }
      ],
      "payable": false,
      "stateMutability": "view",
      "type": "function"
    },
    {
      "constant": true,
      "inputs": [],
      "name": "symbol",
      "outputs": [
        {
          "name": "",
          "type": "string"
        }
      ],
      "payable": false,
      "stateMutability": "view",
      "type": "function"
    },
    {
      "constant": false,
      "inputs": [
        {
          "name": "_title",
          "type": "string"
        },
        {
          "name": "_description",
          "type": "string"
        },
        {
          "name": "_date",
          "type": "string"
        },
        {
          "name": "_authorName",
          "type": "string"
        },
        {
          "name": "_price",
          "type": "uint256"
        },
        {
          "name": "_image",
          "type": "string"
        }
      ],
      "name": "createTokenAndSellArt",
      "outputs": [],
      "payable": false,
      "stateMutability": "nonpayable",
      "type": "function"
    },
    {
      "constant": false,
      "inputs": [
        {
          "name": "_tokenId",
          "type": "uint256"
        }
      ],
      "name": "buyArt",
      "outputs": [],
      "payable": true,
      "stateMutability": "payable",
      "type": "function"
    },
    {
      "constant": false,
      "inputs": [
        {
          "name": "_tokenId",
          "type": "uint256"
        },
        {
          "name": "_price",
          "type": "uint256"
        }
      ],
      "name": "resellArt",
      "outputs": [],
      "payable": true,
      "stateMutability": "payable",
      "type": "function"
    },
    {
      "constant": true,
      "inputs": [
        {
          "name": "_tokenId",
          "type": "uint256"
        }
      ],
      "name": "findArt",
      "outputs": [
        {
          "name": "",
          "type": "uint256"
        },
        {
          "name": "",
          "type": "string"
        },
        {
          "name": "",
          "type": "string"
        },
        {
          "name": "",
          "type": "uint256"
        },
        {
          "name": "status",
          "type": "uint256"
        },
        {
          "name": "",
          "type": "string"
        },
        {
          "name": "",
          "type": "string"
        },
        {
          "name": "",
          "type": "address"
        },
        {
          "name": "",
          "type": "address"
        },
        {
          "name": "",
          "type": "string"
        }
      ],
      "payable": false,
      "stateMutability": "view",
      "type": "function"
    },
    {
      "constant": true,
      "inputs": [],
      "name": "findAllArt",
      "outputs": [
        {
          "name": "",
          "type": "uint256[]"
        },
        {
          "name": "",
          "type": "address[]"
        },
        {
          "name": "",
          "type": "address[]"
        },
        {
          "name": "",
          "type": "uint256[]"
        }
      ],
      "payable": false,
      "stateMutability": "view",
      "type": "function"
    },
    {
      "constant": true,
      "inputs": [],
      "name": "findAllPendingArt",
      "outputs": [
        {
          "name": "",
          "type": "uint256[]"
        },
        {
          "name": "",
          "type": "address[]"
        },
        {
          "name": "",
          "type": "address[]"
        },
        {
          "name": "",
          "type": "uint256[]"
        }
      ],
      "payable": false,
      "stateMutability": "view",
      "type": "function"
    },
    {
      "constant": true,
      "inputs": [],
      "name": "findMyArts",
      "outputs": [
        {
          "name": "_myArts",
          "type": "uint256[]"
        }
      ],
      "payable": false,
      "stateMutability": "view",
      "type": "function"
    },
    {
      "constant": true,
      "inputs": [
        {
          "name": "_tokenId",
          "type": "uint256"
        }
      ],
      "name": "getArtAllTxn",
      "outputs": [
        {
          "name": "_id",
          "type": "uint256[]"
        },
        {
          "name": "_price",
          "type": "uint256[]"
        },
        {
          "name": "seller",
          "type": "address[]"
        },
        {
          "name": "buyer",
          "type": "address[]"
        },
        {
          "name": "_txnDate",
          "type": "uint256[]"
        }
      ],
      "payable": false,
      "stateMutability": "view",
      "type": "function"
    },
    {
      "constant": true,
      "inputs": [
        {
          "name": "_owner",
          "type": "address"
        }
      ],
      "name": "balanceOf",
      "outputs": [
        {
          "name": "",
          "type": "uint256"
        }
      ],
      "payable": false,
      "stateMutability": "view",
      "type": "function"
    },
    {
      "constant": true,
      "inputs": [
        {
          "name": "_tokenId",
          "type": "uint256"
        }
      ],
      "name": "ownerOf",
      "outputs": [
        {
          "name": "_owner",
          "type": "address"
        }
      ],
      "payable": false,
      "stateMutability": "view",
      "type": "function"
    },
    {
      "constant": false,
      "inputs": [
        {
          "name": "_to",
          "type": "address"
        },
        {
          "name": "_tokenId",
          "type": "uint256"
        }
      ],
      "name": "approve",
      "outputs": [],
      "payable": false,
      "stateMutability": "nonpayable",
      "type": "function"
    },
    {
      "constant": false,
      "inputs": [
        {
          "name": "_from",
          "type": "address"
        },
        {
          "name": "_to",
          "type": "address"
        },
        {
          "name": "_tokenId",
          "type": "uint256"
        }
      ],
      "name": "transferFrom",
      "outputs": [],
      "payable": false,
      "stateMutability": "nonpayable",
      "type": "function"
    },
    {
      "constant": false,
      "inputs": [
        {
          "name": "_to",
          "type": "address"
        },
        {
          "name": "_tokenId",
          "type": "uint256"
        }
      ],
      "name": "transfer",
      "outputs": [],
      "payable": false,
      "stateMutability": "nonpayable",
      "type": "function"
    },
    {
      "constant": true,
      "inputs": [
        {
          "name": "tokenId",
          "type": "uint256"
        }
      ],
      "name": "getApproved",
      "outputs": [
        {
          "name": "operator",
          "type": "address"
        }
      ],
      "payable": false,
      "stateMutability": "view",
      "type": "function"
    },
    {
      "constant": false,
      "inputs": [
        {
          "name": "operator",
          "type": "address"
        },
        {
          "name": "_approved",
          "type": "bool"
        }
      ],
      "name": "setApprovalForAll",
      "outputs": [],
      "payable": false,
      "stateMutability": "nonpayable",
      "type": "function"
    },
    {
      "constant": true,
      "inputs": [
        {
          "name": "owner",
          "type": "address"
        },
        {
          "name": "operator",
          "type": "address"
        }
      ],
      "name": "isApprovedForAll",
      "outputs": [
        {
          "name": "",
          "type": "bool"
        }
      ],
      "payable": false,
      "stateMutability": "view",
      "type": "function"
    },
    {
      "constant": false,
      "inputs": [
        {
          "name": "from",
          "type": "address"
        },
        {
          "name": "to",
          "type": "address"
        },
        {
          "name": "tokenId",
          "type": "uint256"
        }
      ],
      "name": "safeTransferFrom",
      "outputs": [],
      "payable": false,
      "stateMutability": "nonpayable",
      "type": "function"
    },
    {
      "constant": false,
      "inputs": [
        {
          "name": "from",
          "type": "address"
        },
        {
          "name": "to",
          "type": "address"
        },
        {
          "name": "tokenId",
          "type": "uint256"
        },
        {
          "name": "data",
          "type": "bytes"
        }
      ],
      "name": "safeTransferFrom",
      "outputs": [],
      "payable": false,
      "stateMutability": "nonpayable",
      "type": "function"
    },
    {
      "constant": true,
      "inputs": [
        {
          "name": "tokenId",
          "type": "uint256"
        },
        {
          "name": "account",
          "type": "address"
        }
      ],
      "name": "isOwnerOf",
      "outputs": [
        {
          "name": "",
          "type": "bool"
        }
      ],
      "payable": false,
      "stateMutability": "view",
      "type": "function"
    }
  ],
  "bytecode": "0x60806040523480156200001157600080fd5b5060405162004ac338038062004ac3833981018060405260408110156200003757600080fd5b8101908080516401000000008111156200005057600080fd5b828101905060208101848111156200006757600080fd5b81518560018202830111640100000000821117156200008557600080fd5b50509291906020018051640100000000811115620000a257600080fd5b82810190506020810184811115620000b957600080fd5b8151856001820283011164010000000082111715620000d757600080fd5b50509291905050508160009080519060200190620000f792919062000119565b5080600190805190602001906200011092919062000119565b505050620001c8565b828054600181600116156101000203166002900490600052602060002090601f016020900481019282601f106200015c57805160ff19168380011785556200018d565b828001600101855582156200018d579182015b828111156200018c5782518255916020019190600101906200016f565b5b5090506200019c9190620001a0565b5090565b620001c591905b80821115620001c1576000816000905550600101620001a7565b5090565b90565b6148eb80620001d86000396000f3fe60806040526004361061015d576000357c01000000000000000000000000000000000000000000000000000000009004806395d89b41116100d3578063d2c088021161008c578063d2c0880214610d35578063e1925e1514610da1578063e49a3d3b14610f51578063e57a104a1461127f578063e985e9c51461155e578063fc7a900b146115e75761015d565b806395d89b41146107895780639ac016e214610819578063a22cb4651461088c578063a9059cbb146108e9578063b88d4fde14610944578063ce971a1014610a565761015d565b80632986c0e5116101255780632986c0e5146104875780633e54fca1146104b257806342842e0e146105f65780636352211e1461067157806364262dcc146106ec57806370a08231146107245761015d565b8063063fc9661461016257806306fdde03146102a6578063081812fc14610336578063095ea7b3146103b157806323b872dd1461040c575b600080fd5b34801561016e57600080fd5b50610177611615565b6040518080602001806020018060200180602001858103855289818151815260200191508051906020019060200280838360005b838110156101c65780820151818401526020810190506101ab565b50505050905001858103845288818151815260200191508051906020019060200280838360005b838110156102085780820151818401526020810190506101ed565b50505050905001858103835287818151815260200191508051906020019060200280838360005b8381101561024a57808201518184015260208101905061022f565b50505050905001858103825286818151815260200191508051906020019060200280838360005b8381101561028c578082015181840152602081019050610271565b505050509050019850505050505050505060405180910390f35b3480156102b257600080fd5b506102bb611d2b565b6040518080602001828103825283818151815260200191508051906020019080838360005b838110156102fb5780820151818401526020810190506102e0565b50505050905090810190601f1680156103285780820380516001836020036101000a031916815260200191505b509250505060405180910390f35b34801561034257600080fd5b5061036f6004803603602081101561035957600080fd5b8101908080359060200190929190505050611dcd565b604051808273ffffffffffffffffffffffffffffffffffffffff1673ffffffffffffffffffffffffffffffffffffffff16815260200191505060405180910390f35b3480156103bd57600080fd5b5061040a600480360360408110156103d457600080fd5b81019080803573ffffffffffffffffffffffffffffffffffffffff16906020019092919080359060200190929190505050611e1c565b005b34801561041857600080fd5b506104856004803603606081101561042f57600080fd5b81019080803573ffffffffffffffffffffffffffffffffffffffff169060200190929190803573ffffffffffffffffffffffffffffffffffffffff16906020019092919080359060200190929190505050611ee0565b005b34801561049357600080fd5b5061049c611f50565b6040518082815260200191505060405180910390f35b3480156104be57600080fd5b506104c7611f56565b6040518080602001806020018060200180602001858103855289818151815260200191508051906020019060200280838360005b838110156105165780820151818401526020810190506104fb565b50505050905001858103845288818151815260200191508051906020019060200280838360005b8381101561055857808201518184015260208101905061053d565b50505050905001858103835287818151815260200191508051906020019060200280838360005b8381101561059a57808201518184015260208101905061057f565b50505050905001858103825286818151815260200191508051906020019060200280838360005b838110156105dc5780820151818401526020810190506105c1565b505050509050019850505050505050505060405180910390f35b34801561060257600080fd5b5061066f6004803603606081101561061957600080fd5b81019080803573ffffffffffffffffffffffffffffffffffffffff169060200190929190803573ffffffffffffffffffffffffffffffffffffffff1690602001909291908035906020019092919050505061255e565b005b34801561067d57600080fd5b506106aa6004803603602081101561069457600080fd5b8101908080359060200190929190505050612563565b604051808273ffffffffffffffffffffffffffffffffffffffff1673ffffffffffffffffffffffffffffffffffffffff16815260200191505060405180910390f35b6107226004803603604081101561070257600080fd5b8101908080359060200190929190803590602001909291905050506125a0565b005b34801561073057600080fd5b506107736004803603602081101561074757600080fd5b81019080803573ffffffffffffffffffffffffffffffffffffffff169060200190929190505050612692565b6040518082815260200191505060405180910390f35b34801561079557600080fd5b5061079e6126db565b6040518080602001828103825283818151815260200191508051906020019080838360005b838110156107de5780820151818401526020810190506107c3565b50505050905090810190601f16801561080b5780820380516001836020036101000a031916815260200191505b509250505060405180910390f35b34801561082557600080fd5b506108726004803603604081101561083c57600080fd5b8101908080359060200190929190803573ffffffffffffffffffffffffffffffffffffffff16906020019092919050505061277d565b604051808215151515815260200191505060405180910390f35b34801561089857600080fd5b506108e7600480360360408110156108af57600080fd5b81019080803573ffffffffffffffffffffffffffffffffffffffff169060200190929190803515159060200190929190505050612828565b005b3480156108f557600080fd5b506109426004803603604081101561090c57600080fd5b81019080803573ffffffffffffffffffffffffffffffffffffffff16906020019092919080359060200190929190505050612962565b005b34801561095057600080fd5b50610a546004803603608081101561096757600080fd5b81019080803573ffffffffffffffffffffffffffffffffffffffff169060200190929190803573ffffffffffffffffffffffffffffffffffffffff16906020019092919080359060200190929190803590602001906401000000008111156109ce57600080fd5b8201836020820111156109e057600080fd5b80359060200191846001830284011164010000000083111715610a0257600080fd5b91908080601f016020809104026020016040519081016040528093929190818152602001838380828437600081840152601f19601f8201169050808301925050505050505091929192905050506129be565b005b348015610a6257600080fd5b50610a8f60048036036020811015610a7957600080fd5b81019080803590602001909291905050506129c4565b604051808b815260200180602001806020018a815260200189815260200180602001806020018873ffffffffffffffffffffffffffffffffffffffff1673ffffffffffffffffffffffffffffffffffffffff1681526020018773ffffffffffffffffffffffffffffffffffffffff1673ffffffffffffffffffffffffffffffffffffffff1681526020018060200186810386528f818151815260200191508051906020019080838360005b83811015610b55578082015181840152602081019050610b3a565b50505050905090810190601f168015610b825780820380516001836020036101000a031916815260200191505b5086810385528e818151815260200191508051906020019080838360005b83811015610bbb578082015181840152602081019050610ba0565b50505050905090810190601f168015610be85780820380516001836020036101000a031916815260200191505b5086810384528b818151815260200191508051906020019080838360005b83811015610c21578082015181840152602081019050610c06565b50505050905090810190601f168015610c4e5780820380516001836020036101000a031916815260200191505b5086810383528a818151815260200191508051906020019080838360005b83811015610c87578082015181840152602081019050610c6c565b50505050905090810190601f168015610cb45780820380516001836020036101000a031916815260200191505b50868103825287818151815260200191508051906020019080838360005b83811015610ced578082015181840152602081019050610cd2565b50505050905090810190601f168015610d1a5780820380516001836020036101000a031916815260200191505b509f5050505050505050505050505050505060405180910390f35b348015610d4157600080fd5b50610d4a612e61565b6040518080602001828103825283818151815260200191508051906020019060200280838360005b83811015610d8d578082015181840152602081019050610d72565b505050509050019250505060405180910390f35b348015610dad57600080fd5b50610dda60048036036020811015610dc457600080fd5b8101908080359060200190929190505050612fdf565b60405180806020018060200180602001806020018060200186810386528b818151815260200191508051906020019060200280838360005b83811015610e2d578082015181840152602081019050610e12565b5050505090500186810385528a818151815260200191508051906020019060200280838360005b83811015610e6f578082015181840152602081019050610e54565b50505050905001868103845289818151815260200191508051906020019060200280838360005b83811015610eb1578082015181840152602081019050610e96565b50505050905001868103835288818151815260200191508051906020019060200280838360005b83811015610ef3578082015181840152602081019050610ed8565b50505050905001868103825287818151815260200191508051906020019060200280838360005b83811015610f35578082015181840152602081019050610f1a565b505050509050019a505050505050505050505060405180910390f35b348015610f5d57600080fd5b5061127d600480360360c0811015610f7457600080fd5b8101908080359060200190640100000000811115610f9157600080fd5b820183602082011115610fa357600080fd5b80359060200191846001830284011164010000000083111715610fc557600080fd5b91908080601f016020809104026020016040519081016040528093929190818152602001838380828437600081840152601f19601f8201169050808301925050505050505091929192908035906020019064010000000081111561102857600080fd5b82018360208201111561103a57600080fd5b8035906020019184600183028401116401000000008311171561105c57600080fd5b91908080601f016020809104026020016040519081016040528093929190818152602001838380828437600081840152601f19601f820116905080830192505050505050509192919290803590602001906401000000008111156110bf57600080fd5b8201836020820111156110d157600080fd5b803590602001918460018302840111640100000000831117156110f357600080fd5b91908080601f016020809104026020016040519081016040528093929190818152602001838380828437600081840152601f19601f8201169050808301925050505050505091929192908035906020019064010000000081111561115657600080fd5b82018360208201111561116857600080fd5b8035906020019184600183028401116401000000008311171561118a57600080fd5b91908080601f016020809104026020016040519081016040528093929190818152602001838380828437600081840152601f19601f82011690508083019250505050505050919291929080359060200190929190803590602001906401000000008111156111f757600080fd5b82018360208201111561120957600080fd5b8035906020019184600183028401116401000000008311171561122b57600080fd5b91908080601f016020809104026020016040519081016040528093929190818152602001838380828437600081840152601f19601f820116905080830192505050505050509192919290505050613377565b005b34801561128b57600080fd5b506112b8600480360360208110156112a257600080fd5b81019080803590602001909291905050506139e4565b604051808b815260200180602001806020018a815260200180602001806020018973ffffffffffffffffffffffffffffffffffffffff1673ffffffffffffffffffffffffffffffffffffffff1681526020018873ffffffffffffffffffffffffffffffffffffffff1673ffffffffffffffffffffffffffffffffffffffff1681526020018781526020018060200186810386528f818151815260200191508051906020019080838360005b8381101561137e578082015181840152602081019050611363565b50505050905090810190601f1680156113ab5780820380516001836020036101000a031916815260200191505b5086810385528e818151815260200191508051906020019080838360005b838110156113e45780820151818401526020810190506113c9565b50505050905090810190601f1680156114115780820380516001836020036101000a031916815260200191505b5086810384528c818151815260200191508051906020019080838360005b8381101561144a57808201518184015260208101905061142f565b50505050905090810190601f1680156114775780820380516001836020036101000a031916815260200191505b5086810383528b818151815260200191508051906020019080838360005b838110156114b0578082015181840152602081019050611495565b50505050905090810190601f1680156114dd5780820380516001836020036101000a031916815260200191505b50868103825287818151815260200191508051906020019080838360005b838110156115165780820151818401526020810190506114fb565b50505050905090810190601f1680156115435780820380516001836020036101000a031916815260200191505b509f5050505050505050505050505050505060405180910390f35b34801561156a57600080fd5b506115cd6004803603604081101561158157600080fd5b81019080803573ffffffffffffffffffffffffffffffffffffffff169060200190929190803573ffffffffffffffffffffffffffffffffffffffff169060200190929190505050613d7d565b604051808215151515815260200191505060405180910390f35b611613600480360360208110156115fd57600080fd5b8101908080359060200190929190505050613e11565b005b606080606080600060035414156117035760006040519080825280602002602001820160405280156116565781602001602082028038833980820191505090505b5060006040519080825280602002602001820160405280156116875781602001602082028038833980820191505090505b5060006040519080825280602002602001820160405280156116b85781602001602082028038833980820191505090505b5060006040519080825280602002602001820160405280156116e95781602001602082028038833980820191505090505b508393508292508191508090509350935093509350611d25565b6000600280549050905060606003546040519080825280602002602001820160405280156117405781602001602082028038833980820191505090505b50905060606003546040519080825280602002602001820160405280156117765781602001602082028038833980820191505090505b50905060606003546040519080825280602002602001820160405280156117ac5781602001602082028038833980820191505090505b50905060606003546040519080825280602002602001820160405280156117e25781602001602082028038833980820191505090505b509050600080905060008090505b86811015611d1157611800614739565b6002828154811061180d57fe5b90600052602060002090600a02016040518061014001604052908160008201548152602001600182018054600181600116156101000203166002900480601f0160208091040260200160405190810160405280929190818152602001828054600181600116156101000203166002900480156118ca5780601f1061189f576101008083540402835291602001916118ca565b820191906000526020600020905b8154815290600101906020018083116118ad57829003601f168201915b50505050508152602001600282018054600181600116156101000203166002900480601f01602080910402602001604051908101604052809291908181526020018280546001816001161561010002031660029004801561196c5780601f106119415761010080835404028352916020019161196c565b820191906000526020600020905b81548152906001019060200180831161194f57829003601f168201915b5050505050815260200160038201548152602001600482018054600181600116156101000203166002900480601f016020809104026020016040519081016040528092919081815260200182805460018160011615610100020316600290048015611a185780601f106119ed57610100808354040283529160200191611a18565b820191906000526020600020905b8154815290600101906020018083116119fb57829003601f168201915b50505050508152602001600582018054600181600116156101000203166002900480601f016020809104026020016040519081016040528092919081815260200182805460018160011615610100020316600290048015611aba5780601f10611a8f57610100808354040283529160200191611aba565b820191906000526020600020905b815481529060010190602001808311611a9d57829003601f168201915b505050505081526020016006820160009054906101000a900473ffffffffffffffffffffffffffffffffffffffff1673ffffffffffffffffffffffffffffffffffffffff1673ffffffffffffffffffffffffffffffffffffffff1681526020016007820160009054906101000a900473ffffffffffffffffffffffffffffffffffffffff1673ffffffffffffffffffffffffffffffffffffffff1673ffffffffffffffffffffffffffffffffffffffff16815260200160088201548152602001600982018054600181600116156101000203166002900480601f016020809104026020016040519081016040528092919081815260200182805460018160011615610100020316600290048015611c125780601f10611be757610100808354040283529160200191611c12565b820191906000526020600020905b815481529060010190602001808311611bf557829003601f168201915b505050505081525050905060018161010001511415611d05578060000151878481518110611c3c57fe5b6020026020010181815250508060c00151868481518110611c5957fe5b602002602001019073ffffffffffffffffffffffffffffffffffffffff16908173ffffffffffffffffffffffffffffffffffffffff16815250508060e00151858481518110611ca457fe5b602002602001019073ffffffffffffffffffffffffffffffffffffffff16908173ffffffffffffffffffffffffffffffffffffffff1681525050806101000151848481518110611cf057fe5b60200260200101818152505082806001019350505b508060010190506117f0565b508484848499509950995099505050505050505b90919293565b606060008054600181600116156101000203166002900480601f016020809104026020016040519081016040528092919081815260200182805460018160011615610100020316600290048015611dc35780601f10611d9857610100808354040283529160200191611dc3565b820191906000526020600020905b815481529060010190602001808311611da657829003601f168201915b5050505050905090565b6000611dd8826143bc565b611de157600080fd5b6006600083815260200190815260200160002060009054906101000a900473ffffffffffffffffffffffffffffffffffffffff169050919050565b611e26813361277d565b611e2f57600080fd5b816006600083815260200190815260200160002060006101000a81548173ffffffffffffffffffffffffffffffffffffffff021916908373ffffffffffffffffffffffffffffffffffffffff160217905550808273ffffffffffffffffffffffffffffffffffffffff163373ffffffffffffffffffffffffffffffffffffffff167f8c5be1e5ebec7d5bd14f71427d1e84f3dd0314c0f7b2291e5b200ac8c7c3b92560405160405180910390a45050565b600073ffffffffffffffffffffffffffffffffffffffff168273ffffffffffffffffffffffffffffffffffffffff161415611f1a57600080fd5b611f24818461277d565b611f2d57600080fd5b611f37828261442e565b611f4057600080fd5b611f4b83838361449a565b505050565b60095481565b60608060608060006002805490509050606081604051908082528060200260200182016040528015611f975781602001602082028038833980820191505090505b509050606082604051908082528060200260200182016040528015611fcb5781602001602082028038833980820191505090505b509050606083604051908082528060200260200182016040528015611fff5781602001602082028038833980820191505090505b5090506060846040519080825280602002602001820160405280156120335781602001602082028038833980820191505090505b50905060008090505b858110156125465761204c614739565b6002828154811061205957fe5b90600052602060002090600a02016040518061014001604052908160008201548152602001600182018054600181600116156101000203166002900480601f0160208091040260200160405190810160405280929190818152602001828054600181600116156101000203166002900480156121165780601f106120eb57610100808354040283529160200191612116565b820191906000526020600020905b8154815290600101906020018083116120f957829003601f168201915b50505050508152602001600282018054600181600116156101000203166002900480601f0160208091040260200160405190810160405280929190818152602001828054600181600116156101000203166002900480156121b85780601f1061218d576101008083540402835291602001916121b8565b820191906000526020600020905b81548152906001019060200180831161219b57829003601f168201915b5050505050815260200160038201548152602001600482018054600181600116156101000203166002900480601f0160208091040260200160405190810160405280929190818152602001828054600181600116156101000203166002900480156122645780601f1061223957610100808354040283529160200191612264565b820191906000526020600020905b81548152906001019060200180831161224757829003601f168201915b50505050508152602001600582018054600181600116156101000203166002900480601f0160208091040260200160405190810160405280929190818152602001828054600181600116156101000203166002900480156123065780601f106122db57610100808354040283529160200191612306565b820191906000526020600020905b8154815290600101906020018083116122e957829003601f168201915b505050505081526020016006820160009054906101000a900473ffffffffffffffffffffffffffffffffffffffff1673ffffffffffffffffffffffffffffffffffffffff1673ffffffffffffffffffffffffffffffffffffffff1681526020016007820160009054906101000a900473ffffffffffffffffffffffffffffffffffffffff1673ffffffffffffffffffffffffffffffffffffffff1673ffffffffffffffffffffffffffffffffffffffff16815260200160088201548152602001600982018054600181600116156101000203166002900480601f01602080910402602001604051908101604052809291908181526020018280546001816001161561010002031660029004801561245e5780601f106124335761010080835404028352916020019161245e565b820191906000526020600020905b81548152906001019060200180831161244157829003601f168201915b5050505050815250509050806000015186838151811061247a57fe5b6020026020010181815250508060c0015185838151811061249757fe5b602002602001019073ffffffffffffffffffffffffffffffffffffffff16908173ffffffffffffffffffffffffffffffffffffffff16815250508060e001518483815181106124e257fe5b602002602001019073ffffffffffffffffffffffffffffffffffffffff16908173ffffffffffffffffffffffffffffffffffffffff168152505080610100015183838151811061252e57fe5b6020026020010181815250505080600101905061203c565b50838383839850985098509850505050505090919293565b505050565b60006004600083815260200190815260200160002060009054906101000a900473ffffffffffffffffffffffffffffffffffffffff169050919050565b600073ffffffffffffffffffffffffffffffffffffffff163373ffffffffffffffffffffffffffffffffffffffff1614156125da57600080fd5b6125e4823361277d565b6125ed57600080fd5b6001600283815481106125fc57fe5b90600052602060002090600a020160080181905550806002838154811061261f57fe5b90600052602060002090600a0201600301819055506003600081548092919060010191905055507f8916ae292317d6f324a5ed02fea84bf6881d4065b6d575a8980442469b882b7a8260018360405180848152602001838152602001828152602001935050505060405180910390a15050565b6000600560008373ffffffffffffffffffffffffffffffffffffffff1673ffffffffffffffffffffffffffffffffffffffff168152602001908152602001600020549050919050565b606060018054600181600116156101000203166002900480601f0160208091040260200160405190810160405280929190818152602001828054600181600116156101000203166002900480156127735780601f1061274857610100808354040283529160200191612773565b820191906000526020600020905b81548152906001019060200180831161275657829003601f168201915b5050505050905090565b6000806004600085815260200190815260200160002060009054906101000a900473ffffffffffffffffffffffffffffffffffffffff169050600073ffffffffffffffffffffffffffffffffffffffff168173ffffffffffffffffffffffffffffffffffffffff1614156127f057600080fd5b8273ffffffffffffffffffffffffffffffffffffffff168173ffffffffffffffffffffffffffffffffffffffff161491505092915050565b3373ffffffffffffffffffffffffffffffffffffffff168273ffffffffffffffffffffffffffffffffffffffff16141561286157600080fd5b80600760003373ffffffffffffffffffffffffffffffffffffffff1673ffffffffffffffffffffffffffffffffffffffff16815260200190815260200160002060008473ffffffffffffffffffffffffffffffffffffffff1673ffffffffffffffffffffffffffffffffffffffff16815260200190815260200160002060006101000a81548160ff0219169083151502179055508173ffffffffffffffffffffffffffffffffffffffff163373ffffffffffffffffffffffffffffffffffffffff167f17307eab39ab6107e8899845ad3d59bd9653f200f220920489ca2b5937696c3183604051808215151515815260200191505060405180910390a35050565b600073ffffffffffffffffffffffffffffffffffffffff168273ffffffffffffffffffffffffffffffffffffffff16141561299c57600080fd5b6129a6813361277d565b6129af57600080fd5b6129ba33838361449a565b5050565b50505050565b600060608060008060608060008060606129dc614739565b60028c815481106129e957fe5b90600052602060002090600a02016040518061014001604052908160008201548152602001600182018054600181600116156101000203166002900480601f016020809104026020016040519081016040528092919081815260200182805460018160011615610100020316600290048015612aa65780601f10612a7b57610100808354040283529160200191612aa6565b820191906000526020600020905b815481529060010190602001808311612a8957829003601f168201915b50505050508152602001600282018054600181600116156101000203166002900480601f016020809104026020016040519081016040528092919081815260200182805460018160011615610100020316600290048015612b485780601f10612b1d57610100808354040283529160200191612b48565b820191906000526020600020905b815481529060010190602001808311612b2b57829003601f168201915b5050505050815260200160038201548152602001600482018054600181600116156101000203166002900480601f016020809104026020016040519081016040528092919081815260200182805460018160011615610100020316600290048015612bf45780601f10612bc957610100808354040283529160200191612bf4565b820191906000526020600020905b815481529060010190602001808311612bd757829003601f168201915b50505050508152602001600582018054600181600116156101000203166002900480601f016020809104026020016040519081016040528092919081815260200182805460018160011615610100020316600290048015612c965780601f10612c6b57610100808354040283529160200191612c96565b820191906000526020600020905b815481529060010190602001808311612c7957829003601f168201915b505050505081526020016006820160009054906101000a900473ffffffffffffffffffffffffffffffffffffffff1673ffffffffffffffffffffffffffffffffffffffff1673ffffffffffffffffffffffffffffffffffffffff1681526020016007820160009054906101000a900473ffffffffffffffffffffffffffffffffffffffff1673ffffffffffffffffffffffffffffffffffffffff1673ffffffffffffffffffffffffffffffffffffffff16815260200160088201548152602001600982018054600181600116156101000203166002900480601f016020809104026020016040519081016040528092919081815260200182805460018160011615610100020316600290048015612dee5780601f10612dc357610100808354040283529160200191612dee565b820191906000526020600020905b815481529060010190602001808311612dd157829003601f168201915b5050505050815250509050806000015181602001518260400151836060015184610100015185608001518660a001518760c001518860e001518961012001518898508797508494508393508292508090509a509a509a509a509a509a509a509a509a509a50509193959799509193959799565b6060600073ffffffffffffffffffffffffffffffffffffffff163373ffffffffffffffffffffffffffffffffffffffff161415612e9d57600080fd5b6000612ea833612692565b90506000811415612eec576000604051908082528060200260200182016040528015612ee35781602001602082028038833980820191505090505b50915050612fdc565b606081604051908082528060200260200182016040528015612f1d5781602001602082028038833980820191505090505b50905060008090506000600280549050905060008090505b81811015612fd3573373ffffffffffffffffffffffffffffffffffffffff166004600083815260200190815260200160002060009054906101000a900473ffffffffffffffffffffffffffffffffffffffff1673ffffffffffffffffffffffffffffffffffffffff161415612fc65780848481518110612fb157fe5b60200260200101818152505082806001019350505b8080600101915050612f35565b50829450505050505b90565b60608060608060608060086000888152602001908152602001600020805480602002602001604051908101604052809291908181526020016000905b8282101561312157838290600052602060002090600602016040518060c001604052908160008201548152602001600182015481526020016002820160009054906101000a900473ffffffffffffffffffffffffffffffffffffffff1673ffffffffffffffffffffffffffffffffffffffff1673ffffffffffffffffffffffffffffffffffffffff1681526020016003820160009054906101000a900473ffffffffffffffffffffffffffffffffffffffff1673ffffffffffffffffffffffffffffffffffffffff1673ffffffffffffffffffffffffffffffffffffffff168152602001600482015481526020016005820154815250508152602001906001019061301b565b50505050905060008151905060608160405190808252806020026020018201604052801561315e5781602001602082028038833980820191505090505b5090506060826040519080825280602002602001820160405280156131925781602001602082028038833980820191505090505b5090506060836040519080825280602002602001820160405280156131c65781602001602082028038833980820191505090505b5090506060846040519080825280602002602001820160405280156131fa5781602001602082028038833980820191505090505b50905060608560405190808252806020026020018201604052801561322e5781602001602082028038833980820191505090505b50905060008090505b8751811015613357576132486147b8565b88828151811061325457fe5b60200260200101519050806000015187838151811061326f57fe5b602002602001018181525050806020015186838151811061328c57fe5b60200260200101818152505080604001518583815181106132a957fe5b602002602001019073ffffffffffffffffffffffffffffffffffffffff16908173ffffffffffffffffffffffffffffffffffffffff168152505080606001518483815181106132f457fe5b602002602001019073ffffffffffffffffffffffffffffffffffffffff16908173ffffffffffffffffffffffffffffffffffffffff1681525050806080015183838151811061333f57fe5b60200260200101818152505050806001019050613237565b5084848484849b509b509b509b509b505050505050505091939590929450565b60008651116133ee576040517f08c379a00000000000000000000000000000000000000000000000000000000081526004018080602001828103825260198152602001807f546865207469746c652063616e6e6f7420626520656d7074790000000000000081525060200191505060405180910390fd5b6000845111613465576040517f08c379a00000000000000000000000000000000000000000000000000000000081526004018080602001828103825260188152602001807f54686520446174652063616e6e6f7420626520656d707479000000000000000081525060200191505060405180910390fd5b60008551116134dc576040517f08c379a000000000000000000000000000000000000000000000000000000000815260040180806020018281038252601f8152602001807f546865206465736372697074696f6e2063616e6e6f7420626520656d7074790081525060200191505060405180910390fd5b60008211613552576040517f08c379a00000000000000000000000000000000000000000000000000000000081526004018080602001828103825260198152602001807f5468652070726963652063616e6e6f7420626520656d7074790000000000000081525060200191505060405180910390fd5b60008151116135c9576040517f08c379a00000000000000000000000000000000000000000000000000000000081526004018080602001828103825260198152602001807f54686520696d6167652063616e6e6f7420626520656d7074790000000000000081525060200191505060405180910390fd5b6135d1614739565b60405180610140016040528060095481526020018881526020018781526020018481526020018681526020018581526020013373ffffffffffffffffffffffffffffffffffffffff1681526020013373ffffffffffffffffffffffffffffffffffffffff16815260200160018152602001838152509050600060016002839080600181540180825580915050906001820390600052602060002090600a0201600090919290919091506000820151816000015560208201518160010190805190602001906136a092919061481a565b5060408201518160020190805190602001906136bd92919061481a565b506060820151816003015560808201518160040190805190602001906136e492919061481a565b5060a082015181600501908051906020019061370192919061481a565b5060c08201518160060160006101000a81548173ffffffffffffffffffffffffffffffffffffffff021916908373ffffffffffffffffffffffffffffffffffffffff16021790555060e08201518160070160006101000a81548173ffffffffffffffffffffffffffffffffffffffff021916908373ffffffffffffffffffffffffffffffffffffffff16021790555061010082015181600801556101208201518160090190805190602001906137b892919061481a565b5050500390506137c833826145eb565b7ff376cc32e072d5cce6d2829c66b30d30fa0bd8fccda5e8fc27dab2543050571581898888883333604051808881526020018060200180602001806020018781526020018673ffffffffffffffffffffffffffffffffffffffff1673ffffffffffffffffffffffffffffffffffffffff1681526020018573ffffffffffffffffffffffffffffffffffffffff1673ffffffffffffffffffffffffffffffffffffffff16815260200184810384528a818151815260200191508051906020019080838360005b838110156138a857808201518184015260208101905061388d565b50505050905090810190601f1680156138d55780820380516001836020036101000a031916815260200191505b50848103835289818151815260200191508051906020019080838360005b8381101561390e5780820151818401526020810190506138f3565b50505050905090810190601f16801561393b5780820380516001836020036101000a031916815260200191505b50848103825288818151815260200191508051906020019080838360005b83811015613974578082015181840152602081019050613959565b50505050905090810190601f1680156139a15780820380516001836020036101000a031916815260200191505b509a505050505050505050505060405180910390a16009600081548092919060010191905055506003600081548092919060010191905055505050505050505050565b600281815481106139f157fe5b90600052602060002090600a0201600091509050806000015490806001018054600181600116156101000203166002900480601f016020809104026020016040519081016040528092919081815260200182805460018160011615610100020316600290048015613aa35780601f10613a7857610100808354040283529160200191613aa3565b820191906000526020600020905b815481529060010190602001808311613a8657829003601f168201915b505050505090806002018054600181600116156101000203166002900480601f016020809104026020016040519081016040528092919081815260200182805460018160011615610100020316600290048015613b415780601f10613b1657610100808354040283529160200191613b41565b820191906000526020600020905b815481529060010190602001808311613b2457829003601f168201915b505050505090806003015490806004018054600181600116156101000203166002900480601f016020809104026020016040519081016040528092919081815260200182805460018160011615610100020316600290048015613be55780601f10613bba57610100808354040283529160200191613be5565b820191906000526020600020905b815481529060010190602001808311613bc857829003601f168201915b505050505090806005018054600181600116156101000203166002900480601f016020809104026020016040519081016040528092919081815260200182805460018160011615610100020316600290048015613c835780601f10613c5857610100808354040283529160200191613c83565b820191906000526020600020905b815481529060010190602001808311613c6657829003601f168201915b5050505050908060060160009054906101000a900473ffffffffffffffffffffffffffffffffffffffff16908060070160009054906101000a900473ffffffffffffffffffffffffffffffffffffffff1690806008015490806009018054600181600116156101000203166002900480601f016020809104026020016040519081016040528092919081815260200182805460018160011615610100020316600290048015613d735780601f10613d4857610100808354040283529160200191613d73565b820191906000526020600020905b815481529060010190602001808311613d5657829003601f168201915b505050505090508a565b6000600760008473ffffffffffffffffffffffffffffffffffffffff1673ffffffffffffffffffffffffffffffffffffffff16815260200190815260200160002060008373ffffffffffffffffffffffffffffffffffffffff1673ffffffffffffffffffffffffffffffffffffffff16815260200190815260200160002060009054906101000a900460ff16905092915050565b600060606000806060600080613e26886129c4565b5098509850985050975097505096509650600073ffffffffffffffffffffffffffffffffffffffff168173ffffffffffffffffffffffffffffffffffffffff161415613e7157600080fd5b600073ffffffffffffffffffffffffffffffffffffffff163373ffffffffffffffffffffffffffffffffffffffff161415613eab57600080fd5b8073ffffffffffffffffffffffffffffffffffffffff163373ffffffffffffffffffffffffffffffffffffffff161415613ee457600080fd5b84341015613ef157600080fd5b600073ffffffffffffffffffffffffffffffffffffffff1660028981548110613f1657fe5b90600052602060002090600a020160070160009054906101000a900473ffffffffffffffffffffffffffffffffffffffff1673ffffffffffffffffffffffffffffffffffffffff161415613f6957600080fd5b613f7481338a61449a565b84341115613fc6573373ffffffffffffffffffffffffffffffffffffffff166108fc8634039081150290604051600060405180830381858888f19350505050158015613fc4573d6000803e3d6000fd5b505b8073ffffffffffffffffffffffffffffffffffffffff166108fc869081150290604051600060405180830381858888f1935050505015801561400c573d6000803e3d6000fd5b50336002898154811061401b57fe5b90600052602060002090600a020160070160006101000a81548173ffffffffffffffffffffffffffffffffffffffff021916908373ffffffffffffffffffffffffffffffffffffffff16021790555060006002898154811061407957fe5b90600052602060002090600a0201600801819055506140966147b8565b6040518060c001604052808981526020018781526020018373ffffffffffffffffffffffffffffffffffffffff1681526020013373ffffffffffffffffffffffffffffffffffffffff168152602001428152602001868152509050600860008981526020019081526020016000208190806001815401808255809150509060018203906000526020600020906006020160009091929091909150600082015181600001556020820151816001015560408201518160020160006101000a81548173ffffffffffffffffffffffffffffffffffffffff021916908373ffffffffffffffffffffffffffffffffffffffff16021790555060608201518160030160006101000a81548173ffffffffffffffffffffffffffffffffffffffff021916908373ffffffffffffffffffffffffffffffffffffffff1602179055506080820151816004015560a08201518160050155505050600360008154809291906001900391905055507f33157a2d6e087f53ff6fc0edba4550aa6df53452ece435476cd3ab334ad50c34898886898787336040518088815260200180602001806020018781526020018673ffffffffffffffffffffffffffffffffffffffff1673ffffffffffffffffffffffffffffffffffffffff1681526020018573ffffffffffffffffffffffffffffffffffffffff1673ffffffffffffffffffffffffffffffffffffffff1681526020018473ffffffffffffffffffffffffffffffffffffffff1673ffffffffffffffffffffffffffffffffffffffff168152602001838103835289818151815260200191508051906020019080838360005b8381101561430a5780820151818401526020810190506142ef565b50505050905090810190601f1680156143375780820380516001836020036101000a031916815260200191505b50838103825288818151815260200191508051906020019080838360005b83811015614370578082015181840152602081019050614355565b50505050905090810190601f16801561439d5780820380516001836020036101000a031916815260200191505b50995050505050505050505060405180910390a1505050505050505050565b6000806004600084815260200190815260200160002060009054906101000a900473ffffffffffffffffffffffffffffffffffffffff169050600073ffffffffffffffffffffffffffffffffffffffff168173ffffffffffffffffffffffffffffffffffffffff161415915050919050565b60008273ffffffffffffffffffffffffffffffffffffffff166006600084815260200190815260200160002060009054906101000a900473ffffffffffffffffffffffffffffffffffffffff1673ffffffffffffffffffffffffffffffffffffffff1614905092915050565b600560008373ffffffffffffffffffffffffffffffffffffffff1673ffffffffffffffffffffffffffffffffffffffff16815260200190815260200160002060008154809291906001019190505550600560008473ffffffffffffffffffffffffffffffffffffffff1673ffffffffffffffffffffffffffffffffffffffff1681526020019081526020016000206000815480929190600190039190505550816004600083815260200190815260200160002060006101000a81548173ffffffffffffffffffffffffffffffffffffffff021916908373ffffffffffffffffffffffffffffffffffffffff160217905550808273ffffffffffffffffffffffffffffffffffffffff168473ffffffffffffffffffffffffffffffffffffffff167fddf252ad1be2c89b69c2b068fc378daa952ba7f163c4a11628f55a4df523b3ef60405160405180910390a4505050565b600073ffffffffffffffffffffffffffffffffffffffff168273ffffffffffffffffffffffffffffffffffffffff16141561462557600080fd5b61462e816143bc565b1561463857600080fd5b816004600083815260200190815260200160002060006101000a81548173ffffffffffffffffffffffffffffffffffffffff021916908373ffffffffffffffffffffffffffffffffffffffff160217905550600560008373ffffffffffffffffffffffffffffffffffffffff1673ffffffffffffffffffffffffffffffffffffffff16815260200190815260200160002060008154809291906001019190505550808273ffffffffffffffffffffffffffffffffffffffff16600073ffffffffffffffffffffffffffffffffffffffff167fddf252ad1be2c89b69c2b068fc378daa952ba7f163c4a11628f55a4df523b3ef60405160405180910390a45050565b604051806101400160405280600081526020016060815260200160608152602001600081526020016060815260200160608152602001600073ffffffffffffffffffffffffffffffffffffffff168152602001600073ffffffffffffffffffffffffffffffffffffffff16815260200160008152602001606081525090565b6040518060c001604052806000815260200160008152602001600073ffffffffffffffffffffffffffffffffffffffff168152602001600073ffffffffffffffffffffffffffffffffffffffff16815260200160008152602001600081525090565b828054600181600116156101000203166002900490600052602060002090601f016020900481019282601f1061485b57805160ff1916838001178555614889565b82800160010185558215614889579182015b8281111561488857825182559160200191906001019061486d565b5b509050614896919061489a565b5090565b6148bc91905b808211156148b85760008160009055506001016148a0565b5090565b9056fea165627a7a7230582025546353993e1f31426687cf067f2bb43002521fee926c79dc44525e84e1ad780029",
  "source": "/**\n * @notice smart contract for The DigitalArt ERC721 Token\n * @ Learn Ethereum\n * @author brian wu\n */ \npragma solidity ^0.5.2;\n\ncontract ERC721 {\n    event Transfer(address indexed from, address indexed to, uint256 indexed tokenId);\n    event Approval(address indexed owner, address indexed approved, uint256 indexed tokenId);\n    event ApprovalForAll(address indexed owner, address indexed operator, bool approved);\n\n    function balanceOf(address owner) public view returns (uint256 balance);\n    function ownerOf(uint256 tokenId) public view returns (address owner);\n\n    function approve(address to, uint256 tokenId) public;\n    function getApproved(uint256 tokenId) public view returns (address operator);\n\n    function setApprovalForAll(address operator, bool _approved) public;\n    function isApprovedForAll(address owner, address operator) public view returns (bool);\n\n    function transferFrom(address from, address to, uint256 tokenId) public;\n    function safeTransferFrom(address from, address to, uint256 tokenId) public;\n\n    function safeTransferFrom(address from, address to, uint256 tokenId, bytes memory data) public;\n}\n\ncontract DigitalArt is ERC721 {\n    string private _name;\n    string private _symbol;\n    Art[] public arts;\n    uint256 private pendingArtCount;\n    mapping (uint256 => address) private _tokenOwner;\n    mapping (address => uint256) private _ownedTokensCount;\n    mapping (uint256 => address) private _tokenApprovals;\n    mapping (address => mapping (address => bool)) private _operatorApprovals;\n    mapping(uint256 => ArtTxn[]) private artTxns;\n    uint256 public index;\n    struct Art {\n        uint256 id;\n        string title;\n        string description;\n        uint256 price;\n        string date;\n        string authorName;\n        address payable author;\n        address payable owner;\n        uint status;\n        string image;\n    }\n    struct ArtTxn {\n       uint256 id; \n       uint256 price;\n       address seller;\n       address buyer;\n       uint txnDate;\n       uint status;\n    }\n  //d\n   event LogArtSold(uint _tokenId, string _title, string _authorName, uint256 _price, address _author,  address _current_owner, address _buyer);\n   event LogArtTokenCreate(uint _tokenId, string _title, string _category, string _authorName, uint256 _price, address _author,  address _current_owner);\n   event LogArtResell(uint _tokenId, uint _status, uint256 _price); \n   constructor (string memory name, string memory symbol) public {\n        _name = name;\n        _symbol = symbol;\n    }\n    function name() external view returns (string memory) {\n        return _name;\n    }\n    function symbol() external view returns (string memory) {\n        return _symbol;\n    }\n    function createTokenAndSellArt(string memory _title, string memory _description, \n                                   string memory _date, string memory _authorName,  uint256 _price, string memory _image) public {\n        require(bytes(_title).length > 0, 'The title cannot be empty');\n        require(bytes(_date).length > 0, 'The Date cannot be empty');\n        require(bytes(_description).length > 0, 'The description cannot be empty');\n        require(_price > 0, 'The price cannot be empty');\n        require(bytes(_image).length > 0, 'The image cannot be empty');\n        Art memory _art = Art({\n            id: index,\n            title: _title,\n            description: _description,\n            price: _price,\n            date: _date,\n            authorName: _authorName,\n            author: msg.sender,\n            owner: msg.sender,\n            status: 1,\n            image: _image\n        });\n        uint256 tokenId = arts.push(_art) - 1;\n        _mint(msg.sender, tokenId); \n        emit LogArtTokenCreate(tokenId,_title,  _date, _authorName,_price, msg.sender, msg.sender);\n        index++;\n        pendingArtCount++;\n    }\n\n    function buyArt(uint256 _tokenId) payable public {\n        (uint256 _id, string memory _title, ,uint256 _price, uint _status,,string memory _authorName, address _author,address payable _current_owner, ) =  findArt(_tokenId);\n        require(_current_owner != address(0));\n        require(msg.sender != address(0));\n        require(msg.sender != _current_owner);\n        require(msg.value >= _price);\n        require(arts[_tokenId].owner != address(0));\n\n        //transfer ownership of art\n        _transfer(_current_owner, msg.sender, _tokenId);\n        //return extra payment\n        if(msg.value > _price) msg.sender.transfer(msg.value - _price);\n        //make a payment\n        _current_owner.transfer(_price);\n        arts[_tokenId].owner = msg.sender;\n        arts[_tokenId].status = 0;\n        ArtTxn memory _artTxn = ArtTxn({\n            id: _id,\n            price: _price,\n            seller: _current_owner,\n            buyer: msg.sender,\n            txnDate: now,\n            status: _status\n        });\n        artTxns[_id].push(_artTxn);\n        pendingArtCount--;\n        \n        emit LogArtSold(_tokenId,_title,  _authorName,_price, _author,_current_owner,msg.sender);\n    }\n    function resellArt(uint256 _tokenId, uint256 _price) payable public {\n          require(msg.sender != address(0));\n          require(isOwnerOf(_tokenId,msg.sender));\n          arts[_tokenId].status = 1;\n          arts[_tokenId].price = _price;\n           pendingArtCount++;\n          emit LogArtResell(_tokenId, 1, _price);   \n    }\n    function findArt(uint256 _tokenId) public view   returns (\n        uint256, string memory, string memory, uint256, uint status,  string memory, string memory, address, address payable, string memory) {\n            Art memory art = arts[_tokenId];\n            return (art.id, art.title, art.description,\n                 art.price,   art.status, art.date, art.authorName, art.author, art.owner,art.image);\n    }\n  \n    function findAllArt() public view  returns (uint256[] memory, address[] memory, address[] memory,  uint[] memory) {\n         uint256 arrLength = arts.length;\n         uint256[] memory ids = new uint256[](arrLength);\n         address[] memory authors = new address[](arrLength); \n         address[] memory owners= new address[](arrLength); \n         uint[] memory status = new uint[](arrLength);\n         for (uint i = 0; i < arrLength; ++i) {\n            Art memory art = arts[i];\n            ids[i] = art.id;\n            authors[i] = art.author;\n            owners[i] = art.owner;\n            status[i] = art.status;\n         }\n        return (ids,authors, owners, status);\n    }\n     function findAllPendingArt() public view  returns (uint256[] memory, address[] memory, address[] memory,  uint[] memory) {\n        if (pendingArtCount == 0) {\n           return (new uint256[](0),new address[](0), new address[](0), new uint[](0));  \n        } else {\n             uint256 arrLength = arts.length;\n             uint256[] memory ids = new uint256[](pendingArtCount);\n             address[] memory authors = new address[](pendingArtCount); \n             address[] memory owners= new address[](pendingArtCount); \n             uint[] memory status = new uint[](pendingArtCount);\n             uint256 idx = 0;\n             for (uint i = 0; i < arrLength; ++i) {\n                Art memory art = arts[i];\n                if(art.status==1) {\n                    ids[idx] = art.id;\n                    authors[idx] = art.author;\n                    owners[idx] = art.owner;\n                    status[idx] = art.status; \n                    idx++;\n                }\n             }\n            return (ids,authors, owners, status);  \n        }\n\n    }   \n    function findMyArts()  public view returns (uint256[] memory _myArts) {\n        require(msg.sender != address(0));\n        uint256 numOftokens = balanceOf(msg.sender);\n        if (numOftokens == 0) {\n            return new uint256[](0);\n        } else {\n            uint256[] memory myArts = new uint256[](numOftokens);\n            uint256 idx = 0;\n            uint256 arrLength = arts.length;\n            for (uint256 i = 0; i < arrLength; i++) {\n                if (_tokenOwner[i] == msg.sender) {\n                    myArts[idx] = i;\n                    idx++;\n                }\n            }\n            return myArts;\n        }\n    }\n\n    function getArtAllTxn(uint256 _tokenId) public view  returns (uint256[] memory _id, uint256[] memory _price,address[] memory seller,address[] memory buyer, uint[] memory _txnDate ){\n        ArtTxn[] memory artTxnList = artTxns[_tokenId];\n        uint256 arrLength = artTxnList.length;\n        uint256[] memory ids = new uint256[](arrLength);\n        uint256[] memory prices = new uint256[](arrLength);\n        address[] memory sellers = new address[](arrLength);\n        address[] memory buyers = new address[](arrLength);\n        uint[] memory txnDates = new uint[](arrLength);\n        for (uint i = 0; i < artTxnList.length; ++i) {\n           ArtTxn memory artTxn = artTxnList[i];\n           ids[i] = artTxn.id;\n           prices[i] = artTxn.price; \n           sellers[i] =artTxn.seller; \n           buyers[i] =artTxn.buyer; \n           txnDates[i] =artTxn.txnDate; \n        }\n         return (ids,prices,sellers,buyers, txnDates);\n    }\n    function _transfer(address _from, address _to, uint256 _tokenId) private {\n        _ownedTokensCount[_to]++;\n        _ownedTokensCount[_from]--;\n        _tokenOwner[_tokenId] = _to;\n        emit Transfer(_from, _to, _tokenId);\n    }\n    function _mint(address _to, uint256 tokenId) internal {\n        require(_to != address(0));\n        require(!_exists(tokenId));\n        _tokenOwner[tokenId] = _to;\n        _ownedTokensCount[_to]++;\n        emit Transfer(address(0), _to, tokenId);\n    }\n    function _exists(uint256 tokenId) internal view returns (bool) {\n        address owner = _tokenOwner[tokenId];\n        return owner != address(0);\n    }\n\n   function balanceOf(address _owner) public view returns (uint256) {\n        return _ownedTokensCount[_owner];\n    }\n    function ownerOf(uint256 _tokenId) public view returns (address _owner) {\n        _owner = _tokenOwner[_tokenId];\n    }\n    function approve(address _to, uint256 _tokenId) public {\n        require(isOwnerOf(_tokenId, msg.sender));\n        _tokenApprovals[_tokenId] = _to;\n        emit Approval(msg.sender, _to, _tokenId);\n    }\n\n    function transferFrom(address _from, address _to, uint256 _tokenId) public {\n        require(_to != address(0));\n        require(isOwnerOf(_tokenId, _from));\n        require(isApproved(_to, _tokenId));\n        _transfer(_from, _to, _tokenId);\n    }\n\n    function transfer(address _to, uint256 _tokenId) public {\n        require(_to != address(0));\n        require(isOwnerOf(_tokenId, msg.sender));\n        _transfer(msg.sender, _to, _tokenId);\n    }\n    \n    function getApproved(uint256 tokenId) public view returns (address operator) {\n        require(_exists(tokenId));\n        return _tokenApprovals[tokenId];\n    }\n\n    function setApprovalForAll(address operator, bool _approved) public {\n        require(operator != msg.sender);\n        _operatorApprovals[msg.sender][operator] = _approved;\n        emit ApprovalForAll(msg.sender, operator, _approved);\n    }\n    function isApprovedForAll(address owner, address operator) public view returns (bool) {\n        return _operatorApprovals[owner][operator];\n    }\n    function safeTransferFrom(address from, address to, uint256 tokenId) public {\n        // NOT IMPLEMENTED\n    }\n    function safeTransferFrom(address from, address to, uint256 tokenId, bytes memory data) public {\n        // NOT IMPLEMENTED\n    }\n    \n    function isOwnerOf(uint256 tokenId, address account) public view returns (bool) {\n        address owner = _tokenOwner[tokenId];\n        require(owner != address(0));\n        return owner == account;\n    }\n    function isApproved(address _to, uint256 _tokenId) private view returns (bool) {\n        return _tokenApprovals[_tokenId] == _to;\n    }\n\n}",
  "sourcePath": "/home/shkwon/Projects/Temp/Learn-Ethereum-Second-Edition-main/chapter10/DigitalArtERC721Token/contracts/DigitalArt.sol",
  "compiler": {
    "name": "solc",
    "version": "0.5.8+commit.23d335f2.Emscripten.clang"
  },
  "schemaVersion": "3.4.16",
  "updatedAt": "2023-12-28T00:38:04.157Z",
  "networkType": "ethereum",
  "devdoc": {
    "methods": {}
  },
  "userdoc": {
    "methods": {}
  }
}