{
  "contractName": "DigitalArt",
  "abi": [
    {
      "inputs": [
        {
          "internalType": "string",
          "name": "name_",
          "type": "string"
        },
        {
          "internalType": "string",
          "name": "symbol_",
          "type": "string"
        }
      ],
      "stateMutability": "nonpayable",
      "type": "constructor"
    },
    {
      "anonymous": false,
      "inputs": [
        {
          "indexed": true,
          "internalType": "address",
          "name": "owner",
          "type": "address"
        },
        {
          "indexed": true,
          "internalType": "address",
          "name": "approved",
          "type": "address"
        },
        {
          "indexed": true,
          "internalType": "uint256",
          "name": "tokenId",
          "type": "uint256"
        }
      ],
      "name": "Approval",
      "type": "event"
    },
    {
      "anonymous": false,
      "inputs": [
        {
          "indexed": true,
          "internalType": "address",
          "name": "owner",
          "type": "address"
        },
        {
          "indexed": true,
          "internalType": "address",
          "name": "operator",
          "type": "address"
        },
        {
          "indexed": false,
          "internalType": "bool",
          "name": "approved",
          "type": "bool"
        }
      ],
      "name": "ApprovalForAll",
      "type": "event"
    },
    {
      "anonymous": false,
      "inputs": [
        {
          "indexed": false,
          "internalType": "uint256",
          "name": "_tokenId",
          "type": "uint256"
        },
        {
          "indexed": false,
          "internalType": "uint256",
          "name": "_status",
          "type": "uint256"
        },
        {
          "indexed": false,
          "internalType": "uint256",
          "name": "_price",
          "type": "uint256"
        }
      ],
      "name": "LogArtResell",
      "type": "event"
    },
    {
      "anonymous": false,
      "inputs": [
        {
          "indexed": false,
          "internalType": "uint256",
          "name": "_tokenId",
          "type": "uint256"
        },
        {
          "indexed": false,
          "internalType": "string",
          "name": "_title",
          "type": "string"
        },
        {
          "indexed": false,
          "internalType": "string",
          "name": "_authorName",
          "type": "string"
        },
        {
          "indexed": false,
          "internalType": "uint256",
          "name": "_price",
          "type": "uint256"
        },
        {
          "indexed": false,
          "internalType": "address",
          "name": "_author",
          "type": "address"
        },
        {
          "indexed": false,
          "internalType": "address",
          "name": "_current_owner",
          "type": "address"
        },
        {
          "indexed": false,
          "internalType": "address",
          "name": "_buyer",
          "type": "address"
        }
      ],
      "name": "LogArtSold",
      "type": "event"
    },
    {
      "anonymous": false,
      "inputs": [
        {
          "indexed": false,
          "internalType": "uint256",
          "name": "_tokenId",
          "type": "uint256"
        },
        {
          "indexed": false,
          "internalType": "string",
          "name": "_title",
          "type": "string"
        },
        {
          "indexed": false,
          "internalType": "string",
          "name": "_category",
          "type": "string"
        },
        {
          "indexed": false,
          "internalType": "string",
          "name": "_authorName",
          "type": "string"
        },
        {
          "indexed": false,
          "internalType": "uint256",
          "name": "_price",
          "type": "uint256"
        },
        {
          "indexed": false,
          "internalType": "address",
          "name": "_author",
          "type": "address"
        },
        {
          "indexed": false,
          "internalType": "address",
          "name": "_current_owner",
          "type": "address"
        }
      ],
      "name": "LogArtTokenCreate",
      "type": "event"
    },
    {
      "anonymous": false,
      "inputs": [
        {
          "indexed": true,
          "internalType": "address",
          "name": "from",
          "type": "address"
        },
        {
          "indexed": true,
          "internalType": "address",
          "name": "to",
          "type": "address"
        },
        {
          "indexed": true,
          "internalType": "uint256",
          "name": "tokenId",
          "type": "uint256"
        }
      ],
      "name": "Transfer",
      "type": "event"
    },
    {
      "inputs": [
        {
          "internalType": "uint256",
          "name": "",
          "type": "uint256"
        }
      ],
      "name": "arts",
      "outputs": [
        {
          "internalType": "uint256",
          "name": "id",
          "type": "uint256"
        },
        {
          "internalType": "string",
          "name": "title",
          "type": "string"
        },
        {
          "internalType": "string",
          "name": "description",
          "type": "string"
        },
        {
          "internalType": "uint256",
          "name": "price",
          "type": "uint256"
        },
        {
          "internalType": "string",
          "name": "date",
          "type": "string"
        },
        {
          "internalType": "string",
          "name": "authorName",
          "type": "string"
        },
        {
          "internalType": "address payable",
          "name": "author",
          "type": "address"
        },
        {
          "internalType": "address payable",
          "name": "owner",
          "type": "address"
        },
        {
          "internalType": "uint256",
          "name": "status",
          "type": "uint256"
        },
        {
          "internalType": "string",
          "name": "image",
          "type": "string"
        }
      ],
      "stateMutability": "view",
      "type": "function"
    },
    {
      "inputs": [],
      "name": "index",
      "outputs": [
        {
          "internalType": "uint256",
          "name": "",
          "type": "uint256"
        }
      ],
      "stateMutability": "view",
      "type": "function"
    },
    {
      "inputs": [],
      "name": "name",
      "outputs": [
        {
          "internalType": "string",
          "name": "",
          "type": "string"
        }
      ],
      "stateMutability": "view",
      "type": "function"
    },
    {
      "inputs": [],
      "name": "symbol",
      "outputs": [
        {
          "internalType": "string",
          "name": "",
          "type": "string"
        }
      ],
      "stateMutability": "view",
      "type": "function"
    },
    {
      "inputs": [
        {
          "internalType": "string",
          "name": "_title",
          "type": "string"
        },
        {
          "internalType": "string",
          "name": "_description",
          "type": "string"
        },
        {
          "internalType": "string",
          "name": "_date",
          "type": "string"
        },
        {
          "internalType": "string",
          "name": "_authorName",
          "type": "string"
        },
        {
          "internalType": "uint256",
          "name": "_price",
          "type": "uint256"
        },
        {
          "internalType": "string",
          "name": "_image",
          "type": "string"
        }
      ],
      "name": "createTokenAndSellArt",
      "outputs": [],
      "stateMutability": "nonpayable",
      "type": "function"
    },
    {
      "inputs": [
        {
          "internalType": "uint256",
          "name": "_tokenId",
          "type": "uint256"
        }
      ],
      "name": "buyArt",
      "outputs": [],
      "stateMutability": "payable",
      "type": "function"
    },
    {
      "inputs": [
        {
          "internalType": "uint256",
          "name": "_tokenId",
          "type": "uint256"
        },
        {
          "internalType": "uint256",
          "name": "_price",
          "type": "uint256"
        }
      ],
      "name": "resellArt",
      "outputs": [],
      "stateMutability": "payable",
      "type": "function"
    },
    {
      "inputs": [
        {
          "internalType": "uint256",
          "name": "_tokenId",
          "type": "uint256"
        }
      ],
      "name": "findArt",
      "outputs": [
        {
          "internalType": "uint256",
          "name": "",
          "type": "uint256"
        },
        {
          "internalType": "string",
          "name": "",
          "type": "string"
        },
        {
          "internalType": "string",
          "name": "",
          "type": "string"
        },
        {
          "internalType": "uint256",
          "name": "",
          "type": "uint256"
        },
        {
          "internalType": "uint256",
          "name": "status",
          "type": "uint256"
        },
        {
          "internalType": "string",
          "name": "",
          "type": "string"
        },
        {
          "internalType": "string",
          "name": "",
          "type": "string"
        },
        {
          "internalType": "address",
          "name": "",
          "type": "address"
        },
        {
          "internalType": "address payable",
          "name": "",
          "type": "address"
        },
        {
          "internalType": "string",
          "name": "",
          "type": "string"
        }
      ],
      "stateMutability": "view",
      "type": "function"
    },
    {
      "inputs": [],
      "name": "findAllArt",
      "outputs": [
        {
          "internalType": "uint256[]",
          "name": "",
          "type": "uint256[]"
        },
        {
          "internalType": "address[]",
          "name": "",
          "type": "address[]"
        },
        {
          "internalType": "address[]",
          "name": "",
          "type": "address[]"
        },
        {
          "internalType": "uint256[]",
          "name": "",
          "type": "uint256[]"
        }
      ],
      "stateMutability": "view",
      "type": "function"
    },
    {
      "inputs": [],
      "name": "findAllPendingArt",
      "outputs": [
        {
          "internalType": "uint256[]",
          "name": "",
          "type": "uint256[]"
        },
        {
          "internalType": "address[]",
          "name": "",
          "type": "address[]"
        },
        {
          "internalType": "address[]",
          "name": "",
          "type": "address[]"
        },
        {
          "internalType": "uint256[]",
          "name": "",
          "type": "uint256[]"
        }
      ],
      "stateMutability": "view",
      "type": "function"
    },
    {
      "inputs": [],
      "name": "findMyArts",
      "outputs": [
        {
          "internalType": "uint256[]",
          "name": "_myArts",
          "type": "uint256[]"
        }
      ],
      "stateMutability": "view",
      "type": "function"
    },
    {
      "inputs": [
        {
          "internalType": "uint256",
          "name": "_tokenId",
          "type": "uint256"
        }
      ],
      "name": "getArtAllTxn",
      "outputs": [
        {
          "internalType": "uint256[]",
          "name": "_id",
          "type": "uint256[]"
        },
        {
          "internalType": "uint256[]",
          "name": "_price",
          "type": "uint256[]"
        },
        {
          "internalType": "address[]",
          "name": "seller",
          "type": "address[]"
        },
        {
          "internalType": "address[]",
          "name": "buyer",
          "type": "address[]"
        },
        {
          "internalType": "uint256[]",
          "name": "_txnDate",
          "type": "uint256[]"
        }
      ],
      "stateMutability": "view",
      "type": "function"
    },
    {
      "inputs": [
        {
          "internalType": "address",
          "name": "_owner",
          "type": "address"
        }
      ],
      "name": "balanceOf",
      "outputs": [
        {
          "internalType": "uint256",
          "name": "",
          "type": "uint256"
        }
      ],
      "stateMutability": "view",
      "type": "function"
    },
    {
      "inputs": [
        {
          "internalType": "uint256",
          "name": "_tokenId",
          "type": "uint256"
        }
      ],
      "name": "ownerOf",
      "outputs": [
        {
          "internalType": "address",
          "name": "_owner",
          "type": "address"
        }
      ],
      "stateMutability": "view",
      "type": "function"
    },
    {
      "inputs": [
        {
          "internalType": "address",
          "name": "_to",
          "type": "address"
        },
        {
          "internalType": "uint256",
          "name": "_tokenId",
          "type": "uint256"
        }
      ],
      "name": "approve",
      "outputs": [],
      "stateMutability": "nonpayable",
      "type": "function"
    },
    {
      "inputs": [
        {
          "internalType": "address",
          "name": "_from",
          "type": "address"
        },
        {
          "internalType": "address",
          "name": "_to",
          "type": "address"
        },
        {
          "internalType": "uint256",
          "name": "_tokenId",
          "type": "uint256"
        }
      ],
      "name": "transferFrom",
      "outputs": [],
      "stateMutability": "nonpayable",
      "type": "function"
    },
    {
      "inputs": [
        {
          "internalType": "address",
          "name": "_to",
          "type": "address"
        },
        {
          "internalType": "uint256",
          "name": "_tokenId",
          "type": "uint256"
        }
      ],
      "name": "transfer",
      "outputs": [],
      "stateMutability": "nonpayable",
      "type": "function"
    },
    {
      "inputs": [
        {
          "internalType": "uint256",
          "name": "tokenId",
          "type": "uint256"
        }
      ],
      "name": "getApproved",
      "outputs": [
        {
          "internalType": "address",
          "name": "operator",
          "type": "address"
        }
      ],
      "stateMutability": "view",
      "type": "function"
    },
    {
      "inputs": [
        {
          "internalType": "address",
          "name": "operator",
          "type": "address"
        },
        {
          "internalType": "bool",
          "name": "_approved",
          "type": "bool"
        }
      ],
      "name": "setApprovalForAll",
      "outputs": [],
      "stateMutability": "nonpayable",
      "type": "function"
    },
    {
      "inputs": [
        {
          "internalType": "address",
          "name": "owner",
          "type": "address"
        },
        {
          "internalType": "address",
          "name": "operator",
          "type": "address"
        }
      ],
      "name": "isApprovedForAll",
      "outputs": [
        {
          "internalType": "bool",
          "name": "",
          "type": "bool"
        }
      ],
      "stateMutability": "view",
      "type": "function"
    },
    {
      "inputs": [
        {
          "internalType": "address",
          "name": "from",
          "type": "address"
        },
        {
          "internalType": "address",
          "name": "to",
          "type": "address"
        },
        {
          "internalType": "uint256",
          "name": "tokenId",
          "type": "uint256"
        }
      ],
      "name": "safeTransferFrom",
      "outputs": [],
      "stateMutability": "nonpayable",
      "type": "function"
    },
    {
      "inputs": [
        {
          "internalType": "address",
          "name": "from",
          "type": "address"
        },
        {
          "internalType": "address",
          "name": "to",
          "type": "address"
        },
        {
          "internalType": "uint256",
          "name": "tokenId",
          "type": "uint256"
        },
        {
          "internalType": "bytes",
          "name": "data",
          "type": "bytes"
        }
      ],
      "name": "safeTransferFrom",
      "outputs": [],
      "stateMutability": "nonpayable",
      "type": "function"
    },
    {
      "inputs": [
        {
          "internalType": "uint256",
          "name": "tokenId",
          "type": "uint256"
        },
        {
          "internalType": "address",
          "name": "account",
          "type": "address"
        }
      ],
      "name": "isOwnerOf",
      "outputs": [
        {
          "internalType": "bool",
          "name": "",
          "type": "bool"
        }
      ],
      "stateMutability": "view",
      "type": "function"
    }
  ],
  "bytecode": "0x60806040523480156200001157600080fd5b5060405162004933380380620049338339818101604052810190620000379190620002be565b81600090805190602001906200004f92919062000071565b5080600190805190602001906200006892919062000071565b505050620003a8565b8280546200007f9062000372565b90600052602060002090601f016020900481019282620000a35760008555620000ef565b82601f10620000be57805160ff1916838001178555620000ef565b82800160010185558215620000ef579182015b82811115620000ee578251825591602001919060010190620000d1565b5b509050620000fe919062000102565b5090565b5b808211156200011d57600081600090555060010162000103565b5090565b6000604051905090565b600080fd5b600080fd5b600080fd5b600080fd5b6000601f19601f8301169050919050565b7f4e487b7100000000000000000000000000000000000000000000000000000000600052604160045260246000fd5b6200018a826200013f565b810181811067ffffffffffffffff82111715620001ac57620001ab62000150565b5b80604052505050565b6000620001c162000121565b9050620001cf82826200017f565b919050565b600067ffffffffffffffff821115620001f257620001f162000150565b5b620001fd826200013f565b9050602081019050919050565b60005b838110156200022a5780820151818401526020810190506200020d565b838111156200023a576000848401525b50505050565b6000620002576200025184620001d4565b620001b5565b9050828152602081018484840111156200027657620002756200013a565b5b620002838482856200020a565b509392505050565b600082601f830112620002a357620002a262000135565b5b8151620002b584826020860162000240565b91505092915050565b60008060408385031215620002d857620002d76200012b565b5b600083015167ffffffffffffffff811115620002f957620002f862000130565b5b62000307858286016200028b565b925050602083015167ffffffffffffffff8111156200032b576200032a62000130565b5b62000339858286016200028b565b9150509250929050565b7f4e487b7100000000000000000000000000000000000000000000000000000000600052602260045260246000fd5b600060028204905060018216806200038b57607f821691505b60208210811415620003a257620003a162000343565b5b50919050565b61457b80620003b86000396000f3fe6080604052600436106101405760003560e01c806395d89b41116100b6578063d2c088021161006f578063d2c088021461046e578063e1925e1514610499578063e49a3d3b146104da578063e57a104a14610503578063e985e9c514610549578063fc7a900b1461058657610140565b806395d89b41146103455780639ac016e214610370578063a22cb465146103ad578063a9059cbb146103d6578063b88d4fde146103ff578063ce971a101461042857610140565b80632986c0e5116101085780632986c0e51461022d5780633e54fca11461025857806342842e0e146102865780636352211e146102af57806364262dcc146102ec57806370a082311461030857610140565b8063063fc9661461014557806306fdde0314610173578063081812fc1461019e578063095ea7b3146101db57806323b872dd14610204575b600080fd5b34801561015157600080fd5b5061015a6105a2565b60405161016a949392919061361d565b60405180910390f35b34801561017f57600080fd5b50610188610d46565b6040516101959190613717565b60405180910390f35b3480156101aa57600080fd5b506101c560048036038101906101c09190613779565b610dd8565b6040516101d291906137b5565b60405180910390f35b3480156101e757600080fd5b5061020260048036038101906101fd91906137fc565b610e27565b005b34801561021057600080fd5b5061022b6004803603810190610226919061383c565b610eeb565b005b34801561023957600080fd5b50610242610f5b565b60405161024f919061389e565b60405180910390f35b34801561026457600080fd5b5061026d610f61565b60405161027d949392919061361d565b60405180910390f35b34801561029257600080fd5b506102ad60048036038101906102a8919061383c565b61159d565b005b3480156102bb57600080fd5b506102d660048036038101906102d19190613779565b6115a2565b6040516102e391906137b5565b60405180910390f35b610306600480360381019061030191906138b9565b6115df565b005b34801561031457600080fd5b5061032f600480360381019061032a91906138f9565b6116d9565b60405161033c919061389e565b60405180910390f35b34801561035157600080fd5b5061035a611722565b6040516103679190613717565b60405180910390f35b34801561037c57600080fd5b5061039760048036038101906103929190613926565b6117b4565b6040516103a49190613981565b60405180910390f35b3480156103b957600080fd5b506103d460048036038101906103cf91906139c8565b61185f565b005b3480156103e257600080fd5b506103fd60048036038101906103f891906137fc565b611995565b005b34801561040b57600080fd5b5061042660048036038101906104219190613b3d565b6119f1565b005b34801561043457600080fd5b5061044f600480360381019061044a9190613779565b6119f7565b6040516104659a99989796959493929190613be1565b60405180910390f35b34801561047a57600080fd5b50610483611e33565b6040516104909190613ca0565b60405180910390f35b3480156104a557600080fd5b506104c060048036038101906104bb9190613779565b611fef565b6040516104d1959493929190613cc2565b60405180910390f35b3480156104e657600080fd5b5061050160048036038101906104fc9190613dd9565b61242c565b005b34801561050f57600080fd5b5061052a60048036038101906105259190613779565b612802565b6040516105409a99989796959493929190613ef2565b60405180910390f35b34801561055557600080fd5b50610570600480360381019061056b9190613fb1565b612b4e565b60405161057d9190613981565b60405180910390f35b6105a0600480360381019061059b9190613779565b612be2565b005b606080606080600060035414156106e857600067ffffffffffffffff8111156105ce576105cd613a12565b5b6040519080825280602002602001820160405280156105fc5781602001602082028036833780820191505090505b50600067ffffffffffffffff81111561061857610617613a12565b5b6040519080825280602002602001820160405280156106465781602001602082028036833780820191505090505b50600067ffffffffffffffff81111561066257610661613a12565b5b6040519080825280602002602001820160405280156106905781602001602082028036833780820191505090505b50600067ffffffffffffffff8111156106ac576106ab613a12565b5b6040519080825280602002602001820160405280156106da5781602001602082028036833780820191505090505b509350935093509350610d40565b60006002805490509050600060035467ffffffffffffffff8111156107105761070f613a12565b5b60405190808252806020026020018201604052801561073e5781602001602082028036833780820191505090505b509050600060035467ffffffffffffffff81111561075f5761075e613a12565b5b60405190808252806020026020018201604052801561078d5781602001602082028036833780820191505090505b509050600060035467ffffffffffffffff8111156107ae576107ad613a12565b5b6040519080825280602002602001820160405280156107dc5781602001602082028036833780820191505090505b509050600060035467ffffffffffffffff8111156107fd576107fc613a12565b5b60405190808252806020026020018201604052801561082b5781602001602082028036833780820191505090505b5090506000805b86811015610d2c576000600282815481106108505761084f613ff1565b5b90600052602060002090600a020160405180610140016040529081600082015481526020016001820180546108849061404f565b80601f01602080910402602001604051908101604052809291908181526020018280546108b09061404f565b80156108fd5780601f106108d2576101008083540402835291602001916108fd565b820191906000526020600020905b8154815290600101906020018083116108e057829003601f168201915b505050505081526020016002820180546109169061404f565b80601f01602080910402602001604051908101604052809291908181526020018280546109429061404f565b801561098f5780601f106109645761010080835404028352916020019161098f565b820191906000526020600020905b81548152906001019060200180831161097257829003601f168201915b50505050508152602001600382015481526020016004820180546109b29061404f565b80601f01602080910402602001604051908101604052809291908181526020018280546109de9061404f565b8015610a2b5780601f10610a0057610100808354040283529160200191610a2b565b820191906000526020600020905b815481529060010190602001808311610a0e57829003601f168201915b50505050508152602001600582018054610a449061404f565b80601f0160208091040260200160405190810160405280929190818152602001828054610a709061404f565b8015610abd5780601f10610a9257610100808354040283529160200191610abd565b820191906000526020600020905b815481529060010190602001808311610aa057829003601f168201915b505050505081526020016006820160009054906101000a900473ffffffffffffffffffffffffffffffffffffffff1673ffffffffffffffffffffffffffffffffffffffff1673ffffffffffffffffffffffffffffffffffffffff1681526020016007820160009054906101000a900473ffffffffffffffffffffffffffffffffffffffff1673ffffffffffffffffffffffffffffffffffffffff1673ffffffffffffffffffffffffffffffffffffffff16815260200160088201548152602001600982018054610b8c9061404f565b80601f0160208091040260200160405190810160405280929190818152602001828054610bb89061404f565b8015610c055780601f10610bda57610100808354040283529160200191610c05565b820191906000526020600020905b815481529060010190602001808311610be857829003601f168201915b505050505081525050905060018161010001511415610d1a578060000151878481518110610c3657610c35613ff1565b5b6020026020010181815250508060c00151868481518110610c5a57610c59613ff1565b5b602002602001019073ffffffffffffffffffffffffffffffffffffffff16908173ffffffffffffffffffffffffffffffffffffffff16815250508060e00151858481518110610cac57610cab613ff1565b5b602002602001019073ffffffffffffffffffffffffffffffffffffffff16908173ffffffffffffffffffffffffffffffffffffffff1681525050806101000151848481518110610cff57610cfe613ff1565b5b6020026020010181815250508280610d16906140b0565b9350505b5080610d25906140b0565b9050610832565b508484848499509950995099505050505050505b90919293565b606060008054610d559061404f565b80601f0160208091040260200160405190810160405280929190818152602001828054610d819061404f565b8015610dce5780601f10610da357610100808354040283529160200191610dce565b820191906000526020600020905b815481529060010190602001808311610db157829003601f168201915b5050505050905090565b6000610de382613034565b610dec57600080fd5b6006600083815260200190815260200160002060009054906101000a900473ffffffffffffffffffffffffffffffffffffffff169050919050565b610e3181336117b4565b610e3a57600080fd5b816006600083815260200190815260200160002060006101000a81548173ffffffffffffffffffffffffffffffffffffffff021916908373ffffffffffffffffffffffffffffffffffffffff160217905550808273ffffffffffffffffffffffffffffffffffffffff163373ffffffffffffffffffffffffffffffffffffffff167f8c5be1e5ebec7d5bd14f71427d1e84f3dd0314c0f7b2291e5b200ac8c7c3b92560405160405180910390a45050565b600073ffffffffffffffffffffffffffffffffffffffff168273ffffffffffffffffffffffffffffffffffffffff161415610f2557600080fd5b610f2f81846117b4565b610f3857600080fd5b610f4282826130a6565b610f4b57600080fd5b610f56838383613112565b505050565b60095481565b6060806060806000600280549050905060008167ffffffffffffffff811115610f8d57610f8c613a12565b5b604051908082528060200260200182016040528015610fbb5781602001602082028036833780820191505090505b50905060008267ffffffffffffffff811115610fda57610fd9613a12565b5b6040519080825280602002602001820160405280156110085781602001602082028036833780820191505090505b50905060008367ffffffffffffffff81111561102757611026613a12565b5b6040519080825280602002602001820160405280156110555781602001602082028036833780820191505090505b50905060008467ffffffffffffffff81111561107457611073613a12565b5b6040519080825280602002602001820160405280156110a25781602001602082028036833780820191505090505b50905060005b85811015611585576000600282815481106110c6576110c5613ff1565b5b90600052602060002090600a020160405180610140016040529081600082015481526020016001820180546110fa9061404f565b80601f01602080910402602001604051908101604052809291908181526020018280546111269061404f565b80156111735780601f1061114857610100808354040283529160200191611173565b820191906000526020600020905b81548152906001019060200180831161115657829003601f168201915b5050505050815260200160028201805461118c9061404f565b80601f01602080910402602001604051908101604052809291908181526020018280546111b89061404f565b80156112055780601f106111da57610100808354040283529160200191611205565b820191906000526020600020905b8154815290600101906020018083116111e857829003601f168201915b50505050508152602001600382015481526020016004820180546112289061404f565b80601f01602080910402602001604051908101604052809291908181526020018280546112549061404f565b80156112a15780601f10611276576101008083540402835291602001916112a1565b820191906000526020600020905b81548152906001019060200180831161128457829003601f168201915b505050505081526020016005820180546112ba9061404f565b80601f01602080910402602001604051908101604052809291908181526020018280546112e69061404f565b80156113335780601f1061130857610100808354040283529160200191611333565b820191906000526020600020905b81548152906001019060200180831161131657829003601f168201915b505050505081526020016006820160009054906101000a900473ffffffffffffffffffffffffffffffffffffffff1673ffffffffffffffffffffffffffffffffffffffff1673ffffffffffffffffffffffffffffffffffffffff1681526020016007820160009054906101000a900473ffffffffffffffffffffffffffffffffffffffff1673ffffffffffffffffffffffffffffffffffffffff1673ffffffffffffffffffffffffffffffffffffffff168152602001600882015481526020016009820180546114029061404f565b80601f016020809104026020016040519081016040528092919081815260200182805461142e9061404f565b801561147b5780601f106114505761010080835404028352916020019161147b565b820191906000526020600020905b81548152906001019060200180831161145e57829003601f168201915b5050505050815250509050806000015186838151811061149e5761149d613ff1565b5b6020026020010181815250508060c001518583815181106114c2576114c1613ff1565b5b602002602001019073ffffffffffffffffffffffffffffffffffffffff16908173ffffffffffffffffffffffffffffffffffffffff16815250508060e0015184838151811061151457611513613ff1565b5b602002602001019073ffffffffffffffffffffffffffffffffffffffff16908173ffffffffffffffffffffffffffffffffffffffff168152505080610100015183838151811061156757611566613ff1565b5b602002602001018181525050508061157e906140b0565b90506110a8565b50838383839850985098509850505050505090919293565b505050565b60006004600083815260200190815260200160002060009054906101000a900473ffffffffffffffffffffffffffffffffffffffff169050919050565b600073ffffffffffffffffffffffffffffffffffffffff163373ffffffffffffffffffffffffffffffffffffffff16141561161957600080fd5b61162382336117b4565b61162c57600080fd5b60016002838154811061164257611641613ff1565b5b90600052602060002090600a020160080181905550806002838154811061166c5761166b613ff1565b5b90600052602060002090600a02016003018190555060036000815480929190611694906140b0565b91905055507f8916ae292317d6f324a5ed02fea84bf6881d4065b6d575a8980442469b882b7a826001836040516116cd9392919061413e565b60405180910390a15050565b6000600560008373ffffffffffffffffffffffffffffffffffffffff1673ffffffffffffffffffffffffffffffffffffffff168152602001908152602001600020549050919050565b6060600180546117319061404f565b80601f016020809104026020016040519081016040528092919081815260200182805461175d9061404f565b80156117aa5780601f1061177f576101008083540402835291602001916117aa565b820191906000526020600020905b81548152906001019060200180831161178d57829003601f168201915b5050505050905090565b6000806004600085815260200190815260200160002060009054906101000a900473ffffffffffffffffffffffffffffffffffffffff169050600073ffffffffffffffffffffffffffffffffffffffff168173ffffffffffffffffffffffffffffffffffffffff16141561182757600080fd5b8273ffffffffffffffffffffffffffffffffffffffff168173ffffffffffffffffffffffffffffffffffffffff161491505092915050565b3373ffffffffffffffffffffffffffffffffffffffff168273ffffffffffffffffffffffffffffffffffffffff16141561189857600080fd5b80600760003373ffffffffffffffffffffffffffffffffffffffff1673ffffffffffffffffffffffffffffffffffffffff16815260200190815260200160002060008473ffffffffffffffffffffffffffffffffffffffff1673ffffffffffffffffffffffffffffffffffffffff16815260200190815260200160002060006101000a81548160ff0219169083151502179055508173ffffffffffffffffffffffffffffffffffffffff163373ffffffffffffffffffffffffffffffffffffffff167f17307eab39ab6107e8899845ad3d59bd9653f200f220920489ca2b5937696c31836040516119899190613981565b60405180910390a35050565b600073ffffffffffffffffffffffffffffffffffffffff168273ffffffffffffffffffffffffffffffffffffffff1614156119cf57600080fd5b6119d981336117b4565b6119e257600080fd5b6119ed338383613112565b5050565b50505050565b60006060806000806060806000806060600060028c81548110611a1d57611a1c613ff1565b5b90600052602060002090600a02016040518061014001604052908160008201548152602001600182018054611a519061404f565b80601f0160208091040260200160405190810160405280929190818152602001828054611a7d9061404f565b8015611aca5780601f10611a9f57610100808354040283529160200191611aca565b820191906000526020600020905b815481529060010190602001808311611aad57829003601f168201915b50505050508152602001600282018054611ae39061404f565b80601f0160208091040260200160405190810160405280929190818152602001828054611b0f9061404f565b8015611b5c5780601f10611b3157610100808354040283529160200191611b5c565b820191906000526020600020905b815481529060010190602001808311611b3f57829003601f168201915b5050505050815260200160038201548152602001600482018054611b7f9061404f565b80601f0160208091040260200160405190810160405280929190818152602001828054611bab9061404f565b8015611bf85780601f10611bcd57610100808354040283529160200191611bf8565b820191906000526020600020905b815481529060010190602001808311611bdb57829003601f168201915b50505050508152602001600582018054611c119061404f565b80601f0160208091040260200160405190810160405280929190818152602001828054611c3d9061404f565b8015611c8a5780601f10611c5f57610100808354040283529160200191611c8a565b820191906000526020600020905b815481529060010190602001808311611c6d57829003601f168201915b505050505081526020016006820160009054906101000a900473ffffffffffffffffffffffffffffffffffffffff1673ffffffffffffffffffffffffffffffffffffffff1673ffffffffffffffffffffffffffffffffffffffff1681526020016007820160009054906101000a900473ffffffffffffffffffffffffffffffffffffffff1673ffffffffffffffffffffffffffffffffffffffff1673ffffffffffffffffffffffffffffffffffffffff16815260200160088201548152602001600982018054611d599061404f565b80601f0160208091040260200160405190810160405280929190818152602001828054611d859061404f565b8015611dd25780601f10611da757610100808354040283529160200191611dd2565b820191906000526020600020905b815481529060010190602001808311611db557829003601f168201915b5050505050815250509050806000015181602001518260400151836060015184610100015185608001518660a001518760c001518860e001518961012001519a509a509a509a509a509a509a509a509a509a50509193959799509193959799565b6060600073ffffffffffffffffffffffffffffffffffffffff163373ffffffffffffffffffffffffffffffffffffffff161415611e6f57600080fd5b6000611e7a336116d9565b90506000811415611ed757600067ffffffffffffffff811115611ea057611e9f613a12565b5b604051908082528060200260200182016040528015611ece5781602001602082028036833780820191505090505b50915050611fec565b60008167ffffffffffffffff811115611ef357611ef2613a12565b5b604051908082528060200260200182016040528015611f215781602001602082028036833780820191505090505b509050600080600280549050905060005b81811015611fe3573373ffffffffffffffffffffffffffffffffffffffff166004600083815260200190815260200160002060009054906101000a900473ffffffffffffffffffffffffffffffffffffffff1673ffffffffffffffffffffffffffffffffffffffff161415611fd05780848481518110611fb557611fb4613ff1565b5b6020026020010181815250508280611fcc906140b0565b9350505b8080611fdb906140b0565b915050611f32565b50829450505050505b90565b6060806060806060600060086000888152602001908152602001600020805480602002602001604051908101604052809291908181526020016000905b8282101561213257838290600052602060002090600602016040518060c001604052908160008201548152602001600182015481526020016002820160009054906101000a900473ffffffffffffffffffffffffffffffffffffffff1673ffffffffffffffffffffffffffffffffffffffff1673ffffffffffffffffffffffffffffffffffffffff1681526020016003820160009054906101000a900473ffffffffffffffffffffffffffffffffffffffff1673ffffffffffffffffffffffffffffffffffffffff1673ffffffffffffffffffffffffffffffffffffffff168152602001600482015481526020016005820154815250508152602001906001019061202c565b50505050905060008151905060008167ffffffffffffffff81111561215a57612159613a12565b5b6040519080825280602002602001820160405280156121885781602001602082028036833780820191505090505b50905060008267ffffffffffffffff8111156121a7576121a6613a12565b5b6040519080825280602002602001820160405280156121d55781602001602082028036833780820191505090505b50905060008367ffffffffffffffff8111156121f4576121f3613a12565b5b6040519080825280602002602001820160405280156122225781602001602082028036833780820191505090505b50905060008467ffffffffffffffff81111561224157612240613a12565b5b60405190808252806020026020018201604052801561226f5781602001602082028036833780820191505090505b50905060008567ffffffffffffffff81111561228e5761228d613a12565b5b6040519080825280602002602001820160405280156122bc5781602001602082028036833780820191505090505b50905060005b875181101561240c5760008882815181106122e0576122df613ff1565b5b60200260200101519050806000015187838151811061230257612301613ff1565b5b602002602001018181525050806020015186838151811061232657612325613ff1565b5b602002602001018181525050806040015185838151811061234a57612349613ff1565b5b602002602001019073ffffffffffffffffffffffffffffffffffffffff16908173ffffffffffffffffffffffffffffffffffffffff1681525050806060015184838151811061239c5761239b613ff1565b5b602002602001019073ffffffffffffffffffffffffffffffffffffffff16908173ffffffffffffffffffffffffffffffffffffffff168152505080608001518383815181106123ee576123ed613ff1565b5b6020026020010181815250505080612405906140b0565b90506122c2565b5084848484849b509b509b509b509b505050505050505091939590929450565b6000865111612470576040517f08c379a0000000000000000000000000000000000000000000000000000000008152600401612467906141c1565b60405180910390fd5b60008451116124b4576040517f08c379a00000000000000000000000000000000000000000000000000000000081526004016124ab9061422d565b60405180910390fd5b60008551116124f8576040517f08c379a00000000000000000000000000000000000000000000000000000000081526004016124ef90614299565b60405180910390fd5b6000821161253b576040517f08c379a000000000000000000000000000000000000000000000000000000000815260040161253290614305565b60405180910390fd5b600081511161257f576040517f08c379a000000000000000000000000000000000000000000000000000000000815260040161257690614371565b60405180910390fd5b600060405180610140016040528060095481526020018881526020018781526020018481526020018681526020018581526020013373ffffffffffffffffffffffffffffffffffffffff1681526020013373ffffffffffffffffffffffffffffffffffffffff1681526020016001815260200183815250905060028190806001815401808255809150506001900390600052602060002090600a020160009091909190915060008201518160000155602082015181600101908051906020019061264a9291906133c2565b5060408201518160020190805190602001906126679291906133c2565b5060608201518160030155608082015181600401908051906020019061268e9291906133c2565b5060a08201518160050190805190602001906126ab9291906133c2565b5060c08201518160060160006101000a81548173ffffffffffffffffffffffffffffffffffffffff021916908373ffffffffffffffffffffffffffffffffffffffff16021790555060e08201518160070160006101000a81548173ffffffffffffffffffffffffffffffffffffffff021916908373ffffffffffffffffffffffffffffffffffffffff16021790555061010082015181600801556101208201518160090190805190602001906127629291906133c2565b505050600060016002805490506127799190614391565b9050612785338261326e565b7ff376cc32e072d5cce6d2829c66b30d30fa0bd8fccda5e8fc27dab25430505715818988888833336040516127c097969594939291906143c5565b60405180910390a1600960008154809291906127db906140b0565b9190505550600360008154809291906127f3906140b0565b91905055505050505050505050565b6002818154811061281257600080fd5b90600052602060002090600a020160009150905080600001549080600101805461283b9061404f565b80601f01602080910402602001604051908101604052809291908181526020018280546128679061404f565b80156128b45780601f10612889576101008083540402835291602001916128b4565b820191906000526020600020905b81548152906001019060200180831161289757829003601f168201915b5050505050908060020180546128c99061404f565b80601f01602080910402602001604051908101604052809291908181526020018280546128f59061404f565b80156129425780601f1061291757610100808354040283529160200191612942565b820191906000526020600020905b81548152906001019060200180831161292557829003601f168201915b50505050509080600301549080600401805461295d9061404f565b80601f01602080910402602001604051908101604052809291908181526020018280546129899061404f565b80156129d65780601f106129ab576101008083540402835291602001916129d6565b820191906000526020600020905b8154815290600101906020018083116129b957829003601f168201915b5050505050908060050180546129eb9061404f565b80601f0160208091040260200160405190810160405280929190818152602001828054612a179061404f565b8015612a645780601f10612a3957610100808354040283529160200191612a64565b820191906000526020600020905b815481529060010190602001808311612a4757829003601f168201915b5050505050908060060160009054906101000a900473ffffffffffffffffffffffffffffffffffffffff16908060070160009054906101000a900473ffffffffffffffffffffffffffffffffffffffff1690806008015490806009018054612acb9061404f565b80601f0160208091040260200160405190810160405280929190818152602001828054612af79061404f565b8015612b445780601f10612b1957610100808354040283529160200191612b44565b820191906000526020600020905b815481529060010190602001808311612b2757829003601f168201915b505050505090508a565b6000600760008473ffffffffffffffffffffffffffffffffffffffff1673ffffffffffffffffffffffffffffffffffffffff16815260200190815260200160002060008373ffffffffffffffffffffffffffffffffffffffff1673ffffffffffffffffffffffffffffffffffffffff16815260200190815260200160002060009054906101000a900460ff16905092915050565b6000806000806000806000612bf6886119f7565b5098509850985050975097505096509650600073ffffffffffffffffffffffffffffffffffffffff168173ffffffffffffffffffffffffffffffffffffffff161415612c4157600080fd5b600073ffffffffffffffffffffffffffffffffffffffff163373ffffffffffffffffffffffffffffffffffffffff161415612c7b57600080fd5b8073ffffffffffffffffffffffffffffffffffffffff163373ffffffffffffffffffffffffffffffffffffffff161415612cb457600080fd5b84341015612cc157600080fd5b600073ffffffffffffffffffffffffffffffffffffffff1660028981548110612ced57612cec613ff1565b5b90600052602060002090600a020160070160009054906101000a900473ffffffffffffffffffffffffffffffffffffffff1673ffffffffffffffffffffffffffffffffffffffff161415612d4057600080fd5b612d4b81338a613112565b84341115612da6573373ffffffffffffffffffffffffffffffffffffffff166108fc8634612d799190614391565b9081150290604051600060405180830381858888f19350505050158015612da4573d6000803e3d6000fd5b505b8073ffffffffffffffffffffffffffffffffffffffff166108fc869081150290604051600060405180830381858888f19350505050158015612dec573d6000803e3d6000fd5b503360028981548110612e0257612e01613ff1565b5b90600052602060002090600a020160070160006101000a81548173ffffffffffffffffffffffffffffffffffffffff021916908373ffffffffffffffffffffffffffffffffffffffff160217905550600060028981548110612e6757612e66613ff1565b5b90600052602060002090600a02016008018190555060006040518060c001604052808981526020018781526020018373ffffffffffffffffffffffffffffffffffffffff1681526020013373ffffffffffffffffffffffffffffffffffffffff16815260200142815260200186815250905060086000898152602001908152602001600020819080600181540180825580915050600190039060005260206000209060060201600090919091909150600082015181600001556020820151816001015560408201518160020160006101000a81548173ffffffffffffffffffffffffffffffffffffffff021916908373ffffffffffffffffffffffffffffffffffffffff16021790555060608201518160030160006101000a81548173ffffffffffffffffffffffffffffffffffffffff021916908373ffffffffffffffffffffffffffffffffffffffff1602179055506080820151816004015560a08201518160050155505060036000815480929190612fe190614449565b91905055507f33157a2d6e087f53ff6fc0edba4550aa6df53452ece435476cd3ab334ad50c348988868987873360405161302197969594939291906144c8565b60405180910390a1505050505050505050565b6000806004600084815260200190815260200160002060009054906101000a900473ffffffffffffffffffffffffffffffffffffffff169050600073ffffffffffffffffffffffffffffffffffffffff168173ffffffffffffffffffffffffffffffffffffffff161415915050919050565b60008273ffffffffffffffffffffffffffffffffffffffff166006600084815260200190815260200160002060009054906101000a900473ffffffffffffffffffffffffffffffffffffffff1673ffffffffffffffffffffffffffffffffffffffff1614905092915050565b600560008373ffffffffffffffffffffffffffffffffffffffff1673ffffffffffffffffffffffffffffffffffffffff1681526020019081526020016000206000815480929190613162906140b0565b9190505550600560008473ffffffffffffffffffffffffffffffffffffffff1673ffffffffffffffffffffffffffffffffffffffff16815260200190815260200160002060008154809291906131b790614449565b9190505550816004600083815260200190815260200160002060006101000a81548173ffffffffffffffffffffffffffffffffffffffff021916908373ffffffffffffffffffffffffffffffffffffffff160217905550808273ffffffffffffffffffffffffffffffffffffffff168473ffffffffffffffffffffffffffffffffffffffff167fddf252ad1be2c89b69c2b068fc378daa952ba7f163c4a11628f55a4df523b3ef60405160405180910390a4505050565b600073ffffffffffffffffffffffffffffffffffffffff168273ffffffffffffffffffffffffffffffffffffffff1614156132a857600080fd5b6132b181613034565b156132bb57600080fd5b816004600083815260200190815260200160002060006101000a81548173ffffffffffffffffffffffffffffffffffffffff021916908373ffffffffffffffffffffffffffffffffffffffff160217905550600560008373ffffffffffffffffffffffffffffffffffffffff1673ffffffffffffffffffffffffffffffffffffffff168152602001908152602001600020600081548092919061335d906140b0565b9190505550808273ffffffffffffffffffffffffffffffffffffffff16600073ffffffffffffffffffffffffffffffffffffffff167fddf252ad1be2c89b69c2b068fc378daa952ba7f163c4a11628f55a4df523b3ef60405160405180910390a45050565b8280546133ce9061404f565b90600052602060002090601f0160209004810192826133f05760008555613437565b82601f1061340957805160ff1916838001178555613437565b82800160010185558215613437579182015b8281111561343657825182559160200191906001019061341b565b5b5090506134449190613448565b5090565b5b80821115613461576000816000905550600101613449565b5090565b600081519050919050565b600082825260208201905092915050565b6000819050602082019050919050565b6000819050919050565b6134a481613491565b82525050565b60006134b6838361349b565b60208301905092915050565b6000602082019050919050565b60006134da82613465565b6134e48185613470565b93506134ef83613481565b8060005b8381101561352057815161350788826134aa565b9750613512836134c2565b9250506001810190506134f3565b5085935050505092915050565b600081519050919050565b600082825260208201905092915050565b6000819050602082019050919050565b600073ffffffffffffffffffffffffffffffffffffffff82169050919050565b600061358482613559565b9050919050565b61359481613579565b82525050565b60006135a6838361358b565b60208301905092915050565b6000602082019050919050565b60006135ca8261352d565b6135d48185613538565b93506135df83613549565b8060005b838110156136105781516135f7888261359a565b9750613602836135b2565b9250506001810190506135e3565b5085935050505092915050565b6000608082019050818103600083015261363781876134cf565b9050818103602083015261364b81866135bf565b9050818103604083015261365f81856135bf565b9050818103606083015261367381846134cf565b905095945050505050565b600081519050919050565b600082825260208201905092915050565b60005b838110156136b857808201518184015260208101905061369d565b838111156136c7576000848401525b50505050565b6000601f19601f8301169050919050565b60006136e98261367e565b6136f38185613689565b935061370381856020860161369a565b61370c816136cd565b840191505092915050565b6000602082019050818103600083015261373181846136de565b905092915050565b6000604051905090565b600080fd5b600080fd5b61375681613491565b811461376157600080fd5b50565b6000813590506137738161374d565b92915050565b60006020828403121561378f5761378e613743565b5b600061379d84828501613764565b91505092915050565b6137af81613579565b82525050565b60006020820190506137ca60008301846137a6565b92915050565b6137d981613579565b81146137e457600080fd5b50565b6000813590506137f6816137d0565b92915050565b6000806040838503121561381357613812613743565b5b6000613821858286016137e7565b925050602061383285828601613764565b9150509250929050565b60008060006060848603121561385557613854613743565b5b6000613863868287016137e7565b9350506020613874868287016137e7565b925050604061388586828701613764565b9150509250925092565b61389881613491565b82525050565b60006020820190506138b3600083018461388f565b92915050565b600080604083850312156138d0576138cf613743565b5b60006138de85828601613764565b92505060206138ef85828601613764565b9150509250929050565b60006020828403121561390f5761390e613743565b5b600061391d848285016137e7565b91505092915050565b6000806040838503121561393d5761393c613743565b5b600061394b85828601613764565b925050602061395c858286016137e7565b9150509250929050565b60008115159050919050565b61397b81613966565b82525050565b60006020820190506139966000830184613972565b92915050565b6139a581613966565b81146139b057600080fd5b50565b6000813590506139c28161399c565b92915050565b600080604083850312156139df576139de613743565b5b60006139ed858286016137e7565b92505060206139fe858286016139b3565b9150509250929050565b600080fd5b600080fd5b7f4e487b7100000000000000000000000000000000000000000000000000000000600052604160045260246000fd5b613a4a826136cd565b810181811067ffffffffffffffff82111715613a6957613a68613a12565b5b80604052505050565b6000613a7c613739565b9050613a888282613a41565b919050565b600067ffffffffffffffff821115613aa857613aa7613a12565b5b613ab1826136cd565b9050602081019050919050565b82818337600083830152505050565b6000613ae0613adb84613a8d565b613a72565b905082815260208101848484011115613afc57613afb613a0d565b5b613b07848285613abe565b509392505050565b600082601f830112613b2457613b23613a08565b5b8135613b34848260208601613acd565b91505092915050565b60008060008060808587031215613b5757613b56613743565b5b6000613b65878288016137e7565b9450506020613b76878288016137e7565b9350506040613b8787828801613764565b925050606085013567ffffffffffffffff811115613ba857613ba7613748565b5b613bb487828801613b0f565b91505092959194509250565b6000613bcb82613559565b9050919050565b613bdb81613bc0565b82525050565b600061014082019050613bf7600083018d61388f565b8181036020830152613c09818c6136de565b90508181036040830152613c1d818b6136de565b9050613c2c606083018a61388f565b613c39608083018961388f565b81810360a0830152613c4b81886136de565b905081810360c0830152613c5f81876136de565b9050613c6e60e08301866137a6565b613c7c610100830185613bd2565b818103610120830152613c8f81846136de565b90509b9a5050505050505050505050565b60006020820190508181036000830152613cba81846134cf565b905092915050565b600060a0820190508181036000830152613cdc81886134cf565b90508181036020830152613cf081876134cf565b90508181036040830152613d0481866135bf565b90508181036060830152613d1881856135bf565b90508181036080830152613d2c81846134cf565b90509695505050505050565b600067ffffffffffffffff821115613d5357613d52613a12565b5b613d5c826136cd565b9050602081019050919050565b6000613d7c613d7784613d38565b613a72565b905082815260208101848484011115613d9857613d97613a0d565b5b613da3848285613abe565b509392505050565b600082601f830112613dc057613dbf613a08565b5b8135613dd0848260208601613d69565b91505092915050565b60008060008060008060c08789031215613df657613df5613743565b5b600087013567ffffffffffffffff811115613e1457613e13613748565b5b613e2089828a01613dab565b965050602087013567ffffffffffffffff811115613e4157613e40613748565b5b613e4d89828a01613dab565b955050604087013567ffffffffffffffff811115613e6e57613e6d613748565b5b613e7a89828a01613dab565b945050606087013567ffffffffffffffff811115613e9b57613e9a613748565b5b613ea789828a01613dab565b9350506080613eb889828a01613764565b92505060a087013567ffffffffffffffff811115613ed957613ed8613748565b5b613ee589828a01613dab565b9150509295509295509295565b600061014082019050613f08600083018d61388f565b8181036020830152613f1a818c6136de565b90508181036040830152613f2e818b6136de565b9050613f3d606083018a61388f565b8181036080830152613f4f81896136de565b905081810360a0830152613f6381886136de565b9050613f7260c0830187613bd2565b613f7f60e0830186613bd2565b613f8d61010083018561388f565b818103610120830152613fa081846136de565b90509b9a5050505050505050505050565b60008060408385031215613fc857613fc7613743565b5b6000613fd6858286016137e7565b9250506020613fe7858286016137e7565b9150509250929050565b7f4e487b7100000000000000000000000000000000000000000000000000000000600052603260045260246000fd5b7f4e487b7100000000000000000000000000000000000000000000000000000000600052602260045260246000fd5b6000600282049050600182168061406757607f821691505b6020821081141561407b5761407a614020565b5b50919050565b7f4e487b7100000000000000000000000000000000000000000000000000000000600052601160045260246000fd5b60006140bb82613491565b91507fffffffffffffffffffffffffffffffffffffffffffffffffffffffffffffffff8214156140ee576140ed614081565b5b600182019050919050565b6000819050919050565b6000819050919050565b600061412861412361411e846140f9565b614103565b613491565b9050919050565b6141388161410d565b82525050565b6000606082019050614153600083018661388f565b614160602083018561412f565b61416d604083018461388f565b949350505050565b7f546865207469746c652063616e6e6f7420626520656d70747900000000000000600082015250565b60006141ab601983613689565b91506141b682614175565b602082019050919050565b600060208201905081810360008301526141da8161419e565b9050919050565b7f54686520446174652063616e6e6f7420626520656d7074790000000000000000600082015250565b6000614217601883613689565b9150614222826141e1565b602082019050919050565b600060208201905081810360008301526142468161420a565b9050919050565b7f546865206465736372697074696f6e2063616e6e6f7420626520656d70747900600082015250565b6000614283601f83613689565b915061428e8261424d565b602082019050919050565b600060208201905081810360008301526142b281614276565b9050919050565b7f5468652070726963652063616e6e6f7420626520656d70747900000000000000600082015250565b60006142ef601983613689565b91506142fa826142b9565b602082019050919050565b6000602082019050818103600083015261431e816142e2565b9050919050565b7f54686520696d6167652063616e6e6f7420626520656d70747900000000000000600082015250565b600061435b601983613689565b915061436682614325565b602082019050919050565b6000602082019050818103600083015261438a8161434e565b9050919050565b600061439c82613491565b91506143a783613491565b9250828210156143ba576143b9614081565b5b828203905092915050565b600060e0820190506143da600083018a61388f565b81810360208301526143ec81896136de565b9050818103604083015261440081886136de565b9050818103606083015261441481876136de565b9050614423608083018661388f565b61443060a08301856137a6565b61443d60c08301846137a6565b98975050505050505050565b600061445482613491565b9150600082141561446857614467614081565b5b600182039050919050565b600061448e61448961448484613559565b614103565b613559565b9050919050565b60006144a082614473565b9050919050565b60006144b282614495565b9050919050565b6144c2816144a7565b82525050565b600060e0820190506144dd600083018a61388f565b81810360208301526144ef81896136de565b9050818103604083015261450381886136de565b9050614512606083018761388f565b61451f60808301866137a6565b61452c60a08301856144b9565b61453960c08301846137a6565b9897505050505050505056fea2646970667358221220921b19c22cbcf9242b70da5561d1ade19cd12e695bff138d3e65f72f18083b5764736f6c63430008090033",
  "immutableReferences": {},
  "source": "// SPDX-License-Identifier: No License\npragma solidity ^0.8.9;\n\ninterface ERC721 {\n    event Transfer(\n        address indexed from,\n        address indexed to,\n        uint256 indexed tokenId\n    );\n\n    event Approval(\n        address indexed owner,\n        address indexed approved,\n        uint256 indexed tokenId\n    );\n\n    event ApprovalForAll(\n        address indexed owner,\n        address indexed operator,\n        bool approved\n    );\n\n    function balanceOf(address owner) external view returns (uint256 balance);\n\n    function ownerOf(uint256 tokenId) external view returns (address owner);\n\n    function approve(address to, uint256 tokenId) external;\n\n    function getApproved(\n        uint256 tokenId\n    ) external view returns (address operator);\n\n    function setApprovalForAll(address operator, bool _approved) external;\n\n    function isApprovedForAll(\n        address owner,\n        address operator\n    ) external view returns (bool);\n\n    function transferFrom(address from, address to, uint256 tokenId) external;\n\n    function safeTransferFrom(\n        address from,\n        address to,\n        uint256 tokenId\n    ) external;\n\n    function safeTransferFrom(\n        address from,\n        address to,\n        uint256 tokenId,\n        bytes memory data\n    ) external;\n}\n\ncontract DigitalArt is ERC721 {\n    string private _name;\n    string private _symbol;\n    Art[] public arts;\n    uint256 private pendingArtCount;\n    mapping(uint256 => address) private _tokenOwner;\n    mapping(address => uint256) private _ownedTokensCount;\n    mapping(uint256 => address) private _tokenApprovals;\n    mapping(address => mapping(address => bool)) private _operatorApprovals;\n    mapping(uint256 => ArtTxn[]) private artTxns;\n    uint256 public index;\n\n    struct Art {\n        uint256 id;\n        string title;\n        string description;\n        uint256 price;\n        string date;\n        string authorName;\n        address payable author;\n        address payable owner;\n        uint256 status;\n        string image;\n    }\n\n    struct ArtTxn {\n        uint256 id;\n        uint256 price;\n        address seller;\n        address buyer;\n        uint256 txnDate;\n        uint256 status;\n    }\n\n    event LogArtSold(\n        uint256 _tokenId,\n        string _title,\n        string _authorName,\n        uint256 _price,\n        address _author,\n        address _current_owner,\n        address _buyer\n    );\n\n    event LogArtTokenCreate(\n        uint256 _tokenId,\n        string _title,\n        string _category,\n        string _authorName,\n        uint256 _price,\n        address _author,\n        address _current_owner\n    );\n\n    event LogArtResell(uint256 _tokenId, uint256 _status, uint256 _price);\n\n    constructor(string memory name_, string memory symbol_) {\n        _name = name_;\n        _symbol = symbol_;\n    }\n\n    function name() external view returns (string memory) {\n        return _name;\n    }\n\n    function symbol() external view returns (string memory) {\n        return _symbol;\n    }\n\n    function createTokenAndSellArt(\n        string memory _title,\n        string memory _description,\n        string memory _date,\n        string memory _authorName,\n        uint256 _price,\n        string memory _image\n    ) public {\n        require(bytes(_title).length > 0, \"The title cannot be empty\");\n        require(bytes(_date).length > 0, \"The Date cannot be empty\");\n        require(\n            bytes(_description).length > 0,\n            \"The description cannot be empty\"\n        );\n        require(_price > 0, \"The price cannot be empty\");\n        require(bytes(_image).length > 0, \"The image cannot be empty\");\n\n        Art memory _art = Art({\n            id: index,\n            title: _title,\n            description: _description,\n            price: _price,\n            date: _date,\n            authorName: _authorName,\n            author: payable(msg.sender),\n            owner: payable(msg.sender),\n            status: 1,\n            image: _image\n        });\n        arts.push(_art);\n        uint256 tokenId = arts.length - 1;\n        _mint(msg.sender, tokenId);\n        emit LogArtTokenCreate(\n            tokenId,\n            _title,\n            _date,\n            _authorName,\n            _price,\n            msg.sender,\n            msg.sender\n        );\n        index++;\n        pendingArtCount++;\n    }\n\n    function buyArt(uint256 _tokenId) public payable {\n        (\n            uint256 _id,\n            string memory _title,\n            ,\n            uint256 _price,\n            uint256 _status,\n            ,\n            string memory _authorName,\n            address _author,\n            address payable _current_owner,\n\n        ) = findArt(_tokenId);\n\n        require(_current_owner != address(0));\n        require(msg.sender != address(0));\n        require(msg.sender != _current_owner);\n        require(msg.value >= _price);\n        require(arts[_tokenId].owner != address(0));\n\n        //transfer ownership of art\n        _transfer(_current_owner, msg.sender, _tokenId);\n        //return extra payment\n        if (msg.value > _price)\n            payable(msg.sender).transfer(msg.value - _price);\n        //make a payment\n        _current_owner.transfer(_price);\n        arts[_tokenId].owner = payable(msg.sender);\n        arts[_tokenId].status = 0;\n        ArtTxn memory _artTxn = ArtTxn({\n            id: _id,\n            price: _price,\n            seller: _current_owner,\n            buyer: msg.sender,\n            txnDate: block.timestamp,\n            status: _status\n        });\n        artTxns[_id].push(_artTxn);\n        pendingArtCount--;\n\n        emit LogArtSold(\n            _tokenId,\n            _title,\n            _authorName,\n            _price,\n            _author,\n            _current_owner,\n            msg.sender\n        );\n    }\n\n    function resellArt(uint256 _tokenId, uint256 _price) public payable {\n        require(msg.sender != address(0));\n        require(isOwnerOf(_tokenId, msg.sender));\n\n        arts[_tokenId].status = 1;\n        arts[_tokenId].price = _price;\n        pendingArtCount++;\n        emit LogArtResell(_tokenId, 1, _price);\n    }\n\n    function findArt(\n        uint256 _tokenId\n    )\n        public\n        view\n        returns (\n            uint256,\n            string memory,\n            string memory,\n            uint256,\n            uint256 status,\n            string memory,\n            string memory,\n            address,\n            address payable,\n            string memory\n        )\n    {\n        Art memory art = arts[_tokenId];\n        return (\n            art.id,\n            art.title,\n            art.description,\n            art.price,\n            art.status,\n            art.date,\n            art.authorName,\n            art.author,\n            art.owner,\n            art.image\n        );\n    }\n\n    function findAllArt()\n        public\n        view\n        returns (\n            uint256[] memory,\n            address[] memory,\n            address[] memory,\n            uint256[] memory\n        )\n    {\n        uint256 arrLength = arts.length;\n        uint256[] memory ids = new uint256[](arrLength);\n        address[] memory authors = new address[](arrLength);\n        address[] memory owners = new address[](arrLength);\n        uint256[] memory status = new uint256[](arrLength);\n        for (uint256 i = 0; i < arrLength; ++i) {\n            Art memory art = arts[i];\n            ids[i] = art.id;\n            authors[i] = art.author;\n            owners[i] = art.owner;\n            status[i] = art.status;\n        }\n        return (ids, authors, owners, status);\n    }\n\n    function findAllPendingArt()\n        public\n        view\n        returns (\n            uint256[] memory,\n            address[] memory,\n            address[] memory,\n            uint256[] memory\n        )\n    {\n        if (pendingArtCount == 0) {\n            return (\n                new uint256[](0),\n                new address[](0),\n                new address[](0),\n                new uint256[](0)\n            );\n        } else {\n            uint256 arrLength = arts.length;\n            uint256[] memory ids = new uint256[](pendingArtCount);\n            address[] memory authors = new address[](pendingArtCount);\n            address[] memory owners = new address[](pendingArtCount);\n            uint256[] memory status = new uint256[](pendingArtCount);\n            uint256 idx = 0;\n            for (uint256 i = 0; i < arrLength; ++i) {\n                Art memory art = arts[i];\n                if (art.status == 1) {\n                    ids[idx] = art.id;\n                    authors[idx] = art.author;\n                    owners[idx] = art.owner;\n                    status[idx] = art.status;\n                    idx++;\n                }\n            }\n            return (ids, authors, owners, status);\n        }\n    }\n\n    function findMyArts() public view returns (uint256[] memory _myArts) {\n        require(msg.sender != address(0));\n\n        uint256 numOftokens = balanceOf(msg.sender);\n        if (numOftokens == 0) {\n            return new uint256[](0);\n        } else {\n            uint256[] memory myArts = new uint256[](numOftokens);\n            uint256 idx = 0;\n            uint256 arrLength = arts.length;\n            for (uint256 i = 0; i < arrLength; i++) {\n                if (_tokenOwner[i] == msg.sender) {\n                    myArts[idx] = i;\n                    idx++;\n                }\n            }\n            return myArts;\n        }\n    }\n\n    function getArtAllTxn(\n        uint256 _tokenId\n    )\n        public\n        view\n        returns (\n            uint256[] memory _id,\n            uint256[] memory _price,\n            address[] memory seller,\n            address[] memory buyer,\n            uint256[] memory _txnDate\n        )\n    {\n        ArtTxn[] memory artTxnList = artTxns[_tokenId];\n        uint256 arrLength = artTxnList.length;\n        uint256[] memory ids = new uint256[](arrLength);\n        uint256[] memory prices = new uint256[](arrLength);\n        address[] memory sellers = new address[](arrLength);\n        address[] memory buyers = new address[](arrLength);\n        uint256[] memory txnDates = new uint256[](arrLength);\n        for (uint256 i = 0; i < artTxnList.length; ++i) {\n            ArtTxn memory artTxn = artTxnList[i];\n            ids[i] = artTxn.id;\n            prices[i] = artTxn.price;\n            sellers[i] = artTxn.seller;\n            buyers[i] = artTxn.buyer;\n            txnDates[i] = artTxn.txnDate;\n        }\n        return (ids, prices, sellers, buyers, txnDates);\n    }\n\n    function _transfer(address _from, address _to, uint256 _tokenId) private {\n        _ownedTokensCount[_to]++;\n        _ownedTokensCount[_from]--;\n        _tokenOwner[_tokenId] = _to;\n        emit Transfer(_from, _to, _tokenId);\n    }\n\n    function _mint(address _to, uint256 tokenId) internal {\n        require(_to != address(0));\n        require(!_exists(tokenId));\n        _tokenOwner[tokenId] = _to;\n        _ownedTokensCount[_to]++;\n        emit Transfer(address(0), _to, tokenId);\n    }\n\n    function _exists(uint256 tokenId) internal view returns (bool) {\n        address owner = _tokenOwner[tokenId];\n        return owner != address(0);\n    }\n\n    function balanceOf(address _owner) public view returns (uint256) {\n        return _ownedTokensCount[_owner];\n    }\n\n    function ownerOf(uint256 _tokenId) public view returns (address _owner) {\n        _owner = _tokenOwner[_tokenId];\n    }\n\n    function approve(address _to, uint256 _tokenId) public {\n        require(isOwnerOf(_tokenId, msg.sender));\n        _tokenApprovals[_tokenId] = _to;\n        emit Approval(msg.sender, _to, _tokenId);\n    }\n\n    function transferFrom(address _from, address _to, uint256 _tokenId) public {\n        require(_to != address(0));\n        require(isOwnerOf(_tokenId, _from));\n        require(isApproved(_to, _tokenId));\n        _transfer(_from, _to, _tokenId);\n    }\n\n    function transfer(address _to, uint256 _tokenId) public {\n        require(_to != address(0));\n        require(isOwnerOf(_tokenId, msg.sender));\n        _transfer(msg.sender, _to, _tokenId);\n    }\n\n    function getApproved(\n        uint256 tokenId\n    ) public view returns (address operator) {\n        require(_exists(tokenId));\n        return _tokenApprovals[tokenId];\n    }\n\n    function setApprovalForAll(address operator, bool _approved) public {\n        require(operator != msg.sender);\n        _operatorApprovals[msg.sender][operator] = _approved;\n        emit ApprovalForAll(msg.sender, operator, _approved);\n    }\n\n    function isApprovedForAll(\n        address owner,\n        address operator\n    ) public view returns (bool) {\n        return _operatorApprovals[owner][operator];\n    }\n\n    function safeTransferFrom(\n        address from,\n        address to,\n        uint256 tokenId\n    ) public {\n        // NOT IMPLEMENTED\n    }\n\n    function safeTransferFrom(\n        address from,\n        address to,\n        uint256 tokenId,\n        bytes memory data\n    ) public {\n        // NOT IMPLEMENTED\n    }\n\n    function isOwnerOf(\n        uint256 tokenId,\n        address account\n    ) public view returns (bool) {\n        address owner = _tokenOwner[tokenId];\n        require(owner != address(0));\n        return owner == account;\n    }\n\n    function isApproved(\n        address _to,\n        uint256 _tokenId\n    ) private view returns (bool) {\n        return _tokenApprovals[_tokenId] == _to;\n    }\n}\n",
  "sourcePath": "/home/shkwon/Projects/Learn_Ethereum/chapter10/DigitalArtERC721Token/contracts/DigitalArt.sol",
  "compiler": {
    "name": "solc",
    "version": "0.8.9+commit.e5eed63a.Emscripten.clang"
  },
  "schemaVersion": "3.4.16",
  "updatedAt": "2023-12-22T07:59:28.310Z",
  "devdoc": {
    "kind": "dev",
    "methods": {},
    "version": 1
  },
  "userdoc": {
    "kind": "user",
    "methods": {},
    "version": 1
  }
}