{
  "_format": "hh-sol-artifact-1",
  "contractName": "GameToken",
  "sourceName": "contracts/GameToken.sol",
  "abi": [
    {
      "inputs": [
        {
          "internalType": "address[]",
          "name": "payees",
          "type": "address[]"
        },
        {
          "internalType": "uint256[]",
          "name": "shares",
          "type": "uint256[]"
        },
        {
          "internalType": "uint256",
          "name": "_price",
          "type": "uint256"
        }
      ],
      "stateMutability": "nonpayable",
      "type": "constructor"
    },
    {
      "anonymous": false,
      "inputs": [
        {
          "indexed": true,
          "internalType": "address",
          "name": "owner",
          "type": "address"
        },
        {
          "indexed": true,
          "internalType": "address",
          "name": "approved",
          "type": "address"
        },
        {
          "indexed": true,
          "internalType": "uint256",
          "name": "tokenId",
          "type": "uint256"
        }
      ],
      "name": "Approval",
      "type": "event"
    },
    {
      "anonymous": false,
      "inputs": [
        {
          "indexed": true,
          "internalType": "address",
          "name": "owner",
          "type": "address"
        },
        {
          "indexed": true,
          "internalType": "address",
          "name": "operator",
          "type": "address"
        },
        {
          "indexed": false,
          "internalType": "bool",
          "name": "approved",
          "type": "bool"
        }
      ],
      "name": "ApprovalForAll",
      "type": "event"
    },
    {
      "anonymous": false,
      "inputs": [
        {
          "indexed": true,
          "internalType": "address",
          "name": "previousOwner",
          "type": "address"
        },
        {
          "indexed": true,
          "internalType": "address",
          "name": "newOwner",
          "type": "address"
        }
      ],
      "name": "OwnershipTransferred",
      "type": "event"
    },
    {
      "anonymous": false,
      "inputs": [
        {
          "indexed": true,
          "internalType": "address",
          "name": "from",
          "type": "address"
        },
        {
          "indexed": true,
          "internalType": "address",
          "name": "to",
          "type": "address"
        },
        {
          "indexed": true,
          "internalType": "uint256",
          "name": "tokenId",
          "type": "uint256"
        }
      ],
      "name": "Transfer",
      "type": "event"
    },
    {
      "inputs": [
        {
          "internalType": "address",
          "name": "to",
          "type": "address"
        },
        {
          "internalType": "uint256",
          "name": "tokenId",
          "type": "uint256"
        }
      ],
      "name": "approve",
      "outputs": [],
      "stateMutability": "nonpayable",
      "type": "function"
    },
    {
      "inputs": [
        {
          "internalType": "address",
          "name": "owner",
          "type": "address"
        }
      ],
      "name": "balanceOf",
      "outputs": [
        {
          "internalType": "uint256",
          "name": "",
          "type": "uint256"
        }
      ],
      "stateMutability": "view",
      "type": "function"
    },
    {
      "inputs": [
        {
          "internalType": "uint256",
          "name": "tokenId",
          "type": "uint256"
        }
      ],
      "name": "getApproved",
      "outputs": [
        {
          "internalType": "address",
          "name": "",
          "type": "address"
        }
      ],
      "stateMutability": "view",
      "type": "function"
    },
    {
      "inputs": [
        {
          "internalType": "address",
          "name": "owner",
          "type": "address"
        },
        {
          "internalType": "address",
          "name": "operator",
          "type": "address"
        }
      ],
      "name": "isApprovedForAll",
      "outputs": [
        {
          "internalType": "bool",
          "name": "",
          "type": "bool"
        }
      ],
      "stateMutability": "view",
      "type": "function"
    },
    {
      "inputs": [],
      "name": "name",
      "outputs": [
        {
          "internalType": "string",
          "name": "",
          "type": "string"
        }
      ],
      "stateMutability": "view",
      "type": "function"
    },
    {
      "inputs": [],
      "name": "owner",
      "outputs": [
        {
          "internalType": "address",
          "name": "",
          "type": "address"
        }
      ],
      "stateMutability": "view",
      "type": "function"
    },
    {
      "inputs": [
        {
          "internalType": "uint256",
          "name": "tokenId",
          "type": "uint256"
        }
      ],
      "name": "ownerOf",
      "outputs": [
        {
          "internalType": "address",
          "name": "",
          "type": "address"
        }
      ],
      "stateMutability": "view",
      "type": "function"
    },
    {
      "inputs": [],
      "name": "price",
      "outputs": [
        {
          "internalType": "uint256",
          "name": "",
          "type": "uint256"
        }
      ],
      "stateMutability": "view",
      "type": "function"
    },
    {
      "inputs": [
        {
          "internalType": "address payable",
          "name": "account",
          "type": "address"
        }
      ],
      "name": "release",
      "outputs": [],
      "stateMutability": "nonpayable",
      "type": "function"
    },
    {
      "inputs": [],
      "name": "renounceOwnership",
      "outputs": [],
      "stateMutability": "nonpayable",
      "type": "function"
    },
    {
      "inputs": [
        {
          "internalType": "address",
          "name": "from",
          "type": "address"
        },
        {
          "internalType": "address",
          "name": "to",
          "type": "address"
        },
        {
          "internalType": "uint256",
          "name": "tokenId",
          "type": "uint256"
        }
      ],
      "name": "safeTransferFrom",
      "outputs": [],
      "stateMutability": "nonpayable",
      "type": "function"
    },
    {
      "inputs": [
        {
          "internalType": "address",
          "name": "from",
          "type": "address"
        },
        {
          "internalType": "address",
          "name": "to",
          "type": "address"
        },
        {
          "internalType": "uint256",
          "name": "tokenId",
          "type": "uint256"
        },
        {
          "internalType": "bytes",
          "name": "data",
          "type": "bytes"
        }
      ],
      "name": "safeTransferFrom",
      "outputs": [],
      "stateMutability": "nonpayable",
      "type": "function"
    },
    {
      "inputs": [
        {
          "internalType": "address",
          "name": "operator",
          "type": "address"
        },
        {
          "internalType": "bool",
          "name": "approved",
          "type": "bool"
        }
      ],
      "name": "setApprovalForAll",
      "outputs": [],
      "stateMutability": "nonpayable",
      "type": "function"
    },
    {
      "inputs": [],
      "name": "splitPayments",
      "outputs": [],
      "stateMutability": "payable",
      "type": "function"
    },
    {
      "inputs": [
        {
          "internalType": "bytes4",
          "name": "interfaceId",
          "type": "bytes4"
        }
      ],
      "name": "supportsInterface",
      "outputs": [
        {
          "internalType": "bool",
          "name": "",
          "type": "bool"
        }
      ],
      "stateMutability": "view",
      "type": "function"
    },
    {
      "inputs": [],
      "name": "symbol",
      "outputs": [
        {
          "internalType": "string",
          "name": "",
          "type": "string"
        }
      ],
      "stateMutability": "view",
      "type": "function"
    },
    {
      "inputs": [
        {
          "internalType": "uint256",
          "name": "tokenId",
          "type": "uint256"
        }
      ],
      "name": "tokenURI",
      "outputs": [
        {
          "internalType": "string",
          "name": "",
          "type": "string"
        }
      ],
      "stateMutability": "view",
      "type": "function"
    },
    {
      "inputs": [
        {
          "internalType": "address",
          "name": "from",
          "type": "address"
        },
        {
          "internalType": "address",
          "name": "to",
          "type": "address"
        },
        {
          "internalType": "uint256",
          "name": "tokenId",
          "type": "uint256"
        }
      ],
      "name": "transferFrom",
      "outputs": [],
      "stateMutability": "nonpayable",
      "type": "function"
    },
    {
      "inputs": [
        {
          "internalType": "address",
          "name": "newOwner",
          "type": "address"
        }
      ],
      "name": "transferOwnership",
      "outputs": [],
      "stateMutability": "nonpayable",
      "type": "function"
    }
  ],
  "bytecode": "0x60806040523480156200001157600080fd5b5060405162002b4138038062002b41833981016040819052620000349162000305565b604080518082018252600981526823b0b6b2aa37b5b2b760b91b60208083019182528351808501909452600284526111d560f21b9084015281519192916200007f916000916200016f565b508051620000959060019060208401906200016f565b505050620000b2620000ac6200011960201b60201c565b6200011d565b8282604051620000c290620001fe565b620000cf929190620003ec565b604051809103906000f080158015620000ec573d6000803e3d6000fd5b50600780546001600160a01b0319166001600160a01b039290921691909117905560085550620004b19050565b3390565b600680546001600160a01b038381166001600160a01b0319831681179093556040519116919082907f8be0079c531659141344cd1fd0a4f28419497f9722a3daafe3b4186f6b6457e090600090a35050565b8280546200017d9062000474565b90600052602060002090601f016020900481019282620001a15760008555620001ec565b82601f10620001bc57805160ff1916838001178555620001ec565b82800160010185558215620001ec579182015b82811115620001ec578251825591602001919060010190620001cf565b50620001fa9291506200020c565b5090565b6111eb806200195683390190565b5b80821115620001fa57600081556001016200020d565b634e487b7160e01b600052604160045260246000fd5b604051601f8201601f191681016001600160401b038111828210171562000264576200026462000223565b604052919050565b60006001600160401b0382111562000288576200028862000223565b5060051b60200190565b600082601f830112620002a457600080fd5b81516020620002bd620002b7836200026c565b62000239565b82815260059290921b84018101918181019086841115620002dd57600080fd5b8286015b84811015620002fa5780518352918301918301620002e1565b509695505050505050565b6000806000606084860312156200031b57600080fd5b83516001600160401b03808211156200033357600080fd5b818601915086601f8301126200034857600080fd5b815160206200035b620002b7836200026c565b82815260059290921b8401810191818101908a8411156200037b57600080fd5b948201945b83861015620003b25785516001600160a01b0381168114620003a25760008081fd5b8252948201949082019062000380565b91890151919750909350505080821115620003cc57600080fd5b50620003db8682870162000292565b925050604084015190509250925092565b604080825283519082018190526000906020906060840190828701845b82811015620004305781516001600160a01b03168452928401929084019060010162000409565b5050508381038285015284518082528583019183019060005b81811015620004675783518352928401929184019160010162000449565b5090979650505050505050565b600181811c908216806200048957607f821691505b60208210811415620004ab57634e487b7160e01b600052602260045260246000fd5b50919050565b61149580620004c16000396000f3fe6080604052600436106101145760003560e01c806370a08231116100a0578063a22cb46511610064578063a22cb465146102de578063b88d4fde146102fe578063c87b56dd1461031e578063e985e9c51461033e578063f2fde38b1461038757600080fd5b806370a0823114610252578063715018a6146102805780638da5cb5b1461029557806395d89b41146102b3578063a035b1fe146102c857600080fd5b806319165587116100e757806319165587146101ca57806323b872dd146101ea57806342842e0e1461020a5780636352211e1461022a578063706c1e6f1461024a57600080fd5b806301ffc9a71461011957806306fdde031461014e578063081812fc14610170578063095ea7b3146101a8575b600080fd5b34801561012557600080fd5b50610139610134366004611016565b6103a7565b60405190151581526020015b60405180910390f35b34801561015a57600080fd5b506101636103f9565b604051610145919061108b565b34801561017c57600080fd5b5061019061018b36600461109e565b61048b565b6040516001600160a01b039091168152602001610145565b3480156101b457600080fd5b506101c86101c33660046110cc565b6104b2565b005b3480156101d657600080fd5b506101c86101e53660046110f8565b6105cd565b3480156101f657600080fd5b506101c8610205366004611115565b61062f565b34801561021657600080fd5b506101c8610225366004611115565b610660565b34801561023657600080fd5b5061019061024536600461109e565b61067b565b6101c86106db565b34801561025e57600080fd5b5061027261026d3660046110f8565b610746565b604051908152602001610145565b34801561028c57600080fd5b506101c86107cc565b3480156102a157600080fd5b506006546001600160a01b0316610190565b3480156102bf57600080fd5b506101636107e0565b3480156102d457600080fd5b5061027260085481565b3480156102ea57600080fd5b506101c86102f9366004611156565b6107ef565b34801561030a57600080fd5b506101c86103193660046111aa565b6107fe565b34801561032a57600080fd5b5061016361033936600461109e565b610836565b34801561034a57600080fd5b5061013961035936600461128a565b6001600160a01b03918216600090815260056020908152604080832093909416825291909152205460ff1690565b34801561039357600080fd5b506101c86103a23660046110f8565b6108aa565b60006001600160e01b031982166380ac58cd60e01b14806103d857506001600160e01b03198216635b5e139f60e01b145b806103f357506301ffc9a760e01b6001600160e01b03198316145b92915050565b606060008054610408906112b8565b80601f0160208091040260200160405190810160405280929190818152602001828054610434906112b8565b80156104815780601f1061045657610100808354040283529160200191610481565b820191906000526020600020905b81548152906001019060200180831161046457829003601f168201915b5050505050905090565b600061049682610920565b506000908152600460205260409020546001600160a01b031690565b60006104bd8261067b565b9050806001600160a01b0316836001600160a01b031614156105305760405162461bcd60e51b815260206004820152602160248201527f4552433732313a20617070726f76616c20746f2063757272656e74206f776e656044820152603960f91b60648201526084015b60405180910390fd5b336001600160a01b038216148061054c575061054c8133610359565b6105be5760405162461bcd60e51b815260206004820152603d60248201527f4552433732313a20617070726f76652063616c6c6572206973206e6f7420746f60448201527f6b656e206f776e6572206f7220617070726f76656420666f7220616c6c0000006064820152608401610527565b6105c8838361097f565b505050565b600754604051631916558760e01b81526001600160a01b03838116600483015290911690631916558790602401600060405180830381600087803b15801561061457600080fd5b505af1158015610628573d6000803e3d6000fd5b5050505050565b61063933826109ed565b6106555760405162461bcd60e51b8152600401610527906112f3565b6105c8838383610a6c565b6105c8838383604051806020016040528060008152506107fe565b6000818152600260205260408120546001600160a01b0316806103f35760405162461bcd60e51b8152602060048201526018602482015277115490cdcc8c4e881a5b9d985b1a59081d1bdad95b88125160421b6044820152606401610527565b6106e3610bd0565b6007546040516000916001600160a01b03169047908381818185875af1925050503d8060008114610730576040519150601f19603f3d011682016040523d82523d6000602084013e610735565b606091505b505090508061074357600080fd5b50565b60006001600160a01b0382166107b05760405162461bcd60e51b815260206004820152602960248201527f4552433732313a2061646472657373207a65726f206973206e6f7420612076616044820152683634b21037bbb732b960b91b6064820152608401610527565b506001600160a01b031660009081526003602052604090205490565b6107d4610bd0565b6107de6000610c2a565b565b606060018054610408906112b8565b6107fa338383610c7c565b5050565b61080833836109ed565b6108245760405162461bcd60e51b8152600401610527906112f3565b61083084848484610d4b565b50505050565b606061084182610920565b600061085860408051602081019091526000815290565b9050600081511161087857604051806020016040528060008152506108a3565b8061088284610d7e565b604051602001610893929190611340565b6040516020818303038152906040525b9392505050565b6108b2610bd0565b6001600160a01b0381166109175760405162461bcd60e51b815260206004820152602660248201527f4f776e61626c653a206e6577206f776e657220697320746865207a65726f206160448201526564647265737360d01b6064820152608401610527565b61074381610c2a565b6000818152600260205260409020546001600160a01b03166107435760405162461bcd60e51b8152602060048201526018602482015277115490cdcc8c4e881a5b9d985b1a59081d1bdad95b88125160421b6044820152606401610527565b600081815260046020526040902080546001600160a01b0319166001600160a01b03841690811790915581906109b48261067b565b6001600160a01b03167f8c5be1e5ebec7d5bd14f71427d1e84f3dd0314c0f7b2291e5b200ac8c7c3b92560405160405180910390a45050565b6000806109f98361067b565b9050806001600160a01b0316846001600160a01b03161480610a4057506001600160a01b0380821660009081526005602090815260408083209388168352929052205460ff165b80610a645750836001600160a01b0316610a598461048b565b6001600160a01b0316145b949350505050565b826001600160a01b0316610a7f8261067b565b6001600160a01b031614610aa55760405162461bcd60e51b81526004016105279061136f565b6001600160a01b038216610b075760405162461bcd60e51b8152602060048201526024808201527f4552433732313a207472616e7366657220746f20746865207a65726f206164646044820152637265737360e01b6064820152608401610527565b826001600160a01b0316610b1a8261067b565b6001600160a01b031614610b405760405162461bcd60e51b81526004016105279061136f565b600081815260046020908152604080832080546001600160a01b03199081169091556001600160a01b0387811680865260038552838620805460001901905590871680865283862080546001019055868652600290945282852080549092168417909155905184937fddf252ad1be2c89b69c2b068fc378daa952ba7f163c4a11628f55a4df523b3ef91a4505050565b6006546001600160a01b031633146107de5760405162461bcd60e51b815260206004820181905260248201527f4f776e61626c653a2063616c6c6572206973206e6f7420746865206f776e65726044820152606401610527565b600680546001600160a01b038381166001600160a01b0319831681179093556040519116919082907f8be0079c531659141344cd1fd0a4f28419497f9722a3daafe3b4186f6b6457e090600090a35050565b816001600160a01b0316836001600160a01b03161415610cde5760405162461bcd60e51b815260206004820152601960248201527f4552433732313a20617070726f766520746f2063616c6c6572000000000000006044820152606401610527565b6001600160a01b03838116600081815260056020908152604080832094871680845294825291829020805460ff191686151590811790915591519182527f17307eab39ab6107e8899845ad3d59bd9653f200f220920489ca2b5937696c31910160405180910390a3505050565b610d56848484610a6c565b610d6284848484610e1b565b6108305760405162461bcd60e51b8152600401610527906113b4565b60606000610d8b83610f28565b600101905060008167ffffffffffffffff811115610dab57610dab611194565b6040519080825280601f01601f191660200182016040528015610dd5576020820181803683370190505b5090508181016020015b600019016f181899199a1a9b1b9c1cb0b131b232b360811b600a86061a8153600a8504945084610e0e57610e13565b610ddf565b509392505050565b60006001600160a01b0384163b15610f1d57604051630a85bd0160e11b81526001600160a01b0385169063150b7a0290610e5f903390899088908890600401611406565b602060405180830381600087803b158015610e7957600080fd5b505af1925050508015610ea9575060408051601f3d908101601f19168201909252610ea691810190611442565b60015b610f03573d808015610ed7576040519150601f19603f3d011682016040523d82523d6000602084013e610edc565b606091505b508051610efb5760405162461bcd60e51b8152600401610527906113b4565b805181602001fd5b6001600160e01b031916630a85bd0160e11b149050610a64565b506001949350505050565b60008072184f03e93ff9f4daa797ed6e38ed64bf6a1f0160401b8310610f675772184f03e93ff9f4daa797ed6e38ed64bf6a1f0160401b830492506040015b6d04ee2d6d415b85acef81000000008310610f93576d04ee2d6d415b85acef8100000000830492506020015b662386f26fc100008310610fb157662386f26fc10000830492506010015b6305f5e1008310610fc9576305f5e100830492506008015b6127108310610fdd57612710830492506004015b60648310610fef576064830492506002015b600a83106103f35760010192915050565b6001600160e01b03198116811461074357600080fd5b60006020828403121561102857600080fd5b81356108a381611000565b60005b8381101561104e578181015183820152602001611036565b838111156108305750506000910152565b60008151808452611077816020860160208601611033565b601f01601f19169290920160200192915050565b6020815260006108a3602083018461105f565b6000602082840312156110b057600080fd5b5035919050565b6001600160a01b038116811461074357600080fd5b600080604083850312156110df57600080fd5b82356110ea816110b7565b946020939093013593505050565b60006020828403121561110a57600080fd5b81356108a3816110b7565b60008060006060848603121561112a57600080fd5b8335611135816110b7565b92506020840135611145816110b7565b929592945050506040919091013590565b6000806040838503121561116957600080fd5b8235611174816110b7565b91506020830135801515811461118957600080fd5b809150509250929050565b634e487b7160e01b600052604160045260246000fd5b600080600080608085870312156111c057600080fd5b84356111cb816110b7565b935060208501356111db816110b7565b925060408501359150606085013567ffffffffffffffff808211156111ff57600080fd5b818701915087601f83011261121357600080fd5b81358181111561122557611225611194565b604051601f8201601f19908116603f0116810190838211818310171561124d5761124d611194565b816040528281528a602084870101111561126657600080fd5b82602086016020830137600060208483010152809550505050505092959194509250565b6000806040838503121561129d57600080fd5b82356112a8816110b7565b91506020830135611189816110b7565b600181811c908216806112cc57607f821691505b602082108114156112ed57634e487b7160e01b600052602260045260246000fd5b50919050565b6020808252602d908201527f4552433732313a2063616c6c6572206973206e6f7420746f6b656e206f776e6560408201526c1c881bdc88185c1c1c9bdd9959609a1b606082015260800190565b60008351611352818460208801611033565b835190830190611366818360208801611033565b01949350505050565b60208082526025908201527f4552433732313a207472616e736665722066726f6d20696e636f72726563742060408201526437bbb732b960d91b606082015260800190565b60208082526032908201527f4552433732313a207472616e7366657220746f206e6f6e20455243373231526560408201527131b2b4bb32b91034b6b83632b6b2b73a32b960711b606082015260800190565b60006001600160a01b03808716835280861660208401525083604083015260806060830152611438608083018461105f565b9695505050505050565b60006020828403121561145457600080fd5b81516108a38161100056fea264697066735822122000e9fd160b66d6274830fb19f19446176a2125d5c092b4de0bc5620e2da3731164736f6c634300080900336080604052604051620011eb380380620011eb83398101604081905262000026916200042e565b8051825114620000985760405162461bcd60e51b815260206004820152603260248201527f5061796d656e7453706c69747465723a2070617965657320616e6420736861726044820152710cae640d8cadccee8d040dad2e6dac2e8c6d60731b60648201526084015b60405180910390fd5b6000825111620000eb5760405162461bcd60e51b815260206004820152601a60248201527f5061796d656e7453706c69747465723a206e6f2070617965657300000000000060448201526064016200008f565b60005b82518110156200015757620001428382815181106200011157620001116200050c565b60200260200101518383815181106200012e576200012e6200050c565b60200260200101516200016060201b60201c565b806200014e8162000538565b915050620000ee565b50505062000571565b6001600160a01b038216620001cd5760405162461bcd60e51b815260206004820152602c60248201527f5061796d656e7453706c69747465723a206163636f756e74206973207468652060448201526b7a65726f206164647265737360a01b60648201526084016200008f565b600081116200021f5760405162461bcd60e51b815260206004820152601d60248201527f5061796d656e7453706c69747465723a2073686172657320617265203000000060448201526064016200008f565b6001600160a01b038216600090815260026020526040902054156200029b5760405162461bcd60e51b815260206004820152602b60248201527f5061796d656e7453706c69747465723a206163636f756e7420616c726561647960448201526a206861732073686172657360a81b60648201526084016200008f565b60048054600181019091557f8a35acfbc15ff81a39ae7d344fd709f28e8600b4aa8c65c6b64bfe7fe36bd19b0180546001600160a01b0319166001600160a01b0384169081179091556000908152600260205260408120829055546200030390829062000556565b600055604080516001600160a01b0384168152602081018390527f40c340f65e17194d14ddddb073d3c9f888e3cb52b5aae0c6c7706b4fbc905fac910160405180910390a15050565b634e487b7160e01b600052604160045260246000fd5b604051601f8201601f191681016001600160401b03811182821017156200038d576200038d6200034c565b604052919050565b60006001600160401b03821115620003b157620003b16200034c565b5060051b60200190565b600082601f830112620003cd57600080fd5b81516020620003e6620003e08362000395565b62000362565b82815260059290921b840181019181810190868411156200040657600080fd5b8286015b848110156200042357805183529183019183016200040a565b509695505050505050565b600080604083850312156200044257600080fd5b82516001600160401b03808211156200045a57600080fd5b818501915085601f8301126200046f57600080fd5b8151602062000482620003e08362000395565b82815260059290921b84018101918181019089841115620004a257600080fd5b948201945b83861015620004d95785516001600160a01b0381168114620004c95760008081fd5b82529482019490820190620004a7565b91880151919650909350505080821115620004f357600080fd5b506200050285828601620003bb565b9150509250929050565b634e487b7160e01b600052603260045260246000fd5b634e487b7160e01b600052601160045260246000fd5b60006000198214156200054f576200054f62000522565b5060010190565b600082198211156200056c576200056c62000522565b500190565b610c6a80620005816000396000f3fe6080604052600436106100b05760003560e01c80639852595c11610074578063ce7c2ac21161004e578063ce7c2ac214610258578063d79779b21461028e578063e33b7de3146102c457600080fd5b80639852595c146101e2578063a3f8eace14610218578063c45ac0501461023857600080fd5b806319165587146100fe5780633a98ef3914610120578063406072a91461014457806348b750441461018a5780638b83209b146101aa57600080fd5b366100f9577f6ef95f06320e7a25a04a175ca677b7052bdd97131872c2192525a629f51be77033604080516001600160a01b0390921682523460208301520160405180910390a1005b600080fd5b34801561010a57600080fd5b5061011e6101193660046109de565b6102d9565b005b34801561012c57600080fd5b506000545b6040519081526020015b60405180910390f35b34801561015057600080fd5b5061013161015f3660046109fb565b6001600160a01b03918216600090815260066020908152604080832093909416825291909152205490565b34801561019657600080fd5b5061011e6101a53660046109fb565b6103c6565b3480156101b657600080fd5b506101ca6101c5366004610a34565b6104d4565b6040516001600160a01b03909116815260200161013b565b3480156101ee57600080fd5b506101316101fd3660046109de565b6001600160a01b031660009081526003602052604090205490565b34801561022457600080fd5b506101316102333660046109de565b610504565b34801561024457600080fd5b506101316102533660046109fb565b61054c565b34801561026457600080fd5b506101316102733660046109de565b6001600160a01b031660009081526002602052604090205490565b34801561029a57600080fd5b506101316102a93660046109de565b6001600160a01b031660009081526005602052604090205490565b3480156102d057600080fd5b50600154610131565b6001600160a01b0381166000908152600260205260409020546103175760405162461bcd60e51b815260040161030e90610a4d565b60405180910390fd5b600061032282610504565b9050806103415760405162461bcd60e51b815260040161030e90610a93565b80600160008282546103539190610af4565b90915550506001600160a01b03821660009081526003602052604090208054820190556103808282610626565b604080516001600160a01b0384168152602081018390527fdf20fd1e76bc69d672e4814fafb2c449bba3a5369d8359adf9e05e6fde87b056910160405180910390a15050565b6001600160a01b0381166000908152600260205260409020546103fb5760405162461bcd60e51b815260040161030e90610a4d565b6000610407838361054c565b9050806104265760405162461bcd60e51b815260040161030e90610a93565b6001600160a01b0383166000908152600560205260408120805483929061044e908490610af4565b90915550506001600160a01b038084166000908152600660209081526040808320938616835292905220805482019055610489838383610744565b604080516001600160a01b038481168252602082018490528516917f3be5b7a71e84ed12875d241991c70855ac5817d847039e17a9d895c1ceb0f18a910160405180910390a2505050565b6000600482815481106104e9576104e9610b0c565b6000918252602090912001546001600160a01b031692915050565b60008061051060015490565b61051a9047610af4565b90506105458382610540866001600160a01b031660009081526003602052604090205490565b610796565b9392505050565b6001600160a01b03821660009081526005602052604081205481906040516370a0823160e01b81523060048201526001600160a01b038616906370a082319060240160206040518083038186803b1580156105a657600080fd5b505afa1580156105ba573d6000803e3d6000fd5b505050506040513d601f19601f820116820180604052508101906105de9190610b22565b6105e89190610af4565b6001600160a01b0380861660009081526006602090815260408083209388168352929052205490915061061e9084908390610796565b949350505050565b804710156106765760405162461bcd60e51b815260206004820152601d60248201527f416464726573733a20696e73756666696369656e742062616c616e6365000000604482015260640161030e565b6000826001600160a01b03168260405160006040518083038185875af1925050503d80600081146106c3576040519150601f19603f3d011682016040523d82523d6000602084013e6106c8565b606091505b505090508061073f5760405162461bcd60e51b815260206004820152603a60248201527f416464726573733a20756e61626c6520746f2073656e642076616c75652c207260448201527f6563697069656e74206d61792068617665207265766572746564000000000000606482015260840161030e565b505050565b604080516001600160a01b038416602482015260448082018490528251808303909101815260649091019091526020810180516001600160e01b031663a9059cbb60e01b17905261073f9084906107d1565b600080546001600160a01b0385168252600260205260408220548391906107bd9086610b3b565b6107c79190610b5a565b61061e9190610b7c565b6000610826826040518060400160405280602081526020017f5361666545524332303a206c6f772d6c6576656c2063616c6c206661696c6564815250856001600160a01b03166108a69092919063ffffffff16565b90508051600014806108475750808060200190518101906108479190610b93565b61073f5760405162461bcd60e51b815260206004820152602a60248201527f5361666545524332303a204552433230206f7065726174696f6e20646964206e6044820152691bdd081cdd58d8d9595960b21b606482015260840161030e565b606061061e848460008585600080866001600160a01b031685876040516108cd9190610be5565b60006040518083038185875af1925050503d806000811461090a576040519150601f19603f3d011682016040523d82523d6000602084013e61090f565b606091505b50915091506109208783838761092b565b979650505050505050565b60608315610997578251610990576001600160a01b0385163b6109905760405162461bcd60e51b815260206004820152601d60248201527f416464726573733a2063616c6c20746f206e6f6e2d636f6e7472616374000000604482015260640161030e565b508161061e565b61061e83838151156109ac5781518083602001fd5b8060405162461bcd60e51b815260040161030e9190610c01565b6001600160a01b03811681146109db57600080fd5b50565b6000602082840312156109f057600080fd5b8135610545816109c6565b60008060408385031215610a0e57600080fd5b8235610a19816109c6565b91506020830135610a29816109c6565b809150509250929050565b600060208284031215610a4657600080fd5b5035919050565b60208082526026908201527f5061796d656e7453706c69747465723a206163636f756e7420686173206e6f2060408201526573686172657360d01b606082015260800190565b6020808252602b908201527f5061796d656e7453706c69747465723a206163636f756e74206973206e6f742060408201526a191d59481c185e5b595b9d60aa1b606082015260800190565b634e487b7160e01b600052601160045260246000fd5b60008219821115610b0757610b07610ade565b500190565b634e487b7160e01b600052603260045260246000fd5b600060208284031215610b3457600080fd5b5051919050565b6000816000190483118215151615610b5557610b55610ade565b500290565b600082610b7757634e487b7160e01b600052601260045260246000fd5b500490565b600082821015610b8e57610b8e610ade565b500390565b600060208284031215610ba557600080fd5b8151801515811461054557600080fd5b60005b83811015610bd0578181015183820152602001610bb8565b83811115610bdf576000848401525b50505050565b60008251610bf7818460208701610bb5565b9190910192915050565b6020815260008251806020840152610c20816040850160208701610bb5565b601f01601f1916919091016040019291505056fea264697066735822122056b28079618775a835f6d138a01e0ee4a4f4262cfe7036d36df5c49ec4ca0e7a64736f6c63430008090033",
  "linkReferences": {},
  "deployedLinkReferences": {}
}