{
  "_format": "hh-sol-artifact-1",
  "contractName": "GameToken",
  "sourceName": "contracts/GameToken.sol",
  "abi": [
    {
      "inputs": [
        {
          "internalType": "address[]",
          "name": "payees",
          "type": "address[]"
        },
        {
          "internalType": "uint256[]",
          "name": "shares",
          "type": "uint256[]"
        },
        {
          "internalType": "uint256",
          "name": "_price",
          "type": "uint256"
        }
      ],
      "stateMutability": "nonpayable",
      "type": "constructor"
    },
    {
      "anonymous": false,
      "inputs": [
        {
          "indexed": true,
          "internalType": "address",
          "name": "owner",
          "type": "address"
        },
        {
          "indexed": true,
          "internalType": "address",
          "name": "approved",
          "type": "address"
        },
        {
          "indexed": true,
          "internalType": "uint256",
          "name": "tokenId",
          "type": "uint256"
        }
      ],
      "name": "Approval",
      "type": "event"
    },
    {
      "anonymous": false,
      "inputs": [
        {
          "indexed": true,
          "internalType": "address",
          "name": "owner",
          "type": "address"
        },
        {
          "indexed": true,
          "internalType": "address",
          "name": "operator",
          "type": "address"
        },
        {
          "indexed": false,
          "internalType": "bool",
          "name": "approved",
          "type": "bool"
        }
      ],
      "name": "ApprovalForAll",
      "type": "event"
    },
    {
      "anonymous": false,
      "inputs": [
        {
          "indexed": true,
          "internalType": "address",
          "name": "previousOwner",
          "type": "address"
        },
        {
          "indexed": true,
          "internalType": "address",
          "name": "newOwner",
          "type": "address"
        }
      ],
      "name": "OwnershipTransferred",
      "type": "event"
    },
    {
      "anonymous": false,
      "inputs": [
        {
          "indexed": true,
          "internalType": "address",
          "name": "from",
          "type": "address"
        },
        {
          "indexed": true,
          "internalType": "address",
          "name": "to",
          "type": "address"
        },
        {
          "indexed": true,
          "internalType": "uint256",
          "name": "tokenId",
          "type": "uint256"
        }
      ],
      "name": "Transfer",
      "type": "event"
    },
    {
      "inputs": [
        {
          "internalType": "address",
          "name": "to",
          "type": "address"
        },
        {
          "internalType": "uint256",
          "name": "tokenId",
          "type": "uint256"
        }
      ],
      "name": "approve",
      "outputs": [],
      "stateMutability": "nonpayable",
      "type": "function"
    },
    {
      "inputs": [
        {
          "internalType": "address",
          "name": "owner",
          "type": "address"
        }
      ],
      "name": "balanceOf",
      "outputs": [
        {
          "internalType": "uint256",
          "name": "",
          "type": "uint256"
        }
      ],
      "stateMutability": "view",
      "type": "function"
    },
    {
      "inputs": [
        {
          "internalType": "uint256",
          "name": "tokenId",
          "type": "uint256"
        }
      ],
      "name": "getApproved",
      "outputs": [
        {
          "internalType": "address",
          "name": "",
          "type": "address"
        }
      ],
      "stateMutability": "view",
      "type": "function"
    },
    {
      "inputs": [
        {
          "internalType": "address",
          "name": "owner",
          "type": "address"
        },
        {
          "internalType": "address",
          "name": "operator",
          "type": "address"
        }
      ],
      "name": "isApprovedForAll",
      "outputs": [
        {
          "internalType": "bool",
          "name": "",
          "type": "bool"
        }
      ],
      "stateMutability": "view",
      "type": "function"
    },
    {
      "inputs": [],
      "name": "name",
      "outputs": [
        {
          "internalType": "string",
          "name": "",
          "type": "string"
        }
      ],
      "stateMutability": "view",
      "type": "function"
    },
    {
      "inputs": [],
      "name": "owner",
      "outputs": [
        {
          "internalType": "address",
          "name": "",
          "type": "address"
        }
      ],
      "stateMutability": "view",
      "type": "function"
    },
    {
      "inputs": [
        {
          "internalType": "uint256",
          "name": "tokenId",
          "type": "uint256"
        }
      ],
      "name": "ownerOf",
      "outputs": [
        {
          "internalType": "address",
          "name": "",
          "type": "address"
        }
      ],
      "stateMutability": "view",
      "type": "function"
    },
    {
      "inputs": [],
      "name": "price",
      "outputs": [
        {
          "internalType": "uint256",
          "name": "",
          "type": "uint256"
        }
      ],
      "stateMutability": "view",
      "type": "function"
    },
    {
      "inputs": [
        {
          "internalType": "address payable",
          "name": "account",
          "type": "address"
        }
      ],
      "name": "release",
      "outputs": [],
      "stateMutability": "nonpayable",
      "type": "function"
    },
    {
      "inputs": [],
      "name": "renounceOwnership",
      "outputs": [],
      "stateMutability": "nonpayable",
      "type": "function"
    },
    {
      "inputs": [
        {
          "internalType": "address",
          "name": "from",
          "type": "address"
        },
        {
          "internalType": "address",
          "name": "to",
          "type": "address"
        },
        {
          "internalType": "uint256",
          "name": "tokenId",
          "type": "uint256"
        }
      ],
      "name": "safeTransferFrom",
      "outputs": [],
      "stateMutability": "nonpayable",
      "type": "function"
    },
    {
      "inputs": [
        {
          "internalType": "address",
          "name": "from",
          "type": "address"
        },
        {
          "internalType": "address",
          "name": "to",
          "type": "address"
        },
        {
          "internalType": "uint256",
          "name": "tokenId",
          "type": "uint256"
        },
        {
          "internalType": "bytes",
          "name": "data",
          "type": "bytes"
        }
      ],
      "name": "safeTransferFrom",
      "outputs": [],
      "stateMutability": "nonpayable",
      "type": "function"
    },
    {
      "inputs": [
        {
          "internalType": "address",
          "name": "operator",
          "type": "address"
        },
        {
          "internalType": "bool",
          "name": "approved",
          "type": "bool"
        }
      ],
      "name": "setApprovalForAll",
      "outputs": [],
      "stateMutability": "nonpayable",
      "type": "function"
    },
    {
      "inputs": [],
      "name": "splitPayments",
      "outputs": [],
      "stateMutability": "payable",
      "type": "function"
    },
    {
      "inputs": [
        {
          "internalType": "bytes4",
          "name": "interfaceId",
          "type": "bytes4"
        }
      ],
      "name": "supportsInterface",
      "outputs": [
        {
          "internalType": "bool",
          "name": "",
          "type": "bool"
        }
      ],
      "stateMutability": "view",
      "type": "function"
    },
    {
      "inputs": [],
      "name": "symbol",
      "outputs": [
        {
          "internalType": "string",
          "name": "",
          "type": "string"
        }
      ],
      "stateMutability": "view",
      "type": "function"
    },
    {
      "inputs": [
        {
          "internalType": "uint256",
          "name": "tokenId",
          "type": "uint256"
        }
      ],
      "name": "tokenURI",
      "outputs": [
        {
          "internalType": "string",
          "name": "",
          "type": "string"
        }
      ],
      "stateMutability": "view",
      "type": "function"
    },
    {
      "inputs": [
        {
          "internalType": "address",
          "name": "from",
          "type": "address"
        },
        {
          "internalType": "address",
          "name": "to",
          "type": "address"
        },
        {
          "internalType": "uint256",
          "name": "tokenId",
          "type": "uint256"
        }
      ],
      "name": "transferFrom",
      "outputs": [],
      "stateMutability": "nonpayable",
      "type": "function"
    },
    {
      "inputs": [
        {
          "internalType": "address",
          "name": "newOwner",
          "type": "address"
        }
      ],
      "name": "transferOwnership",
      "outputs": [],
      "stateMutability": "nonpayable",
      "type": "function"
    }
  ],
  "bytecode": "0x60806040523480156200001157600080fd5b50604051620054b7380380620054b783398181016040528101906200003791906200060d565b6040518060400160405280600981526020017f47616d65546f6b656e00000000000000000000000000000000000000000000008152506040518060400160405280600281526020017f47540000000000000000000000000000000000000000000000000000000000008152508160009080519060200190620000bb92919062000250565b508060019080519060200190620000d492919062000250565b505050620000f7620000eb6200018260201b60201c565b6200018a60201b60201c565b82826040516200010790620002e1565b6200011492919062000843565b604051809103906000f08015801562000131573d6000803e3d6000fd5b50600760006101000a81548173ffffffffffffffffffffffffffffffffffffffff021916908373ffffffffffffffffffffffffffffffffffffffff16021790555080600881905550505050620008e3565b600033905090565b6000600660009054906101000a900473ffffffffffffffffffffffffffffffffffffffff16905081600660006101000a81548173ffffffffffffffffffffffffffffffffffffffff021916908373ffffffffffffffffffffffffffffffffffffffff1602179055508173ffffffffffffffffffffffffffffffffffffffff168173ffffffffffffffffffffffffffffffffffffffff167f8be0079c531659141344cd1fd0a4f28419497f9722a3daafe3b4186f6b6457e060405160405180910390a35050565b8280546200025e90620008ad565b90600052602060002090601f016020900481019282620002825760008555620002ce565b82601f106200029d57805160ff1916838001178555620002ce565b82800160010185558215620002ce579182015b82811115620002cd578251825591602001919060010190620002b0565b5b509050620002dd9190620002ef565b5090565b6123ac806200310b83390190565b5b808211156200030a576000816000905550600101620002f0565b5090565b6000604051905090565b600080fd5b600080fd5b600080fd5b6000601f19601f8301169050919050565b7f4e487b7100000000000000000000000000000000000000000000000000000000600052604160045260246000fd5b620003728262000327565b810181811067ffffffffffffffff8211171562000394576200039362000338565b5b80604052505050565b6000620003a96200030e565b9050620003b7828262000367565b919050565b600067ffffffffffffffff821115620003da57620003d962000338565b5b602082029050602081019050919050565b600080fd5b600073ffffffffffffffffffffffffffffffffffffffff82169050919050565b60006200041d82620003f0565b9050919050565b6200042f8162000410565b81146200043b57600080fd5b50565b6000815190506200044f8162000424565b92915050565b60006200046c6200046684620003bc565b6200039d565b90508083825260208201905060208402830185811115620004925762000491620003eb565b5b835b81811015620004bf5780620004aa88826200043e565b84526020840193505060208101905062000494565b5050509392505050565b600082601f830112620004e157620004e062000322565b5b8151620004f384826020860162000455565b91505092915050565b600067ffffffffffffffff8211156200051a576200051962000338565b5b602082029050602081019050919050565b6000819050919050565b62000540816200052b565b81146200054c57600080fd5b50565b600081519050620005608162000535565b92915050565b60006200057d6200057784620004fc565b6200039d565b90508083825260208201905060208402830185811115620005a357620005a2620003eb565b5b835b81811015620005d05780620005bb88826200054f565b845260208401935050602081019050620005a5565b5050509392505050565b600082601f830112620005f257620005f162000322565b5b81516200060484826020860162000566565b91505092915050565b60008060006060848603121562000629576200062862000318565b5b600084015167ffffffffffffffff8111156200064a57620006496200031d565b5b6200065886828701620004c9565b935050602084015167ffffffffffffffff8111156200067c576200067b6200031d565b5b6200068a86828701620005da565b92505060406200069d868287016200054f565b9150509250925092565b600081519050919050565b600082825260208201905092915050565b6000819050602082019050919050565b620006de8162000410565b82525050565b6000620006f28383620006d3565b60208301905092915050565b6000602082019050919050565b60006200071882620006a7565b620007248185620006b2565b93506200073183620006c3565b8060005b83811015620007685781516200074c8882620006e4565b97506200075983620006fe565b92505060018101905062000735565b5085935050505092915050565b600081519050919050565b600082825260208201905092915050565b6000819050602082019050919050565b620007ac816200052b565b82525050565b6000620007c08383620007a1565b60208301905092915050565b6000602082019050919050565b6000620007e68262000775565b620007f2818562000780565b9350620007ff8362000791565b8060005b83811015620008365781516200081a8882620007b2565b97506200082783620007cc565b92505060018101905062000803565b5085935050505092915050565b600060408201905081810360008301526200085f81856200070b565b90508181036020830152620008758184620007d9565b90509392505050565b7f4e487b7100000000000000000000000000000000000000000000000000000000600052602260045260246000fd5b60006002820490506001821680620008c657607f821691505b60208210811415620008dd57620008dc6200087e565b5b50919050565b61281880620008f36000396000f3fe6080604052600436106101145760003560e01c806370a08231116100a0578063a22cb46511610064578063a22cb4651461037e578063b88d4fde146103a7578063c87b56dd146103d0578063e985e9c51461040d578063f2fde38b1461044a57610114565b806370a08231146102a9578063715018a6146102e65780638da5cb5b146102fd57806395d89b4114610328578063a035b1fe1461035357610114565b806319165587116100e757806319165587146101e757806323b872dd1461021057806342842e0e146102395780636352211e14610262578063706c1e6f1461029f57610114565b806301ffc9a71461011957806306fdde0314610156578063081812fc14610181578063095ea7b3146101be575b600080fd5b34801561012557600080fd5b50610140600480360381019061013b9190611a09565b610473565b60405161014d9190611a51565b60405180910390f35b34801561016257600080fd5b5061016b610555565b6040516101789190611b05565b60405180910390f35b34801561018d57600080fd5b506101a860048036038101906101a39190611b5d565b6105e7565b6040516101b59190611bcb565b60405180910390f35b3480156101ca57600080fd5b506101e560048036038101906101e09190611c12565b61062d565b005b3480156101f357600080fd5b5061020e60048036038101906102099190611c90565b610745565b005b34801561021c57600080fd5b5061023760048036038101906102329190611cbd565b6107d5565b005b34801561024557600080fd5b50610260600480360381019061025b9190611cbd565b610835565b005b34801561026e57600080fd5b5061028960048036038101906102849190611b5d565b610855565b6040516102969190611bcb565b60405180910390f35b6102a76108dc565b005b3480156102b557600080fd5b506102d060048036038101906102cb9190611d10565b61097f565b6040516102dd9190611d4c565b60405180910390f35b3480156102f257600080fd5b506102fb610a37565b005b34801561030957600080fd5b50610312610a4b565b60405161031f9190611bcb565b60405180910390f35b34801561033457600080fd5b5061033d610a75565b60405161034a9190611b05565b60405180910390f35b34801561035f57600080fd5b50610368610b07565b6040516103759190611d4c565b60405180910390f35b34801561038a57600080fd5b506103a560048036038101906103a09190611d93565b610b0d565b005b3480156103b357600080fd5b506103ce60048036038101906103c99190611f08565b610b23565b005b3480156103dc57600080fd5b506103f760048036038101906103f29190611b5d565b610b85565b6040516104049190611b05565b60405180910390f35b34801561041957600080fd5b50610434600480360381019061042f9190611f8b565b610bed565b6040516104419190611a51565b60405180910390f35b34801561045657600080fd5b50610471600480360381019061046c9190611d10565b610c81565b005b60007f80ac58cd000000000000000000000000000000000000000000000000000000007bffffffffffffffffffffffffffffffffffffffffffffffffffffffff1916827bffffffffffffffffffffffffffffffffffffffffffffffffffffffff1916148061053e57507f5b5e139f000000000000000000000000000000000000000000000000000000007bffffffffffffffffffffffffffffffffffffffffffffffffffffffff1916827bffffffffffffffffffffffffffffffffffffffffffffffffffffffff1916145b8061054e575061054d82610d05565b5b9050919050565b60606000805461056490611ffa565b80601f016020809104026020016040519081016040528092919081815260200182805461059090611ffa565b80156105dd5780601f106105b2576101008083540402835291602001916105dd565b820191906000526020600020905b8154815290600101906020018083116105c057829003601f168201915b5050505050905090565b60006105f282610d6f565b6004600083815260200190815260200160002060009054906101000a900473ffffffffffffffffffffffffffffffffffffffff169050919050565b600061063882610855565b90508073ffffffffffffffffffffffffffffffffffffffff168373ffffffffffffffffffffffffffffffffffffffff1614156106a9576040517f08c379a00000000000000000000000000000000000000000000000000000000081526004016106a09061209e565b60405180910390fd5b8073ffffffffffffffffffffffffffffffffffffffff166106c8610dba565b73ffffffffffffffffffffffffffffffffffffffff1614806106f757506106f6816106f1610dba565b610bed565b5b610736576040517f08c379a000000000000000000000000000000000000000000000000000000000815260040161072d90612130565b60405180910390fd5b6107408383610dc2565b505050565b600760009054906101000a900473ffffffffffffffffffffffffffffffffffffffff1673ffffffffffffffffffffffffffffffffffffffff166319165587826040518263ffffffff1660e01b81526004016107a0919061215f565b600060405180830381600087803b1580156107ba57600080fd5b505af11580156107ce573d6000803e3d6000fd5b5050505050565b6107e66107e0610dba565b82610e7b565b610825576040517f08c379a000000000000000000000000000000000000000000000000000000000815260040161081c906121ec565b60405180910390fd5b610830838383610f10565b505050565b61085083838360405180602001604052806000815250610b23565b505050565b6000806108618361120a565b9050600073ffffffffffffffffffffffffffffffffffffffff168173ffffffffffffffffffffffffffffffffffffffff1614156108d3576040517f08c379a00000000000000000000000000000000000000000000000000000000081526004016108ca90612258565b60405180910390fd5b80915050919050565b6108e4611247565b6000600760009054906101000a900473ffffffffffffffffffffffffffffffffffffffff1673ffffffffffffffffffffffffffffffffffffffff164760405161092c906122a9565b60006040518083038185875af1925050503d8060008114610969576040519150601f19603f3d011682016040523d82523d6000602084013e61096e565b606091505b505090508061097c57600080fd5b50565b60008073ffffffffffffffffffffffffffffffffffffffff168273ffffffffffffffffffffffffffffffffffffffff1614156109f0576040517f08c379a00000000000000000000000000000000000000000000000000000000081526004016109e790612330565b60405180910390fd5b600360008373ffffffffffffffffffffffffffffffffffffffff1673ffffffffffffffffffffffffffffffffffffffff168152602001908152602001600020549050919050565b610a3f611247565b610a4960006112c5565b565b6000600660009054906101000a900473ffffffffffffffffffffffffffffffffffffffff16905090565b606060018054610a8490611ffa565b80601f0160208091040260200160405190810160405280929190818152602001828054610ab090611ffa565b8015610afd5780601f10610ad257610100808354040283529160200191610afd565b820191906000526020600020905b815481529060010190602001808311610ae057829003601f168201915b5050505050905090565b60085481565b610b1f610b18610dba565b838361138b565b5050565b610b34610b2e610dba565b83610e7b565b610b73576040517f08c379a0000000000000000000000000000000000000000000000000000000008152600401610b6a906121ec565b60405180910390fd5b610b7f848484846114f8565b50505050565b6060610b9082610d6f565b6000610b9a611554565b90506000815111610bba5760405180602001604052806000815250610be5565b80610bc48461156b565b604051602001610bd592919061238c565b6040516020818303038152906040525b915050919050565b6000600560008473ffffffffffffffffffffffffffffffffffffffff1673ffffffffffffffffffffffffffffffffffffffff16815260200190815260200160002060008373ffffffffffffffffffffffffffffffffffffffff1673ffffffffffffffffffffffffffffffffffffffff16815260200190815260200160002060009054906101000a900460ff16905092915050565b610c89611247565b600073ffffffffffffffffffffffffffffffffffffffff168173ffffffffffffffffffffffffffffffffffffffff161415610cf9576040517f08c379a0000000000000000000000000000000000000000000000000000000008152600401610cf090612422565b60405180910390fd5b610d02816112c5565b50565b60007f01ffc9a7000000000000000000000000000000000000000000000000000000007bffffffffffffffffffffffffffffffffffffffffffffffffffffffff1916827bffffffffffffffffffffffffffffffffffffffffffffffffffffffff1916149050919050565b610d7881611643565b610db7576040517f08c379a0000000000000000000000000000000000000000000000000000000008152600401610dae90612258565b60405180910390fd5b50565b600033905090565b816004600083815260200190815260200160002060006101000a81548173ffffffffffffffffffffffffffffffffffffffff021916908373ffffffffffffffffffffffffffffffffffffffff160217905550808273ffffffffffffffffffffffffffffffffffffffff16610e3583610855565b73ffffffffffffffffffffffffffffffffffffffff167f8c5be1e5ebec7d5bd14f71427d1e84f3dd0314c0f7b2291e5b200ac8c7c3b92560405160405180910390a45050565b600080610e8783610855565b90508073ffffffffffffffffffffffffffffffffffffffff168473ffffffffffffffffffffffffffffffffffffffff161480610ec95750610ec88185610bed565b5b80610f0757508373ffffffffffffffffffffffffffffffffffffffff16610eef846105e7565b73ffffffffffffffffffffffffffffffffffffffff16145b91505092915050565b8273ffffffffffffffffffffffffffffffffffffffff16610f3082610855565b73ffffffffffffffffffffffffffffffffffffffff1614610f86576040517f08c379a0000000000000000000000000000000000000000000000000000000008152600401610f7d906124b4565b60405180910390fd5b600073ffffffffffffffffffffffffffffffffffffffff168273ffffffffffffffffffffffffffffffffffffffff161415610ff6576040517f08c379a0000000000000000000000000000000000000000000000000000000008152600401610fed90612546565b60405180910390fd5b6110038383836001611684565b8273ffffffffffffffffffffffffffffffffffffffff1661102382610855565b73ffffffffffffffffffffffffffffffffffffffff1614611079576040517f08c379a0000000000000000000000000000000000000000000000000000000008152600401611070906124b4565b60405180910390fd5b6004600082815260200190815260200160002060006101000a81549073ffffffffffffffffffffffffffffffffffffffff02191690556001600360008573ffffffffffffffffffffffffffffffffffffffff1673ffffffffffffffffffffffffffffffffffffffff168152602001908152602001600020600082825403925050819055506001600360008473ffffffffffffffffffffffffffffffffffffffff1673ffffffffffffffffffffffffffffffffffffffff16815260200190815260200160002060008282540192505081905550816002600083815260200190815260200160002060006101000a81548173ffffffffffffffffffffffffffffffffffffffff021916908373ffffffffffffffffffffffffffffffffffffffff160217905550808273ffffffffffffffffffffffffffffffffffffffff168473ffffffffffffffffffffffffffffffffffffffff167fddf252ad1be2c89b69c2b068fc378daa952ba7f163c4a11628f55a4df523b3ef60405160405180910390a4611205838383600161168a565b505050565b60006002600083815260200190815260200160002060009054906101000a900473ffffffffffffffffffffffffffffffffffffffff169050919050565b61124f610dba565b73ffffffffffffffffffffffffffffffffffffffff1661126d610a4b565b73ffffffffffffffffffffffffffffffffffffffff16146112c3576040517f08c379a00000000000000000000000000000000000000000000000000000000081526004016112ba906125b2565b60405180910390fd5b565b6000600660009054906101000a900473ffffffffffffffffffffffffffffffffffffffff16905081600660006101000a81548173ffffffffffffffffffffffffffffffffffffffff021916908373ffffffffffffffffffffffffffffffffffffffff1602179055508173ffffffffffffffffffffffffffffffffffffffff168173ffffffffffffffffffffffffffffffffffffffff167f8be0079c531659141344cd1fd0a4f28419497f9722a3daafe3b4186f6b6457e060405160405180910390a35050565b8173ffffffffffffffffffffffffffffffffffffffff168373ffffffffffffffffffffffffffffffffffffffff1614156113fa576040517f08c379a00000000000000000000000000000000000000000000000000000000081526004016113f19061261e565b60405180910390fd5b80600560008573ffffffffffffffffffffffffffffffffffffffff1673ffffffffffffffffffffffffffffffffffffffff16815260200190815260200160002060008473ffffffffffffffffffffffffffffffffffffffff1673ffffffffffffffffffffffffffffffffffffffff16815260200190815260200160002060006101000a81548160ff0219169083151502179055508173ffffffffffffffffffffffffffffffffffffffff168373ffffffffffffffffffffffffffffffffffffffff167f17307eab39ab6107e8899845ad3d59bd9653f200f220920489ca2b5937696c31836040516114eb9190611a51565b60405180910390a3505050565b611503848484610f10565b61150f84848484611690565b61154e576040517f08c379a0000000000000000000000000000000000000000000000000000000008152600401611545906126b0565b60405180910390fd5b50505050565b606060405180602001604052806000815250905090565b60606000600161157a84611827565b01905060008167ffffffffffffffff81111561159957611598611ddd565b5b6040519080825280601f01601f1916602001820160405280156115cb5781602001600182028036833780820191505090505b509050600082602001820190505b600115611638578080600190039150507f3031323334353637383961626364656600000000000000000000000000000000600a86061a8153600a8581611622576116216126d0565b5b049450600085141561163357611638565b6115d9565b819350505050919050565b60008073ffffffffffffffffffffffffffffffffffffffff166116658361120a565b73ffffffffffffffffffffffffffffffffffffffff1614159050919050565b50505050565b50505050565b60006116b18473ffffffffffffffffffffffffffffffffffffffff1661197a565b1561181a578373ffffffffffffffffffffffffffffffffffffffff1663150b7a026116da610dba565b8786866040518563ffffffff1660e01b81526004016116fc9493929190612754565b602060405180830381600087803b15801561171657600080fd5b505af192505050801561174757506040513d601f19601f8201168201806040525081019061174491906127b5565b60015b6117ca573d8060008114611777576040519150601f19603f3d011682016040523d82523d6000602084013e61177c565b606091505b506000815114156117c2576040517f08c379a00000000000000000000000000000000000000000000000000000000081526004016117b9906126b0565b60405180910390fd5b805181602001fd5b63150b7a0260e01b7bffffffffffffffffffffffffffffffffffffffffffffffffffffffff1916817bffffffffffffffffffffffffffffffffffffffffffffffffffffffff19161491505061181f565b600190505b949350505050565b600080600090507a184f03e93ff9f4daa797ed6e38ed64bf6a1f0100000000000000008310611885577a184f03e93ff9f4daa797ed6e38ed64bf6a1f010000000000000000838161187b5761187a6126d0565b5b0492506040810190505b6d04ee2d6d415b85acef810000000083106118c2576d04ee2d6d415b85acef810000000083816118b8576118b76126d0565b5b0492506020810190505b662386f26fc1000083106118f157662386f26fc1000083816118e7576118e66126d0565b5b0492506010810190505b6305f5e100831061191a576305f5e10083816119105761190f6126d0565b5b0492506008810190505b612710831061193f576127108381611935576119346126d0565b5b0492506004810190505b606483106119625760648381611958576119576126d0565b5b0492506002810190505b600a8310611971576001810190505b80915050919050565b6000808273ffffffffffffffffffffffffffffffffffffffff163b119050919050565b6000604051905090565b600080fd5b600080fd5b60007fffffffff0000000000000000000000000000000000000000000000000000000082169050919050565b6119e6816119b1565b81146119f157600080fd5b50565b600081359050611a03816119dd565b92915050565b600060208284031215611a1f57611a1e6119a7565b5b6000611a2d848285016119f4565b91505092915050565b60008115159050919050565b611a4b81611a36565b82525050565b6000602082019050611a666000830184611a42565b92915050565b600081519050919050565b600082825260208201905092915050565b60005b83811015611aa6578082015181840152602081019050611a8b565b83811115611ab5576000848401525b50505050565b6000601f19601f8301169050919050565b6000611ad782611a6c565b611ae18185611a77565b9350611af1818560208601611a88565b611afa81611abb565b840191505092915050565b60006020820190508181036000830152611b1f8184611acc565b905092915050565b6000819050919050565b611b3a81611b27565b8114611b4557600080fd5b50565b600081359050611b5781611b31565b92915050565b600060208284031215611b7357611b726119a7565b5b6000611b8184828501611b48565b91505092915050565b600073ffffffffffffffffffffffffffffffffffffffff82169050919050565b6000611bb582611b8a565b9050919050565b611bc581611baa565b82525050565b6000602082019050611be06000830184611bbc565b92915050565b611bef81611baa565b8114611bfa57600080fd5b50565b600081359050611c0c81611be6565b92915050565b60008060408385031215611c2957611c286119a7565b5b6000611c3785828601611bfd565b9250506020611c4885828601611b48565b9150509250929050565b6000611c5d82611b8a565b9050919050565b611c6d81611c52565b8114611c7857600080fd5b50565b600081359050611c8a81611c64565b92915050565b600060208284031215611ca657611ca56119a7565b5b6000611cb484828501611c7b565b91505092915050565b600080600060608486031215611cd657611cd56119a7565b5b6000611ce486828701611bfd565b9350506020611cf586828701611bfd565b9250506040611d0686828701611b48565b9150509250925092565b600060208284031215611d2657611d256119a7565b5b6000611d3484828501611bfd565b91505092915050565b611d4681611b27565b82525050565b6000602082019050611d616000830184611d3d565b92915050565b611d7081611a36565b8114611d7b57600080fd5b50565b600081359050611d8d81611d67565b92915050565b60008060408385031215611daa57611da96119a7565b5b6000611db885828601611bfd565b9250506020611dc985828601611d7e565b9150509250929050565b600080fd5b600080fd5b7f4e487b7100000000000000000000000000000000000000000000000000000000600052604160045260246000fd5b611e1582611abb565b810181811067ffffffffffffffff82111715611e3457611e33611ddd565b5b80604052505050565b6000611e4761199d565b9050611e538282611e0c565b919050565b600067ffffffffffffffff821115611e7357611e72611ddd565b5b611e7c82611abb565b9050602081019050919050565b82818337600083830152505050565b6000611eab611ea684611e58565b611e3d565b905082815260208101848484011115611ec757611ec6611dd8565b5b611ed2848285611e89565b509392505050565b600082601f830112611eef57611eee611dd3565b5b8135611eff848260208601611e98565b91505092915050565b60008060008060808587031215611f2257611f216119a7565b5b6000611f3087828801611bfd565b9450506020611f4187828801611bfd565b9350506040611f5287828801611b48565b925050606085013567ffffffffffffffff811115611f7357611f726119ac565b5b611f7f87828801611eda565b91505092959194509250565b60008060408385031215611fa257611fa16119a7565b5b6000611fb085828601611bfd565b9250506020611fc185828601611bfd565b9150509250929050565b7f4e487b7100000000000000000000000000000000000000000000000000000000600052602260045260246000fd5b6000600282049050600182168061201257607f821691505b6020821081141561202657612025611fcb565b5b50919050565b7f4552433732313a20617070726f76616c20746f2063757272656e74206f776e6560008201527f7200000000000000000000000000000000000000000000000000000000000000602082015250565b6000612088602183611a77565b91506120938261202c565b604082019050919050565b600060208201905081810360008301526120b78161207b565b9050919050565b7f4552433732313a20617070726f76652063616c6c6572206973206e6f7420746f60008201527f6b656e206f776e6572206f7220617070726f76656420666f7220616c6c000000602082015250565b600061211a603d83611a77565b9150612125826120be565b604082019050919050565b600060208201905081810360008301526121498161210d565b9050919050565b61215981611c52565b82525050565b60006020820190506121746000830184612150565b92915050565b7f4552433732313a2063616c6c6572206973206e6f7420746f6b656e206f776e6560008201527f72206f7220617070726f76656400000000000000000000000000000000000000602082015250565b60006121d6602d83611a77565b91506121e18261217a565b604082019050919050565b60006020820190508181036000830152612205816121c9565b9050919050565b7f4552433732313a20696e76616c696420746f6b656e2049440000000000000000600082015250565b6000612242601883611a77565b915061224d8261220c565b602082019050919050565b6000602082019050818103600083015261227181612235565b9050919050565b600081905092915050565b50565b6000612293600083612278565b915061229e82612283565b600082019050919050565b60006122b482612286565b9150819050919050565b7f4552433732313a2061646472657373207a65726f206973206e6f74206120766160008201527f6c6964206f776e65720000000000000000000000000000000000000000000000602082015250565b600061231a602983611a77565b9150612325826122be565b604082019050919050565b600060208201905081810360008301526123498161230d565b9050919050565b600081905092915050565b600061236682611a6c565b6123708185612350565b9350612380818560208601611a88565b80840191505092915050565b6000612398828561235b565b91506123a4828461235b565b91508190509392505050565b7f4f776e61626c653a206e6577206f776e657220697320746865207a65726f206160008201527f6464726573730000000000000000000000000000000000000000000000000000602082015250565b600061240c602683611a77565b9150612417826123b0565b604082019050919050565b6000602082019050818103600083015261243b816123ff565b9050919050565b7f4552433732313a207472616e736665722066726f6d20696e636f72726563742060008201527f6f776e6572000000000000000000000000000000000000000000000000000000602082015250565b600061249e602583611a77565b91506124a982612442565b604082019050919050565b600060208201905081810360008301526124cd81612491565b9050919050565b7f4552433732313a207472616e7366657220746f20746865207a65726f2061646460008201527f7265737300000000000000000000000000000000000000000000000000000000602082015250565b6000612530602483611a77565b915061253b826124d4565b604082019050919050565b6000602082019050818103600083015261255f81612523565b9050919050565b7f4f776e61626c653a2063616c6c6572206973206e6f7420746865206f776e6572600082015250565b600061259c602083611a77565b91506125a782612566565b602082019050919050565b600060208201905081810360008301526125cb8161258f565b9050919050565b7f4552433732313a20617070726f766520746f2063616c6c657200000000000000600082015250565b6000612608601983611a77565b9150612613826125d2565b602082019050919050565b60006020820190508181036000830152612637816125fb565b9050919050565b7f4552433732313a207472616e7366657220746f206e6f6e20455243373231526560008201527f63656976657220696d706c656d656e7465720000000000000000000000000000602082015250565b600061269a603283611a77565b91506126a58261263e565b604082019050919050565b600060208201905081810360008301526126c98161268d565b9050919050565b7f4e487b7100000000000000000000000000000000000000000000000000000000600052601260045260246000fd5b600081519050919050565b600082825260208201905092915050565b6000612726826126ff565b612730818561270a565b9350612740818560208601611a88565b61274981611abb565b840191505092915050565b60006080820190506127696000830187611bbc565b6127766020830186611bbc565b6127836040830185611d3d565b8181036060830152612795818461271b565b905095945050505050565b6000815190506127af816119dd565b92915050565b6000602082840312156127cb576127ca6119a7565b5b60006127d9848285016127a0565b9150509291505056fea26469706673582212207e499461974ffda171ba32404136e2248568e387706bb07a37fa00e8b91e58f764736f6c634300080900336080604052604051620023ac380380620023ac833981810160405281019062000029919062000668565b805182511462000070576040517f08c379a0000000000000000000000000000000000000000000000000000000008152600401620000679062000774565b60405180910390fd5b6000825111620000b7576040517f08c379a0000000000000000000000000000000000000000000000000000000008152600401620000ae90620007e6565b60405180910390fd5b60005b8251811015620001265762000110838281518110620000de57620000dd62000808565b5b6020026020010151838381518110620000fc57620000fb62000808565b5b60200260200101516200012f60201b60201c565b80806200011d9062000866565b915050620000ba565b50505062000b02565b600073ffffffffffffffffffffffffffffffffffffffff168273ffffffffffffffffffffffffffffffffffffffff161415620001a2576040517f08c379a000000000000000000000000000000000000000000000000000000000815260040162000199906200092a565b60405180910390fd5b60008111620001e8576040517f08c379a0000000000000000000000000000000000000000000000000000000008152600401620001df906200099c565b60405180910390fd5b6000600260008473ffffffffffffffffffffffffffffffffffffffff1673ffffffffffffffffffffffffffffffffffffffff16815260200190815260200160002054146200026d576040517f08c379a0000000000000000000000000000000000000000000000000000000008152600401620002649062000a34565b60405180910390fd5b6004829080600181540180825580915050600190039060005260206000200160009091909190916101000a81548173ffffffffffffffffffffffffffffffffffffffff021916908373ffffffffffffffffffffffffffffffffffffffff16021790555080600260008473ffffffffffffffffffffffffffffffffffffffff1673ffffffffffffffffffffffffffffffffffffffff168152602001908152602001600020819055508060005462000324919062000a56565b6000819055507f40c340f65e17194d14ddddb073d3c9f888e3cb52b5aae0c6c7706b4fbc905fac82826040516200035d92919062000ad5565b60405180910390a15050565b6000604051905090565b600080fd5b600080fd5b600080fd5b6000601f19601f8301169050919050565b7f4e487b7100000000000000000000000000000000000000000000000000000000600052604160045260246000fd5b620003cd8262000382565b810181811067ffffffffffffffff82111715620003ef57620003ee62000393565b5b80604052505050565b60006200040462000369565b9050620004128282620003c2565b919050565b600067ffffffffffffffff82111562000435576200043462000393565b5b602082029050602081019050919050565b600080fd5b600073ffffffffffffffffffffffffffffffffffffffff82169050919050565b600062000478826200044b565b9050919050565b6200048a816200046b565b81146200049657600080fd5b50565b600081519050620004aa816200047f565b92915050565b6000620004c7620004c18462000417565b620003f8565b90508083825260208201905060208402830185811115620004ed57620004ec62000446565b5b835b818110156200051a578062000505888262000499565b845260208401935050602081019050620004ef565b5050509392505050565b600082601f8301126200053c576200053b6200037d565b5b81516200054e848260208601620004b0565b91505092915050565b600067ffffffffffffffff82111562000575576200057462000393565b5b602082029050602081019050919050565b6000819050919050565b6200059b8162000586565b8114620005a757600080fd5b50565b600081519050620005bb8162000590565b92915050565b6000620005d8620005d28462000557565b620003f8565b90508083825260208201905060208402830185811115620005fe57620005fd62000446565b5b835b818110156200062b5780620006168882620005aa565b84526020840193505060208101905062000600565b5050509392505050565b600082601f8301126200064d576200064c6200037d565b5b81516200065f848260208601620005c1565b91505092915050565b6000806040838503121562000682576200068162000373565b5b600083015167ffffffffffffffff811115620006a357620006a262000378565b5b620006b18582860162000524565b925050602083015167ffffffffffffffff811115620006d557620006d462000378565b5b620006e38582860162000635565b9150509250929050565b600082825260208201905092915050565b7f5061796d656e7453706c69747465723a2070617965657320616e64207368617260008201527f6573206c656e677468206d69736d617463680000000000000000000000000000602082015250565b60006200075c603283620006ed565b91506200076982620006fe565b604082019050919050565b600060208201905081810360008301526200078f816200074d565b9050919050565b7f5061796d656e7453706c69747465723a206e6f20706179656573000000000000600082015250565b6000620007ce601a83620006ed565b9150620007db8262000796565b602082019050919050565b600060208201905081810360008301526200080181620007bf565b9050919050565b7f4e487b7100000000000000000000000000000000000000000000000000000000600052603260045260246000fd5b7f4e487b7100000000000000000000000000000000000000000000000000000000600052601160045260246000fd5b6000620008738262000586565b91507fffffffffffffffffffffffffffffffffffffffffffffffffffffffffffffffff821415620008a957620008a862000837565b5b600182019050919050565b7f5061796d656e7453706c69747465723a206163636f756e74206973207468652060008201527f7a65726f20616464726573730000000000000000000000000000000000000000602082015250565b600062000912602c83620006ed565b91506200091f82620008b4565b604082019050919050565b60006020820190508181036000830152620009458162000903565b9050919050565b7f5061796d656e7453706c69747465723a20736861726573206172652030000000600082015250565b600062000984601d83620006ed565b915062000991826200094c565b602082019050919050565b60006020820190508181036000830152620009b78162000975565b9050919050565b7f5061796d656e7453706c69747465723a206163636f756e7420616c726561647960008201527f2068617320736861726573000000000000000000000000000000000000000000602082015250565b600062000a1c602b83620006ed565b915062000a2982620009be565b604082019050919050565b6000602082019050818103600083015262000a4f8162000a0d565b9050919050565b600062000a638262000586565b915062000a708362000586565b9250827fffffffffffffffffffffffffffffffffffffffffffffffffffffffffffffffff0382111562000aa85762000aa762000837565b5b828201905092915050565b62000abe816200046b565b82525050565b62000acf8162000586565b82525050565b600060408201905062000aec600083018562000ab3565b62000afb602083018462000ac4565b9392505050565b61189a8062000b126000396000f3fe6080604052600436106100a05760003560e01c80639852595c116100645780639852595c146101e3578063a3f8eace14610220578063c45ac0501461025d578063ce7c2ac21461029a578063d79779b2146102d7578063e33b7de314610314576100e7565b806319165587146100ec5780633a98ef3914610115578063406072a91461014057806348b750441461017d5780638b83209b146101a6576100e7565b366100e7577f6ef95f06320e7a25a04a175ca677b7052bdd97131872c2192525a629f51be7706100ce61033f565b346040516100dd929190610e61565b60405180910390a1005b600080fd5b3480156100f857600080fd5b50610113600480360381019061010e9190610ecd565b610347565b005b34801561012157600080fd5b5061012a6104c7565b6040516101379190610efa565b60405180910390f35b34801561014c57600080fd5b5061016760048036038101906101629190610f7f565b6104d0565b6040516101749190610efa565b60405180910390f35b34801561018957600080fd5b506101a4600480360381019061019f9190610f7f565b610557565b005b3480156101b257600080fd5b506101cd60048036038101906101c89190610feb565b61076b565b6040516101da9190611018565b60405180910390f35b3480156101ef57600080fd5b5061020a60048036038101906102059190611033565b6107b3565b6040516102179190610efa565b60405180910390f35b34801561022c57600080fd5b5061024760048036038101906102429190611033565b6107fc565b6040516102549190610efa565b60405180910390f35b34801561026957600080fd5b50610284600480360381019061027f9190610f7f565b61082f565b6040516102919190610efa565b60405180910390f35b3480156102a657600080fd5b506102c160048036038101906102bc9190611033565b6108ed565b6040516102ce9190610efa565b60405180910390f35b3480156102e357600080fd5b506102fe60048036038101906102f99190611060565b610936565b60405161030b9190610efa565b60405180910390f35b34801561032057600080fd5b5061032961097f565b6040516103369190610efa565b60405180910390f35b600033905090565b6000600260008373ffffffffffffffffffffffffffffffffffffffff1673ffffffffffffffffffffffffffffffffffffffff16815260200190815260200160002054116103c9576040517f08c379a00000000000000000000000000000000000000000000000000000000081526004016103c090611110565b60405180910390fd5b60006103d4826107fc565b9050600081141561041a576040517f08c379a0000000000000000000000000000000000000000000000000000000008152600401610411906111a2565b60405180910390fd5b806001600082825461042c91906111f1565b9250508190555080600360008473ffffffffffffffffffffffffffffffffffffffff1673ffffffffffffffffffffffffffffffffffffffff1681526020019081526020016000206000828254019250508190555061048a8282610989565b7fdf20fd1e76bc69d672e4814fafb2c449bba3a5369d8359adf9e05e6fde87b05682826040516104bb9291906112a6565b60405180910390a15050565b60008054905090565b6000600660008473ffffffffffffffffffffffffffffffffffffffff1673ffffffffffffffffffffffffffffffffffffffff16815260200190815260200160002060008373ffffffffffffffffffffffffffffffffffffffff1673ffffffffffffffffffffffffffffffffffffffff16815260200190815260200160002054905092915050565b6000600260008373ffffffffffffffffffffffffffffffffffffffff1673ffffffffffffffffffffffffffffffffffffffff16815260200190815260200160002054116105d9576040517f08c379a00000000000000000000000000000000000000000000000000000000081526004016105d090611110565b60405180910390fd5b60006105e5838361082f565b9050600081141561062b576040517f08c379a0000000000000000000000000000000000000000000000000000000008152600401610622906111a2565b60405180910390fd5b80600560008573ffffffffffffffffffffffffffffffffffffffff1673ffffffffffffffffffffffffffffffffffffffff168152602001908152602001600020600082825461067a91906111f1565b9250508190555080600660008573ffffffffffffffffffffffffffffffffffffffff1673ffffffffffffffffffffffffffffffffffffffff16815260200190815260200160002060008473ffffffffffffffffffffffffffffffffffffffff1673ffffffffffffffffffffffffffffffffffffffff16815260200190815260200160002060008282540192505081905550610716838383610a7d565b8273ffffffffffffffffffffffffffffffffffffffff167f3be5b7a71e84ed12875d241991c70855ac5817d847039e17a9d895c1ceb0f18a838360405161075e929190610e61565b60405180910390a2505050565b600060048281548110610781576107806112cf565b5b9060005260206000200160009054906101000a900473ffffffffffffffffffffffffffffffffffffffff169050919050565b6000600360008373ffffffffffffffffffffffffffffffffffffffff1673ffffffffffffffffffffffffffffffffffffffff168152602001908152602001600020549050919050565b60008061080761097f565b4761081291906111f1565b90506108278382610822866107b3565b610b03565b915050919050565b60008061083b84610936565b8473ffffffffffffffffffffffffffffffffffffffff166370a08231306040518263ffffffff1660e01b81526004016108749190611018565b60206040518083038186803b15801561088c57600080fd5b505afa1580156108a0573d6000803e3d6000fd5b505050506040513d601f19601f820116820180604052508101906108c49190611313565b6108ce91906111f1565b90506108e483826108df87876104d0565b610b03565b91505092915050565b6000600260008373ffffffffffffffffffffffffffffffffffffffff1673ffffffffffffffffffffffffffffffffffffffff168152602001908152602001600020549050919050565b6000600560008373ffffffffffffffffffffffffffffffffffffffff1673ffffffffffffffffffffffffffffffffffffffff168152602001908152602001600020549050919050565b6000600154905090565b804710156109cc576040517f08c379a00000000000000000000000000000000000000000000000000000000081526004016109c39061138c565b60405180910390fd5b60008273ffffffffffffffffffffffffffffffffffffffff16826040516109f2906113dd565b60006040518083038185875af1925050503d8060008114610a2f576040519150601f19603f3d011682016040523d82523d6000602084013e610a34565b606091505b5050905080610a78576040517f08c379a0000000000000000000000000000000000000000000000000000000008152600401610a6f90611464565b60405180910390fd5b505050565b610afe8363a9059cbb60e01b8484604051602401610a9c929190610e61565b604051602081830303815290604052907bffffffffffffffffffffffffffffffffffffffffffffffffffffffff19166020820180517bffffffffffffffffffffffffffffffffffffffffffffffffffffffff8381831617835250505050610b71565b505050565b600081600054600260008773ffffffffffffffffffffffffffffffffffffffff1673ffffffffffffffffffffffffffffffffffffffff1681526020019081526020016000205485610b549190611484565b610b5e919061150d565b610b68919061153e565b90509392505050565b6000610bd3826040518060400160405280602081526020017f5361666545524332303a206c6f772d6c6576656c2063616c6c206661696c65648152508573ffffffffffffffffffffffffffffffffffffffff16610c399092919063ffffffff16565b9050600081511480610bf5575080806020019051810190610bf491906115aa565b5b610c34576040517f08c379a0000000000000000000000000000000000000000000000000000000008152600401610c2b90611649565b60405180910390fd5b505050565b6060610c488484600085610c51565b90509392505050565b606082471015610c96576040517f08c379a0000000000000000000000000000000000000000000000000000000008152600401610c8d906116db565b60405180910390fd5b6000808673ffffffffffffffffffffffffffffffffffffffff168587604051610cbf919061176a565b60006040518083038185875af1925050503d8060008114610cfc576040519150601f19603f3d011682016040523d82523d6000602084013e610d01565b606091505b5091509150610d1287838387610d1e565b92505050949350505050565b60608315610d8157600083511415610d7957610d3985610d94565b610d78576040517f08c379a0000000000000000000000000000000000000000000000000000000008152600401610d6f906117cd565b60405180910390fd5b5b829050610d8c565b610d8b8383610db7565b5b949350505050565b6000808273ffffffffffffffffffffffffffffffffffffffff163b119050919050565b600082511115610dca5781518083602001fd5b806040517f08c379a0000000000000000000000000000000000000000000000000000000008152600401610dfe9190611842565b60405180910390fd5b600073ffffffffffffffffffffffffffffffffffffffff82169050919050565b6000610e3282610e07565b9050919050565b610e4281610e27565b82525050565b6000819050919050565b610e5b81610e48565b82525050565b6000604082019050610e766000830185610e39565b610e836020830184610e52565b9392505050565b600080fd5b6000610e9a82610e07565b9050919050565b610eaa81610e8f565b8114610eb557600080fd5b50565b600081359050610ec781610ea1565b92915050565b600060208284031215610ee357610ee2610e8a565b5b6000610ef184828501610eb8565b91505092915050565b6000602082019050610f0f6000830184610e52565b92915050565b6000610f2082610e27565b9050919050565b610f3081610f15565b8114610f3b57600080fd5b50565b600081359050610f4d81610f27565b92915050565b610f5c81610e27565b8114610f6757600080fd5b50565b600081359050610f7981610f53565b92915050565b60008060408385031215610f9657610f95610e8a565b5b6000610fa485828601610f3e565b9250506020610fb585828601610f6a565b9150509250929050565b610fc881610e48565b8114610fd357600080fd5b50565b600081359050610fe581610fbf565b92915050565b60006020828403121561100157611000610e8a565b5b600061100f84828501610fd6565b91505092915050565b600060208201905061102d6000830184610e39565b92915050565b60006020828403121561104957611048610e8a565b5b600061105784828501610f6a565b91505092915050565b60006020828403121561107657611075610e8a565b5b600061108484828501610f3e565b91505092915050565b600082825260208201905092915050565b7f5061796d656e7453706c69747465723a206163636f756e7420686173206e6f2060008201527f7368617265730000000000000000000000000000000000000000000000000000602082015250565b60006110fa60268361108d565b91506111058261109e565b604082019050919050565b60006020820190508181036000830152611129816110ed565b9050919050565b7f5061796d656e7453706c69747465723a206163636f756e74206973206e6f742060008201527f647565207061796d656e74000000000000000000000000000000000000000000602082015250565b600061118c602b8361108d565b915061119782611130565b604082019050919050565b600060208201905081810360008301526111bb8161117f565b9050919050565b7f4e487b7100000000000000000000000000000000000000000000000000000000600052601160045260246000fd5b60006111fc82610e48565b915061120783610e48565b9250827fffffffffffffffffffffffffffffffffffffffffffffffffffffffffffffffff0382111561123c5761123b6111c2565b5b828201905092915050565b6000819050919050565b600061126c61126761126284610e07565b611247565b610e07565b9050919050565b600061127e82611251565b9050919050565b600061129082611273565b9050919050565b6112a081611285565b82525050565b60006040820190506112bb6000830185611297565b6112c86020830184610e52565b9392505050565b7f4e487b7100000000000000000000000000000000000000000000000000000000600052603260045260246000fd5b60008151905061130d81610fbf565b92915050565b60006020828403121561132957611328610e8a565b5b6000611337848285016112fe565b91505092915050565b7f416464726573733a20696e73756666696369656e742062616c616e6365000000600082015250565b6000611376601d8361108d565b915061138182611340565b602082019050919050565b600060208201905081810360008301526113a581611369565b9050919050565b600081905092915050565b50565b60006113c76000836113ac565b91506113d2826113b7565b600082019050919050565b60006113e8826113ba565b9150819050919050565b7f416464726573733a20756e61626c6520746f2073656e642076616c75652c207260008201527f6563697069656e74206d61792068617665207265766572746564000000000000602082015250565b600061144e603a8361108d565b9150611459826113f2565b604082019050919050565b6000602082019050818103600083015261147d81611441565b9050919050565b600061148f82610e48565b915061149a83610e48565b9250817fffffffffffffffffffffffffffffffffffffffffffffffffffffffffffffffff04831182151516156114d3576114d26111c2565b5b828202905092915050565b7f4e487b7100000000000000000000000000000000000000000000000000000000600052601260045260246000fd5b600061151882610e48565b915061152383610e48565b925082611533576115326114de565b5b828204905092915050565b600061154982610e48565b915061155483610e48565b925082821015611567576115666111c2565b5b828203905092915050565b60008115159050919050565b61158781611572565b811461159257600080fd5b50565b6000815190506115a48161157e565b92915050565b6000602082840312156115c0576115bf610e8a565b5b60006115ce84828501611595565b91505092915050565b7f5361666545524332303a204552433230206f7065726174696f6e20646964206e60008201527f6f74207375636365656400000000000000000000000000000000000000000000602082015250565b6000611633602a8361108d565b915061163e826115d7565b604082019050919050565b6000602082019050818103600083015261166281611626565b9050919050565b7f416464726573733a20696e73756666696369656e742062616c616e636520666f60008201527f722063616c6c0000000000000000000000000000000000000000000000000000602082015250565b60006116c560268361108d565b91506116d082611669565b604082019050919050565b600060208201905081810360008301526116f4816116b8565b9050919050565b600081519050919050565b60005b83811015611724578082015181840152602081019050611709565b83811115611733576000848401525b50505050565b6000611744826116fb565b61174e81856113ac565b935061175e818560208601611706565b80840191505092915050565b60006117768284611739565b915081905092915050565b7f416464726573733a2063616c6c20746f206e6f6e2d636f6e7472616374000000600082015250565b60006117b7601d8361108d565b91506117c282611781565b602082019050919050565b600060208201905081810360008301526117e6816117aa565b9050919050565b600081519050919050565b6000601f19601f8301169050919050565b6000611814826117ed565b61181e818561108d565b935061182e818560208601611706565b611837816117f8565b840191505092915050565b6000602082019050818103600083015261185c8184611809565b90509291505056fea2646970667358221220eeac8339e547ef7bccaa854d587c049d8d32de6c7254de8c0c934defdecef5d964736f6c63430008090033",
  "linkReferences": {},
  "deployedLinkReferences": {}
}