{
  "_format": "hh-sol-artifact-1",
  "contractName": "Organizaion",
  "sourceName": "contracts/Organizaion.sol",
  "abi": [
    {
      "inputs": [
        {
          "internalType": "address",
          "name": "root",
          "type": "address"
        }
      ],
      "stateMutability": "nonpayable",
      "type": "constructor"
    },
    {
      "anonymous": false,
      "inputs": [
        {
          "indexed": true,
          "internalType": "address",
          "name": "userAddress",
          "type": "address"
        },
        {
          "indexed": false,
          "internalType": "bytes32",
          "name": "role",
          "type": "bytes32"
        }
      ],
      "name": "RoleAdded",
      "type": "event"
    },
    {
      "anonymous": false,
      "inputs": [
        {
          "indexed": true,
          "internalType": "bytes32",
          "name": "role",
          "type": "bytes32"
        },
        {
          "indexed": true,
          "internalType": "bytes32",
          "name": "previousAdminRole",
          "type": "bytes32"
        },
        {
          "indexed": true,
          "internalType": "bytes32",
          "name": "newAdminRole",
          "type": "bytes32"
        }
      ],
      "name": "RoleAdminChanged",
      "type": "event"
    },
    {
      "anonymous": false,
      "inputs": [
        {
          "indexed": true,
          "internalType": "bytes32",
          "name": "role",
          "type": "bytes32"
        },
        {
          "indexed": true,
          "internalType": "address",
          "name": "account",
          "type": "address"
        },
        {
          "indexed": true,
          "internalType": "address",
          "name": "sender",
          "type": "address"
        }
      ],
      "name": "RoleGranted",
      "type": "event"
    },
    {
      "anonymous": false,
      "inputs": [
        {
          "indexed": true,
          "internalType": "address",
          "name": "userAddress",
          "type": "address"
        },
        {
          "indexed": false,
          "internalType": "bytes32",
          "name": "role",
          "type": "bytes32"
        }
      ],
      "name": "RoleRevoked",
      "type": "event"
    },
    {
      "anonymous": false,
      "inputs": [
        {
          "indexed": true,
          "internalType": "bytes32",
          "name": "role",
          "type": "bytes32"
        },
        {
          "indexed": true,
          "internalType": "address",
          "name": "account",
          "type": "address"
        },
        {
          "indexed": true,
          "internalType": "address",
          "name": "sender",
          "type": "address"
        }
      ],
      "name": "RoleRevoked",
      "type": "event"
    },
    {
      "inputs": [],
      "name": "DEFAULT_ADMIN_ROLE",
      "outputs": [
        {
          "internalType": "bytes32",
          "name": "",
          "type": "bytes32"
        }
      ],
      "stateMutability": "view",
      "type": "function"
    },
    {
      "inputs": [
        {
          "internalType": "address",
          "name": "account",
          "type": "address"
        }
      ],
      "name": "addEmployee",
      "outputs": [],
      "stateMutability": "nonpayable",
      "type": "function"
    },
    {
      "inputs": [
        {
          "internalType": "bytes32",
          "name": "role",
          "type": "bytes32"
        }
      ],
      "name": "getRoleAdmin",
      "outputs": [
        {
          "internalType": "bytes32",
          "name": "",
          "type": "bytes32"
        }
      ],
      "stateMutability": "view",
      "type": "function"
    },
    {
      "inputs": [
        {
          "internalType": "bytes32",
          "name": "role",
          "type": "bytes32"
        },
        {
          "internalType": "address",
          "name": "account",
          "type": "address"
        }
      ],
      "name": "grantRole",
      "outputs": [],
      "stateMutability": "nonpayable",
      "type": "function"
    },
    {
      "inputs": [
        {
          "internalType": "bytes32",
          "name": "role",
          "type": "bytes32"
        },
        {
          "internalType": "address",
          "name": "account",
          "type": "address"
        }
      ],
      "name": "hasRole",
      "outputs": [
        {
          "internalType": "bool",
          "name": "",
          "type": "bool"
        }
      ],
      "stateMutability": "view",
      "type": "function"
    },
    {
      "inputs": [
        {
          "internalType": "address",
          "name": "account",
          "type": "address"
        }
      ],
      "name": "isAdmin",
      "outputs": [
        {
          "internalType": "bool",
          "name": "",
          "type": "bool"
        }
      ],
      "stateMutability": "view",
      "type": "function"
    },
    {
      "inputs": [
        {
          "internalType": "address",
          "name": "account",
          "type": "address"
        }
      ],
      "name": "isEmployee",
      "outputs": [
        {
          "internalType": "bool",
          "name": "",
          "type": "bool"
        }
      ],
      "stateMutability": "view",
      "type": "function"
    },
    {
      "inputs": [
        {
          "internalType": "address",
          "name": "account",
          "type": "address"
        }
      ],
      "name": "removeEmployee",
      "outputs": [],
      "stateMutability": "nonpayable",
      "type": "function"
    },
    {
      "inputs": [
        {
          "internalType": "bytes32",
          "name": "role",
          "type": "bytes32"
        },
        {
          "internalType": "address",
          "name": "account",
          "type": "address"
        }
      ],
      "name": "renounceRole",
      "outputs": [],
      "stateMutability": "nonpayable",
      "type": "function"
    },
    {
      "inputs": [
        {
          "internalType": "bytes32",
          "name": "role",
          "type": "bytes32"
        },
        {
          "internalType": "address",
          "name": "account",
          "type": "address"
        }
      ],
      "name": "revokeRole",
      "outputs": [],
      "stateMutability": "nonpayable",
      "type": "function"
    },
    {
      "inputs": [
        {
          "internalType": "bytes4",
          "name": "interfaceId",
          "type": "bytes4"
        }
      ],
      "name": "supportsInterface",
      "outputs": [
        {
          "internalType": "bool",
          "name": "",
          "type": "bool"
        }
      ],
      "stateMutability": "view",
      "type": "function"
    }
  ],
  "bytecode": "0x60806040523480156200001157600080fd5b506040516200157c3803806200157c8339818101604052810190620000379190620002ed565b6200004c6000801b826200008860201b60201c565b620000817f5a3425ea67e73c95853ecfc0c443062de292a303c186bc2aac1178ae1b86c62a6000801b6200009e60201b60201c565b506200031f565b6200009a82826200010160201b60201c565b5050565b6000620000b183620001f260201b60201c565b905081600080858152602001908152602001600020600101819055508181847fbd79b86ffe0ab8e8776151514217cd7cacd52c909f66475c3af44e129f0b00ff60405160405180910390a4505050565b6200011382826200021160201b60201c565b620001ee57600160008084815260200190815260200160002060000160008373ffffffffffffffffffffffffffffffffffffffff1673ffffffffffffffffffffffffffffffffffffffff16815260200190815260200160002060006101000a81548160ff021916908315150217905550620001936200027b60201b60201c565b73ffffffffffffffffffffffffffffffffffffffff168173ffffffffffffffffffffffffffffffffffffffff16837f2f8788117e7eff1d82e926ec794901d17c78024a50270940304540a733656f0d60405160405180910390a45b5050565b6000806000838152602001908152602001600020600101549050919050565b600080600084815260200190815260200160002060000160008373ffffffffffffffffffffffffffffffffffffffff1673ffffffffffffffffffffffffffffffffffffffff16815260200190815260200160002060009054906101000a900460ff16905092915050565b600033905090565b600080fd5b600073ffffffffffffffffffffffffffffffffffffffff82169050919050565b6000620002b58262000288565b9050919050565b620002c781620002a8565b8114620002d357600080fd5b50565b600081519050620002e781620002bc565b92915050565b60006020828403121562000306576200030562000283565b5b60006200031684828501620002d6565b91505092915050565b61124d806200032f6000396000f3fe608060405234801561001057600080fd5b50600436106100a95760003560e01c806391d148541161007157806391d1485414610176578063a217fddf146101a6578063d108177a146101c4578063d547741f146101e0578063ea66543f146101fc578063f3cb8c311461022c576100a9565b806301ffc9a7146100ae578063248a9ca3146100de57806324d7806c1461010e5780632f2ff15d1461013e57806336568abe1461015a575b600080fd5b6100c860048036038101906100c39190610bb8565b610248565b6040516100d59190610c00565b60405180910390f35b6100f860048036038101906100f39190610c51565b6102c2565b6040516101059190610c8d565b60405180910390f35b61012860048036038101906101239190610d06565b6102e1565b6040516101359190610c00565b60405180910390f35b61015860048036038101906101539190610d33565b6102f7565b005b610174600480360381019061016f9190610d33565b610318565b005b610190600480360381019061018b9190610d33565b61039b565b60405161019d9190610c00565b60405180910390f35b6101ae610405565b6040516101bb9190610c8d565b60405180910390f35b6101de60048036038101906101d99190610d06565b61040c565b005b6101fa60048036038101906101f59190610d33565b6104ef565b005b61021660048036038101906102119190610d06565b610510565b6040516102239190610c00565b60405180910390f35b61024660048036038101906102419190610d06565b610543565b005b60007f7965db0b000000000000000000000000000000000000000000000000000000007bffffffffffffffffffffffffffffffffffffffffffffffffffffffff1916827bffffffffffffffffffffffffffffffffffffffffffffffffffffffff191614806102bb57506102ba82610626565b5b9050919050565b6000806000838152602001908152602001600020600101549050919050565b60006102f06000801b8361039b565b9050919050565b610300826102c2565b61030981610690565b61031383836106a4565b505050565b610320610784565b73ffffffffffffffffffffffffffffffffffffffff168173ffffffffffffffffffffffffffffffffffffffff161461038d576040517f08c379a000000000000000000000000000000000000000000000000000000000815260040161038490610df6565b60405180910390fd5b610397828261078c565b5050565b600080600084815260200190815260200160002060000160008373ffffffffffffffffffffffffffffffffffffffff1673ffffffffffffffffffffffffffffffffffffffff16815260200190815260200160002060009054906101000a900460ff16905092915050565b6000801b81565b610415336102e1565b610454576040517f08c379a000000000000000000000000000000000000000000000000000000000815260040161044b90610e62565b60405180910390fd5b61047e7f5a3425ea67e73c95853ecfc0c443062de292a303c186bc2aac1178ae1b86c62a826104ef565b8073ffffffffffffffffffffffffffffffffffffffff167fea83a7caef01824e96446a8c4bc8ff4669edd99e129b53e32c077f85d21680817f5a3425ea67e73c95853ecfc0c443062de292a303c186bc2aac1178ae1b86c62a6040516104e49190610c8d565b60405180910390a250565b6104f8826102c2565b61050181610690565b61050b838361078c565b505050565b600061053c7f5a3425ea67e73c95853ecfc0c443062de292a303c186bc2aac1178ae1b86c62a8361039b565b9050919050565b61054c336102e1565b61058b576040517f08c379a000000000000000000000000000000000000000000000000000000000815260040161058290610e62565b60405180910390fd5b6105b57f5a3425ea67e73c95853ecfc0c443062de292a303c186bc2aac1178ae1b86c62a826102f7565b8073ffffffffffffffffffffffffffffffffffffffff167faa695d83684b95e18fda4eda7e1794787e74fbc90097a9582f5c41989687883e7f5a3425ea67e73c95853ecfc0c443062de292a303c186bc2aac1178ae1b86c62a60405161061b9190610c8d565b60405180910390a250565b60007f01ffc9a7000000000000000000000000000000000000000000000000000000007bffffffffffffffffffffffffffffffffffffffffffffffffffffffff1916827bffffffffffffffffffffffffffffffffffffffffffffffffffffffff1916149050919050565b6106a18161069c610784565b61086d565b50565b6106ae828261039b565b61078057600160008084815260200190815260200160002060000160008373ffffffffffffffffffffffffffffffffffffffff1673ffffffffffffffffffffffffffffffffffffffff16815260200190815260200160002060006101000a81548160ff021916908315150217905550610725610784565b73ffffffffffffffffffffffffffffffffffffffff168173ffffffffffffffffffffffffffffffffffffffff16837f2f8788117e7eff1d82e926ec794901d17c78024a50270940304540a733656f0d60405160405180910390a45b5050565b600033905090565b610796828261039b565b1561086957600080600084815260200190815260200160002060000160008373ffffffffffffffffffffffffffffffffffffffff1673ffffffffffffffffffffffffffffffffffffffff16815260200190815260200160002060006101000a81548160ff02191690831515021790555061080e610784565b73ffffffffffffffffffffffffffffffffffffffff168173ffffffffffffffffffffffffffffffffffffffff16837ff6391f5c32d9c69d2a47ea670b442974b53935d1edc7fd64eb21e047a839171b60405160405180910390a45b5050565b610877828261039b565b6108ee57610884816108f2565b6108928360001c602061091f565b6040516020016108a3929190610f94565b6040516020818303038152906040526040517f08c379a00000000000000000000000000000000000000000000000000000000081526004016108e59190611018565b60405180910390fd5b5050565b60606109188273ffffffffffffffffffffffffffffffffffffffff16601460ff1661091f565b9050919050565b6060600060028360026109329190611073565b61093c91906110cd565b67ffffffffffffffff81111561095557610954611123565b5b6040519080825280601f01601f1916602001820160405280156109875781602001600182028036833780820191505090505b5090507f3000000000000000000000000000000000000000000000000000000000000000816000815181106109bf576109be611152565b5b60200101907effffffffffffffffffffffffffffffffffffffffffffffffffffffffffffff1916908160001a9053507f780000000000000000000000000000000000000000000000000000000000000081600181518110610a2357610a22611152565b5b60200101907effffffffffffffffffffffffffffffffffffffffffffffffffffffffffffff1916908160001a90535060006001846002610a639190611073565b610a6d91906110cd565b90505b6001811115610b0d577f3031323334353637383961626364656600000000000000000000000000000000600f861660108110610aaf57610aae611152565b5b1a60f81b828281518110610ac657610ac5611152565b5b60200101907effffffffffffffffffffffffffffffffffffffffffffffffffffffffffffff1916908160001a905350600485901c945080610b0690611181565b9050610a70565b5060008414610b51576040517f08c379a0000000000000000000000000000000000000000000000000000000008152600401610b48906111f7565b60405180910390fd5b8091505092915050565b600080fd5b60007fffffffff0000000000000000000000000000000000000000000000000000000082169050919050565b610b9581610b60565b8114610ba057600080fd5b50565b600081359050610bb281610b8c565b92915050565b600060208284031215610bce57610bcd610b5b565b5b6000610bdc84828501610ba3565b91505092915050565b60008115159050919050565b610bfa81610be5565b82525050565b6000602082019050610c156000830184610bf1565b92915050565b6000819050919050565b610c2e81610c1b565b8114610c3957600080fd5b50565b600081359050610c4b81610c25565b92915050565b600060208284031215610c6757610c66610b5b565b5b6000610c7584828501610c3c565b91505092915050565b610c8781610c1b565b82525050565b6000602082019050610ca26000830184610c7e565b92915050565b600073ffffffffffffffffffffffffffffffffffffffff82169050919050565b6000610cd382610ca8565b9050919050565b610ce381610cc8565b8114610cee57600080fd5b50565b600081359050610d0081610cda565b92915050565b600060208284031215610d1c57610d1b610b5b565b5b6000610d2a84828501610cf1565b91505092915050565b60008060408385031215610d4a57610d49610b5b565b5b6000610d5885828601610c3c565b9250506020610d6985828601610cf1565b9150509250929050565b600082825260208201905092915050565b7f416363657373436f6e74726f6c3a2063616e206f6e6c792072656e6f756e636560008201527f20726f6c657320666f722073656c660000000000000000000000000000000000602082015250565b6000610de0602f83610d73565b9150610deb82610d84565b604082019050919050565b60006020820190508181036000830152610e0f81610dd3565b9050919050565b7f5265737472696374656420746f2061646d696e2e000000000000000000000000600082015250565b6000610e4c601483610d73565b9150610e5782610e16565b602082019050919050565b60006020820190508181036000830152610e7b81610e3f565b9050919050565b600081905092915050565b7f416363657373436f6e74726f6c3a206163636f756e7420000000000000000000600082015250565b6000610ec3601783610e82565b9150610ece82610e8d565b601782019050919050565b600081519050919050565b60005b83811015610f02578082015181840152602081019050610ee7565b83811115610f11576000848401525b50505050565b6000610f2282610ed9565b610f2c8185610e82565b9350610f3c818560208601610ee4565b80840191505092915050565b7f206973206d697373696e6720726f6c6520000000000000000000000000000000600082015250565b6000610f7e601183610e82565b9150610f8982610f48565b601182019050919050565b6000610f9f82610eb6565b9150610fab8285610f17565b9150610fb682610f71565b9150610fc28284610f17565b91508190509392505050565b6000601f19601f8301169050919050565b6000610fea82610ed9565b610ff48185610d73565b9350611004818560208601610ee4565b61100d81610fce565b840191505092915050565b600060208201905081810360008301526110328184610fdf565b905092915050565b6000819050919050565b7f4e487b7100000000000000000000000000000000000000000000000000000000600052601160045260246000fd5b600061107e8261103a565b91506110898361103a565b9250817fffffffffffffffffffffffffffffffffffffffffffffffffffffffffffffffff04831182151516156110c2576110c1611044565b5b828202905092915050565b60006110d88261103a565b91506110e38361103a565b9250827fffffffffffffffffffffffffffffffffffffffffffffffffffffffffffffffff0382111561111857611117611044565b5b828201905092915050565b7f4e487b7100000000000000000000000000000000000000000000000000000000600052604160045260246000fd5b7f4e487b7100000000000000000000000000000000000000000000000000000000600052603260045260246000fd5b600061118c8261103a565b915060008214156111a05761119f611044565b5b600182039050919050565b7f537472696e67733a20686578206c656e67746820696e73756666696369656e74600082015250565b60006111e1602083610d73565b91506111ec826111ab565b602082019050919050565b60006020820190508181036000830152611210816111d4565b905091905056fea26469706673582212208a726255f594804558feb21bff136a0d2dd17b221b52db0134f9436ef0bed29364736f6c63430008090033",
  "linkReferences": {},
  "deployedLinkReferences": {}
}