{
  "_format": "hh-sol-artifact-1",
  "contractName": "Organizaion",
  "sourceName": "contracts/Organizaion.sol",
  "abi": [
    {
      "inputs": [
        {
          "internalType": "address",
          "name": "root",
          "type": "address"
        }
      ],
      "stateMutability": "nonpayable",
      "type": "constructor"
    },
    {
      "anonymous": false,
      "inputs": [
        {
          "indexed": true,
          "internalType": "address",
          "name": "userAddress",
          "type": "address"
        },
        {
          "indexed": false,
          "internalType": "bytes32",
          "name": "role",
          "type": "bytes32"
        }
      ],
      "name": "RoleAdded",
      "type": "event"
    },
    {
      "anonymous": false,
      "inputs": [
        {
          "indexed": true,
          "internalType": "bytes32",
          "name": "role",
          "type": "bytes32"
        },
        {
          "indexed": true,
          "internalType": "bytes32",
          "name": "previousAdminRole",
          "type": "bytes32"
        },
        {
          "indexed": true,
          "internalType": "bytes32",
          "name": "newAdminRole",
          "type": "bytes32"
        }
      ],
      "name": "RoleAdminChanged",
      "type": "event"
    },
    {
      "anonymous": false,
      "inputs": [
        {
          "indexed": true,
          "internalType": "bytes32",
          "name": "role",
          "type": "bytes32"
        },
        {
          "indexed": true,
          "internalType": "address",
          "name": "account",
          "type": "address"
        },
        {
          "indexed": true,
          "internalType": "address",
          "name": "sender",
          "type": "address"
        }
      ],
      "name": "RoleGranted",
      "type": "event"
    },
    {
      "anonymous": false,
      "inputs": [
        {
          "indexed": true,
          "internalType": "address",
          "name": "userAddress",
          "type": "address"
        },
        {
          "indexed": false,
          "internalType": "bytes32",
          "name": "role",
          "type": "bytes32"
        }
      ],
      "name": "RoleRevoked",
      "type": "event"
    },
    {
      "anonymous": false,
      "inputs": [
        {
          "indexed": true,
          "internalType": "bytes32",
          "name": "role",
          "type": "bytes32"
        },
        {
          "indexed": true,
          "internalType": "address",
          "name": "account",
          "type": "address"
        },
        {
          "indexed": true,
          "internalType": "address",
          "name": "sender",
          "type": "address"
        }
      ],
      "name": "RoleRevoked",
      "type": "event"
    },
    {
      "inputs": [],
      "name": "DEFAULT_ADMIN_ROLE",
      "outputs": [
        {
          "internalType": "bytes32",
          "name": "",
          "type": "bytes32"
        }
      ],
      "stateMutability": "view",
      "type": "function"
    },
    {
      "inputs": [
        {
          "internalType": "address",
          "name": "account",
          "type": "address"
        }
      ],
      "name": "addEmployee",
      "outputs": [],
      "stateMutability": "nonpayable",
      "type": "function"
    },
    {
      "inputs": [
        {
          "internalType": "bytes32",
          "name": "role",
          "type": "bytes32"
        }
      ],
      "name": "getRoleAdmin",
      "outputs": [
        {
          "internalType": "bytes32",
          "name": "",
          "type": "bytes32"
        }
      ],
      "stateMutability": "view",
      "type": "function"
    },
    {
      "inputs": [
        {
          "internalType": "bytes32",
          "name": "role",
          "type": "bytes32"
        },
        {
          "internalType": "address",
          "name": "account",
          "type": "address"
        }
      ],
      "name": "grantRole",
      "outputs": [],
      "stateMutability": "nonpayable",
      "type": "function"
    },
    {
      "inputs": [
        {
          "internalType": "bytes32",
          "name": "role",
          "type": "bytes32"
        },
        {
          "internalType": "address",
          "name": "account",
          "type": "address"
        }
      ],
      "name": "hasRole",
      "outputs": [
        {
          "internalType": "bool",
          "name": "",
          "type": "bool"
        }
      ],
      "stateMutability": "view",
      "type": "function"
    },
    {
      "inputs": [
        {
          "internalType": "address",
          "name": "account",
          "type": "address"
        }
      ],
      "name": "isAdmin",
      "outputs": [
        {
          "internalType": "bool",
          "name": "",
          "type": "bool"
        }
      ],
      "stateMutability": "view",
      "type": "function"
    },
    {
      "inputs": [
        {
          "internalType": "address",
          "name": "account",
          "type": "address"
        }
      ],
      "name": "isEmployee",
      "outputs": [
        {
          "internalType": "bool",
          "name": "",
          "type": "bool"
        }
      ],
      "stateMutability": "view",
      "type": "function"
    },
    {
      "inputs": [
        {
          "internalType": "address",
          "name": "account",
          "type": "address"
        }
      ],
      "name": "removeEmployee",
      "outputs": [],
      "stateMutability": "nonpayable",
      "type": "function"
    },
    {
      "inputs": [
        {
          "internalType": "bytes32",
          "name": "role",
          "type": "bytes32"
        },
        {
          "internalType": "address",
          "name": "account",
          "type": "address"
        }
      ],
      "name": "renounceRole",
      "outputs": [],
      "stateMutability": "nonpayable",
      "type": "function"
    },
    {
      "inputs": [
        {
          "internalType": "bytes32",
          "name": "role",
          "type": "bytes32"
        },
        {
          "internalType": "address",
          "name": "account",
          "type": "address"
        }
      ],
      "name": "revokeRole",
      "outputs": [],
      "stateMutability": "nonpayable",
      "type": "function"
    },
    {
      "inputs": [
        {
          "internalType": "bytes4",
          "name": "interfaceId",
          "type": "bytes4"
        }
      ],
      "name": "supportsInterface",
      "outputs": [
        {
          "internalType": "bool",
          "name": "",
          "type": "bool"
        }
      ],
      "stateMutability": "view",
      "type": "function"
    }
  ],
  "bytecode": "0x608060405234801561001057600080fd5b50604051610c4a380380610c4a83398101604081905261002f91610162565b61003a60008261006b565b6100657f5a3425ea67e73c95853ecfc0c443062de292a303c186bc2aac1178ae1b86c62a6000610079565b50610192565b61007582826100c4565b5050565b600082815260208190526040808220600101805490849055905190918391839186917fbd79b86ffe0ab8e8776151514217cd7cacd52c909f66475c3af44e129f0b00ff9190a4505050565b6000828152602081815260408083206001600160a01b038516845290915290205460ff16610075576000828152602081815260408083206001600160a01b03851684529091529020805460ff1916600117905561011e3390565b6001600160a01b0316816001600160a01b0316837f2f8788117e7eff1d82e926ec794901d17c78024a50270940304540a733656f0d60405160405180910390a45050565b60006020828403121561017457600080fd5b81516001600160a01b038116811461018b57600080fd5b9392505050565b610aa9806101a16000396000f3fe608060405234801561001057600080fd5b50600436106100b95760003560e01c806391d1485411610081578063d547741f1161005b578063d547741f146101a4578063ea66543f146101b7578063f3cb8c31146101ca57600080fd5b806391d1485414610152578063a217fddf14610189578063d108177a1461019157600080fd5b806301ffc9a7146100be578063248a9ca3146100e657806324d7806c146101175780632f2ff15d1461012a57806336568abe1461013f575b600080fd5b6100d16100cc366004610865565b6101dd565b60405190151581526020015b60405180910390f35b6101096100f436600461088f565b60009081526020819052604090206001015490565b6040519081526020016100dd565b6100d16101253660046108c4565b610214565b61013d6101383660046108df565b610254565b005b61013d61014d3660046108df565b61027e565b6100d16101603660046108df565b6000918252602082815260408084206001600160a01b0393909316845291905290205460ff1690565b610109600081565b61013d61019f3660046108c4565b610301565b61013d6101b23660046108df565b6103dd565b6100d16101c53660046108c4565b610402565b61013d6101d83660046108c4565b610442565b60006001600160e01b03198216637965db0b60e01b148061020e57506301ffc9a760e01b6001600160e01b03198316145b92915050565b6001600160a01b03811660009081527fad3228b676f7d3cd4284a5443f17f1962b36e491b30a40b2405849e597ba5fb5602052604081205460ff1661020e565b60008281526020819052604090206001015461026f81610513565b6102798383610520565b505050565b6001600160a01b03811633146102f35760405162461bcd60e51b815260206004820152602f60248201527f416363657373436f6e74726f6c3a2063616e206f6e6c792072656e6f756e636560448201526e103937b632b9903337b91039b2b63360891b60648201526084015b60405180910390fd5b6102fd82826105be565b5050565b61030a33610214565b61034d5760405162461bcd60e51b81526020600482015260146024820152732932b9ba3934b1ba32b2103a379030b236b4b71760611b60448201526064016102ea565b6103777f5a3425ea67e73c95853ecfc0c443062de292a303c186bc2aac1178ae1b86c62a826103dd565b806001600160a01b03167fea83a7caef01824e96446a8c4bc8ff4669edd99e129b53e32c077f85d21680817f5a3425ea67e73c95853ecfc0c443062de292a303c186bc2aac1178ae1b86c62a6040516103d291815260200190565b60405180910390a250565b6000828152602081905260409020600101546103f881610513565b61027983836105be565b6001600160a01b03811660009081527f7859a94baa94829fcc245b7ff1854b60efd65daf0966ed82492401168584c4b1602052604081205460ff1661020e565b61044b33610214565b61048e5760405162461bcd60e51b81526020600482015260146024820152732932b9ba3934b1ba32b2103a379030b236b4b71760611b60448201526064016102ea565b6104b87f5a3425ea67e73c95853ecfc0c443062de292a303c186bc2aac1178ae1b86c62a82610254565b806001600160a01b03167faa695d83684b95e18fda4eda7e1794787e74fbc90097a9582f5c41989687883e7f5a3425ea67e73c95853ecfc0c443062de292a303c186bc2aac1178ae1b86c62a6040516103d291815260200190565b61051d813361063d565b50565b6000828152602081815260408083206001600160a01b038516845290915290205460ff166102fd576000828152602081815260408083206001600160a01b03851684529091529020805460ff1916600117905561057a3390565b6001600160a01b0316816001600160a01b0316837f2f8788117e7eff1d82e926ec794901d17c78024a50270940304540a733656f0d60405160405180910390a45050565b6000828152602081815260408083206001600160a01b038516845290915290205460ff16156102fd576000828152602081815260408083206001600160a01b0385168085529252808320805460ff1916905551339285917ff6391f5c32d9c69d2a47ea670b442974b53935d1edc7fd64eb21e047a839171b9190a45050565b6000828152602081815260408083206001600160a01b038516845290915290205460ff166102fd5761066e816106b0565b6106798360206106c2565b60405160200161068a92919061093b565b60408051601f198184030181529082905262461bcd60e51b82526102ea916004016109b0565b606061020e6001600160a01b03831660145b606060006106d18360026109f9565b6106dc906002610a18565b67ffffffffffffffff8111156106f4576106f4610a30565b6040519080825280601f01601f19166020018201604052801561071e576020820181803683370190505b509050600360fc1b8160008151811061073957610739610a46565b60200101906001600160f81b031916908160001a905350600f60fb1b8160018151811061076857610768610a46565b60200101906001600160f81b031916908160001a905350600061078c8460026109f9565b610797906001610a18565b90505b600181111561080f576f181899199a1a9b1b9c1cb0b131b232b360811b85600f16601081106107cb576107cb610a46565b1a60f81b8282815181106107e1576107e1610a46565b60200101906001600160f81b031916908160001a90535060049490941c9361080881610a5c565b905061079a565b50831561085e5760405162461bcd60e51b815260206004820181905260248201527f537472696e67733a20686578206c656e67746820696e73756666696369656e7460448201526064016102ea565b9392505050565b60006020828403121561087757600080fd5b81356001600160e01b03198116811461085e57600080fd5b6000602082840312156108a157600080fd5b5035919050565b80356001600160a01b03811681146108bf57600080fd5b919050565b6000602082840312156108d657600080fd5b61085e826108a8565b600080604083850312156108f257600080fd5b82359150610902602084016108a8565b90509250929050565b60005b8381101561092657818101518382015260200161090e565b83811115610935576000848401525b50505050565b7f416363657373436f6e74726f6c3a206163636f756e742000000000000000000081526000835161097381601785016020880161090b565b7001034b99036b4b9b9b4b733903937b6329607d1b60179184019182015283516109a481602884016020880161090b565b01602801949350505050565b60208152600082518060208401526109cf81604085016020870161090b565b601f01601f19169190910160400192915050565b634e487b7160e01b600052601160045260246000fd5b6000816000190483118215151615610a1357610a136109e3565b500290565b60008219821115610a2b57610a2b6109e3565b500190565b634e487b7160e01b600052604160045260246000fd5b634e487b7160e01b600052603260045260246000fd5b600081610a6b57610a6b6109e3565b50600019019056fea26469706673582212209a110f4625d0a4983e39b46382816529e77e93dc39e54777307d0289060c4d8964736f6c63430008090033",
  "linkReferences": {},
  "deployedLinkReferences": {}
}