{
  "_format": "hh-sol-artifact-1",
  "contractName": "ERC1155NFTToken",
  "sourceName": "contracts/ERC1155NFTToken.sol",
  "abi": [
    {
      "inputs": [],
      "stateMutability": "nonpayable",
      "type": "constructor"
    },
    {
      "inputs": [
        {
          "internalType": "address",
          "name": "sender",
          "type": "address"
        },
        {
          "internalType": "uint256",
          "name": "balance",
          "type": "uint256"
        },
        {
          "internalType": "uint256",
          "name": "needed",
          "type": "uint256"
        },
        {
          "internalType": "uint256",
          "name": "tokenId",
          "type": "uint256"
        }
      ],
      "name": "ERC1155InsufficientBalance",
      "type": "error"
    },
    {
      "inputs": [
        {
          "internalType": "address",
          "name": "approver",
          "type": "address"
        }
      ],
      "name": "ERC1155InvalidApprover",
      "type": "error"
    },
    {
      "inputs": [
        {
          "internalType": "uint256",
          "name": "idsLength",
          "type": "uint256"
        },
        {
          "internalType": "uint256",
          "name": "valuesLength",
          "type": "uint256"
        }
      ],
      "name": "ERC1155InvalidArrayLength",
      "type": "error"
    },
    {
      "inputs": [
        {
          "internalType": "address",
          "name": "operator",
          "type": "address"
        }
      ],
      "name": "ERC1155InvalidOperator",
      "type": "error"
    },
    {
      "inputs": [
        {
          "internalType": "address",
          "name": "receiver",
          "type": "address"
        }
      ],
      "name": "ERC1155InvalidReceiver",
      "type": "error"
    },
    {
      "inputs": [
        {
          "internalType": "address",
          "name": "sender",
          "type": "address"
        }
      ],
      "name": "ERC1155InvalidSender",
      "type": "error"
    },
    {
      "inputs": [
        {
          "internalType": "address",
          "name": "operator",
          "type": "address"
        },
        {
          "internalType": "address",
          "name": "owner",
          "type": "address"
        }
      ],
      "name": "ERC1155MissingApprovalForAll",
      "type": "error"
    },
    {
      "anonymous": false,
      "inputs": [
        {
          "indexed": true,
          "internalType": "address",
          "name": "account",
          "type": "address"
        },
        {
          "indexed": true,
          "internalType": "address",
          "name": "operator",
          "type": "address"
        },
        {
          "indexed": false,
          "internalType": "bool",
          "name": "approved",
          "type": "bool"
        }
      ],
      "name": "ApprovalForAll",
      "type": "event"
    },
    {
      "anonymous": false,
      "inputs": [
        {
          "indexed": true,
          "internalType": "address",
          "name": "operator",
          "type": "address"
        },
        {
          "indexed": true,
          "internalType": "address",
          "name": "from",
          "type": "address"
        },
        {
          "indexed": true,
          "internalType": "address",
          "name": "to",
          "type": "address"
        },
        {
          "indexed": false,
          "internalType": "uint256[]",
          "name": "ids",
          "type": "uint256[]"
        },
        {
          "indexed": false,
          "internalType": "uint256[]",
          "name": "values",
          "type": "uint256[]"
        }
      ],
      "name": "TransferBatch",
      "type": "event"
    },
    {
      "anonymous": false,
      "inputs": [
        {
          "indexed": true,
          "internalType": "address",
          "name": "operator",
          "type": "address"
        },
        {
          "indexed": true,
          "internalType": "address",
          "name": "from",
          "type": "address"
        },
        {
          "indexed": true,
          "internalType": "address",
          "name": "to",
          "type": "address"
        },
        {
          "indexed": false,
          "internalType": "uint256",
          "name": "id",
          "type": "uint256"
        },
        {
          "indexed": false,
          "internalType": "uint256",
          "name": "value",
          "type": "uint256"
        }
      ],
      "name": "TransferSingle",
      "type": "event"
    },
    {
      "anonymous": false,
      "inputs": [
        {
          "indexed": false,
          "internalType": "string",
          "name": "value",
          "type": "string"
        },
        {
          "indexed": true,
          "internalType": "uint256",
          "name": "id",
          "type": "uint256"
        }
      ],
      "name": "URI",
      "type": "event"
    },
    {
      "inputs": [],
      "name": "Finchwing",
      "outputs": [
        {
          "internalType": "uint256",
          "name": "",
          "type": "uint256"
        }
      ],
      "stateMutability": "view",
      "type": "function"
    },
    {
      "inputs": [],
      "name": "GirlAndBird",
      "outputs": [
        {
          "internalType": "uint256",
          "name": "",
          "type": "uint256"
        }
      ],
      "stateMutability": "view",
      "type": "function"
    },
    {
      "inputs": [],
      "name": "Kitty",
      "outputs": [
        {
          "internalType": "uint256",
          "name": "",
          "type": "uint256"
        }
      ],
      "stateMutability": "view",
      "type": "function"
    },
    {
      "inputs": [],
      "name": "MargayCat",
      "outputs": [
        {
          "internalType": "uint256",
          "name": "",
          "type": "uint256"
        }
      ],
      "stateMutability": "view",
      "type": "function"
    },
    {
      "inputs": [],
      "name": "MomentOfSilence",
      "outputs": [
        {
          "internalType": "uint256",
          "name": "",
          "type": "uint256"
        }
      ],
      "stateMutability": "view",
      "type": "function"
    },
    {
      "inputs": [],
      "name": "Nighthill",
      "outputs": [
        {
          "internalType": "uint256",
          "name": "",
          "type": "uint256"
        }
      ],
      "stateMutability": "view",
      "type": "function"
    },
    {
      "inputs": [],
      "name": "Storm",
      "outputs": [
        {
          "internalType": "uint256",
          "name": "",
          "type": "uint256"
        }
      ],
      "stateMutability": "view",
      "type": "function"
    },
    {
      "inputs": [
        {
          "internalType": "address",
          "name": "account",
          "type": "address"
        },
        {
          "internalType": "uint256",
          "name": "id",
          "type": "uint256"
        }
      ],
      "name": "balanceOf",
      "outputs": [
        {
          "internalType": "uint256",
          "name": "",
          "type": "uint256"
        }
      ],
      "stateMutability": "view",
      "type": "function"
    },
    {
      "inputs": [
        {
          "internalType": "address[]",
          "name": "accounts",
          "type": "address[]"
        },
        {
          "internalType": "uint256[]",
          "name": "ids",
          "type": "uint256[]"
        }
      ],
      "name": "balanceOfBatch",
      "outputs": [
        {
          "internalType": "uint256[]",
          "name": "",
          "type": "uint256[]"
        }
      ],
      "stateMutability": "view",
      "type": "function"
    },
    {
      "inputs": [
        {
          "internalType": "address",
          "name": "account",
          "type": "address"
        },
        {
          "internalType": "address",
          "name": "operator",
          "type": "address"
        }
      ],
      "name": "isApprovedForAll",
      "outputs": [
        {
          "internalType": "bool",
          "name": "",
          "type": "bool"
        }
      ],
      "stateMutability": "view",
      "type": "function"
    },
    {
      "inputs": [
        {
          "internalType": "address",
          "name": "from",
          "type": "address"
        },
        {
          "internalType": "address",
          "name": "to",
          "type": "address"
        },
        {
          "internalType": "uint256[]",
          "name": "ids",
          "type": "uint256[]"
        },
        {
          "internalType": "uint256[]",
          "name": "values",
          "type": "uint256[]"
        },
        {
          "internalType": "bytes",
          "name": "data",
          "type": "bytes"
        }
      ],
      "name": "safeBatchTransferFrom",
      "outputs": [],
      "stateMutability": "nonpayable",
      "type": "function"
    },
    {
      "inputs": [
        {
          "internalType": "address",
          "name": "from",
          "type": "address"
        },
        {
          "internalType": "address",
          "name": "to",
          "type": "address"
        },
        {
          "internalType": "uint256",
          "name": "id",
          "type": "uint256"
        },
        {
          "internalType": "uint256",
          "name": "value",
          "type": "uint256"
        },
        {
          "internalType": "bytes",
          "name": "data",
          "type": "bytes"
        }
      ],
      "name": "safeTransferFrom",
      "outputs": [],
      "stateMutability": "nonpayable",
      "type": "function"
    },
    {
      "inputs": [
        {
          "internalType": "address",
          "name": "operator",
          "type": "address"
        },
        {
          "internalType": "bool",
          "name": "approved",
          "type": "bool"
        }
      ],
      "name": "setApprovalForAll",
      "outputs": [],
      "stateMutability": "nonpayable",
      "type": "function"
    },
    {
      "inputs": [
        {
          "internalType": "bytes4",
          "name": "interfaceId",
          "type": "bytes4"
        }
      ],
      "name": "supportsInterface",
      "outputs": [
        {
          "internalType": "bool",
          "name": "",
          "type": "bool"
        }
      ],
      "stateMutability": "view",
      "type": "function"
    },
    {
      "inputs": [
        {
          "internalType": "uint256",
          "name": "",
          "type": "uint256"
        }
      ],
      "name": "uri",
      "outputs": [
        {
          "internalType": "string",
          "name": "",
          "type": "string"
        }
      ],
      "stateMutability": "view",
      "type": "function"
    }
  ],
  "bytecode": "0x60806040523480156200001157600080fd5b506040518060800160405280605a81526020016200334e605a91396200003d816200014760201b60201c565b5062000063336000600a604051806020016040528060008152506200015c60201b60201c565b62000088336001600a604051806020016040528060008152506200015c60201b60201c565b620000ad336002600a604051806020016040528060008152506200015c60201b60201c565b620000d2336003600a604051806020016040528060008152506200015c60201b60201c565b620000f7336004600a604051806020016040528060008152506200015c60201b60201c565b6200011c336005600a604051806020016040528060008152506200015c60201b60201c565b62000141336006600a604051806020016040528060008152506200015c60201b60201c565b62001297565b806002908162000158919062000cff565b5050565b600073ffffffffffffffffffffffffffffffffffffffff168473ffffffffffffffffffffffffffffffffffffffff1603620001d15760006040517f57f447ce000000000000000000000000000000000000000000000000000000008152600401620001c8919062000e2b565b60405180910390fd5b600080620001e685856200020860201b60201c565b91509150620002006000878484876200023860201b60201c565b505050505050565b60608060405191506001825283602083015260408201905060018152826020820152604081016040529250929050565b6200024c858585856200031160201b60201c565b600073ffffffffffffffffffffffffffffffffffffffff168473ffffffffffffffffffffffffffffffffffffffff16146200030a57600062000293620006e360201b60201c565b90506001845103620002f1576000620002b7600086620006eb60201b90919060201c565b90506000620002d1600086620006eb60201b90919060201c565b9050620002e9838989858589620006ff60201b60201c565b505062000308565b62000307818787878787620008c260201b60201c565b5b505b5050505050565b80518251146200035e57815181516040517f5b0599910000000000000000000000000000000000000000000000000000000081526004016200035592919062000e59565b60405180910390fd5b600062000370620006e360201b60201c565b905060005b835181101562000594576000620003968286620006eb60201b90919060201c565b90506000620003af8386620006eb60201b90919060201c565b9050600073ffffffffffffffffffffffffffffffffffffffff168873ffffffffffffffffffffffffffffffffffffffff1614620004e057600080600084815260200190815260200160002060008a73ffffffffffffffffffffffffffffffffffffffff1673ffffffffffffffffffffffffffffffffffffffff168152602001908152602001600020549050818110156200048857888183856040517f03dee4c50000000000000000000000000000000000000000000000000000000081526004016200047f949392919062000e86565b60405180910390fd5b81810360008085815260200190815260200160002060008b73ffffffffffffffffffffffffffffffffffffffff1673ffffffffffffffffffffffffffffffffffffffff16815260200190815260200160002081905550505b600073ffffffffffffffffffffffffffffffffffffffff168773ffffffffffffffffffffffffffffffffffffffff16146200057e578060008084815260200190815260200160002060008973ffffffffffffffffffffffffffffffffffffffff1673ffffffffffffffffffffffffffffffffffffffff168152602001908152602001600020600082825462000576919062000f02565b925050819055505b5050806200058c9062000f3d565b905062000375565b5060018351036200065b576000620005b7600085620006eb60201b90919060201c565b90506000620005d1600085620006eb60201b90919060201c565b90508573ffffffffffffffffffffffffffffffffffffffff168773ffffffffffffffffffffffffffffffffffffffff168473ffffffffffffffffffffffffffffffffffffffff167fc3d58168c5ae7397731d063d5bbf3d657854427343f4c083240f7aacaa2d0f6285856040516200064b92919062000e59565b60405180910390a45050620006dc565b8373ffffffffffffffffffffffffffffffffffffffff168573ffffffffffffffffffffffffffffffffffffffff168273ffffffffffffffffffffffffffffffffffffffff167f4a39dc06d4c0dbc64b70af90fd698a233a518aa5d07e595d983b8c0526c8f7fb8686604051620006d392919062001058565b60405180910390a45b5050505050565b600033905090565b600060208202602084010151905092915050565b60008473ffffffffffffffffffffffffffffffffffffffff163b1115620008ba578373ffffffffffffffffffffffffffffffffffffffff1663f23a6e6187878686866040518663ffffffff1660e01b8152600401620007639594939291906200112d565b6020604051808303816000875af1925050508015620007a257506040513d601f19601f820116820180604052508101906200079f9190620011f3565b60015b6200082c573d8060008114620007d5576040519150601f19603f3d011682016040523d82523d6000602084013e620007da565b606091505b5060008151036200082457846040517f57f447ce0000000000000000000000000000000000000000000000000000000081526004016200081b919062000e2b565b60405180910390fd5b805181602001fd5b63f23a6e6160e01b7bffffffffffffffffffffffffffffffffffffffffffffffffffffffff1916817bffffffffffffffffffffffffffffffffffffffffffffffffffffffff191614620008b857846040517f57f447ce000000000000000000000000000000000000000000000000000000008152600401620008af919062000e2b565b60405180910390fd5b505b505050505050565b60008473ffffffffffffffffffffffffffffffffffffffff163b111562000a7d578373ffffffffffffffffffffffffffffffffffffffff1663bc197c8187878686866040518663ffffffff1660e01b81526004016200092695949392919062001225565b6020604051808303816000875af19250505080156200096557506040513d601f19601f82011682018060405250810190620009629190620011f3565b60015b620009ef573d806000811462000998576040519150601f19603f3d011682016040523d82523d6000602084013e6200099d565b606091505b506000815103620009e757846040517f57f447ce000000000000000000000000000000000000000000000000000000008152600401620009de919062000e2b565b60405180910390fd5b805181602001fd5b63bc197c8160e01b7bffffffffffffffffffffffffffffffffffffffffffffffffffffffff1916817bffffffffffffffffffffffffffffffffffffffffffffffffffffffff19161462000a7b57846040517f57f447ce00000000000000000000000000000000000000000000000000000000815260040162000a72919062000e2b565b60405180910390fd5b505b505050505050565b600081519050919050565b7f4e487b7100000000000000000000000000000000000000000000000000000000600052604160045260246000fd5b7f4e487b7100000000000000000000000000000000000000000000000000000000600052602260045260246000fd5b6000600282049050600182168062000b0757607f821691505b60208210810362000b1d5762000b1c62000abf565b5b50919050565b60008190508160005260206000209050919050565b60006020601f8301049050919050565b600082821b905092915050565b60006008830262000b877fffffffffffffffffffffffffffffffffffffffffffffffffffffffffffffffff8262000b48565b62000b93868362000b48565b95508019841693508086168417925050509392505050565b6000819050919050565b6000819050919050565b600062000be062000bda62000bd48462000bab565b62000bb5565b62000bab565b9050919050565b6000819050919050565b62000bfc8362000bbf565b62000c1462000c0b8262000be7565b84845462000b55565b825550505050565b600090565b62000c2b62000c1c565b62000c3881848462000bf1565b505050565b5b8181101562000c605762000c5460008262000c21565b60018101905062000c3e565b5050565b601f82111562000caf5762000c798162000b23565b62000c848462000b38565b8101602085101562000c94578190505b62000cac62000ca38562000b38565b83018262000c3d565b50505b505050565b600082821c905092915050565b600062000cd46000198460080262000cb4565b1980831691505092915050565b600062000cef838362000cc1565b9150826002028217905092915050565b62000d0a8262000a85565b67ffffffffffffffff81111562000d265762000d2562000a90565b5b62000d32825462000aee565b62000d3f82828562000c64565b600060209050601f83116001811462000d77576000841562000d62578287015190505b62000d6e858262000ce1565b86555062000dde565b601f19841662000d878662000b23565b60005b8281101562000db15784890151825560018201915060208501945060208101905062000d8a565b8683101562000dd1578489015162000dcd601f89168262000cc1565b8355505b6001600288020188555050505b505050505050565b600073ffffffffffffffffffffffffffffffffffffffff82169050919050565b600062000e138262000de6565b9050919050565b62000e258162000e06565b82525050565b600060208201905062000e42600083018462000e1a565b92915050565b62000e538162000bab565b82525050565b600060408201905062000e70600083018562000e48565b62000e7f602083018462000e48565b9392505050565b600060808201905062000e9d600083018762000e1a565b62000eac602083018662000e48565b62000ebb604083018562000e48565b62000eca606083018462000e48565b95945050505050565b7f4e487b7100000000000000000000000000000000000000000000000000000000600052601160045260246000fd5b600062000f0f8262000bab565b915062000f1c8362000bab565b925082820190508082111562000f375762000f3662000ed3565b5b92915050565b600062000f4a8262000bab565b91507fffffffffffffffffffffffffffffffffffffffffffffffffffffffffffffffff820362000f7f5762000f7e62000ed3565b5b600182019050919050565b600081519050919050565b600082825260208201905092915050565b6000819050602082019050919050565b62000fc18162000bab565b82525050565b600062000fd5838362000fb6565b60208301905092915050565b6000602082019050919050565b600062000ffb8262000f8a565b62001007818562000f95565b9350620010148362000fa6565b8060005b838110156200104b5781516200102f888262000fc7565b97506200103c8362000fe1565b92505060018101905062001018565b5085935050505092915050565b6000604082019050818103600083015262001074818562000fee565b905081810360208301526200108a818462000fee565b90509392505050565b600081519050919050565b600082825260208201905092915050565b60005b83811015620010cf578082015181840152602081019050620010b2565b60008484015250505050565b6000601f19601f8301169050919050565b6000620010f98262001093565b6200110581856200109e565b935062001117818560208601620010af565b6200112281620010db565b840191505092915050565b600060a08201905062001144600083018862000e1a565b62001153602083018762000e1a565b62001162604083018662000e48565b62001171606083018562000e48565b8181036080830152620011858184620010ec565b90509695505050505050565b600080fd5b60007fffffffff0000000000000000000000000000000000000000000000000000000082169050919050565b620011cd8162001196565b8114620011d957600080fd5b50565b600081519050620011ed81620011c2565b92915050565b6000602082840312156200120c576200120b62001191565b5b60006200121c84828501620011dc565b91505092915050565b600060a0820190506200123c600083018862000e1a565b6200124b602083018762000e1a565b81810360408301526200125f818662000fee565b9050818103606083015262001275818562000fee565b905081810360808301526200128b8184620010ec565b90509695505050505050565b6120a780620012a76000396000f3fe608060405234801561001057600080fd5b50600436106100f45760003560e01c80636e2efd6311610097578063cabbaea011610066578063cabbaea014610287578063e0a31032146102a5578063e985e9c5146102c3578063f242432a146102f3576100f4565b80636e2efd631461021157806379b13ff01461022f5780639ecf0e2c1461024d578063a22cb4651461026b576100f4565b80631082873a116100d35780631082873a146101895780632eb2c2d6146101a75780634e1273f4146101c35780634fceaf78146101f3576100f4565b8062fdd58e146100f957806301ffc9a7146101295780630e89341c14610159575b600080fd5b610113600480360381019061010e91906114b8565b61030f565b6040516101209190611507565b60405180910390f35b610143600480360381019061013e919061157a565b610369565b60405161015091906115c2565b60405180910390f35b610173600480360381019061016e91906115dd565b61044b565b604051610180919061169a565b60405180910390f35b6101916104df565b60405161019e9190611507565b60405180910390f35b6101c160048036038101906101bc91906118b9565b6104e4565b005b6101dd60048036038101906101d89190611a4b565b61058c565b6040516101ea9190611b81565b60405180910390f35b6101fb61069b565b6040516102089190611507565b60405180910390f35b6102196106a0565b6040516102269190611507565b60405180910390f35b6102376106a5565b6040516102449190611507565b60405180910390f35b6102556106aa565b6040516102629190611507565b60405180910390f35b61028560048036038101906102809190611bcf565b6106af565b005b61028f6106c5565b60405161029c9190611507565b60405180910390f35b6102ad6106ca565b6040516102ba9190611507565b60405180910390f35b6102dd60048036038101906102d89190611c0f565b6106cf565b6040516102ea91906115c2565b60405180910390f35b61030d60048036038101906103089190611c4f565b610763565b005b600080600083815260200190815260200160002060008473ffffffffffffffffffffffffffffffffffffffff1673ffffffffffffffffffffffffffffffffffffffff16815260200190815260200160002054905092915050565b60007fd9b67a26000000000000000000000000000000000000000000000000000000007bffffffffffffffffffffffffffffffffffffffffffffffffffffffff1916827bffffffffffffffffffffffffffffffffffffffffffffffffffffffff1916148061043457507f0e89341c000000000000000000000000000000000000000000000000000000007bffffffffffffffffffffffffffffffffffffffffffffffffffffffff1916827bffffffffffffffffffffffffffffffffffffffffffffffffffffffff1916145b8061044457506104438261080b565b5b9050919050565b60606002805461045a90611d15565b80601f016020809104026020016040519081016040528092919081815260200182805461048690611d15565b80156104d35780601f106104a8576101008083540402835291602001916104d3565b820191906000526020600020905b8154815290600101906020018083116104b657829003601f168201915b50505050509050919050565b600481565b60006104ee610875565b90508073ffffffffffffffffffffffffffffffffffffffff168673ffffffffffffffffffffffffffffffffffffffff1614158015610533575061053186826106cf565b155b156105775780866040517fe237d92200000000000000000000000000000000000000000000000000000000815260040161056e929190611d55565b60405180910390fd5b610584868686868661087d565b505050505050565b606081518351146105d857815183516040517f5b0599910000000000000000000000000000000000000000000000000000000081526004016105cf929190611d7e565b60405180910390fd5b6000835167ffffffffffffffff8111156105f5576105f46116c1565b5b6040519080825280602002602001820160405280156106235781602001602082028036833780820191505090505b50905060005b845181101561069057610660610648828761097590919063ffffffff16565b61065b838761098990919063ffffffff16565b61030f565b82828151811061067357610672611da7565b5b6020026020010181815250508061068990611e05565b9050610629565b508091505092915050565b600081565b600281565b600681565b600581565b6106c16106ba610875565b838361099d565b5050565b600381565b600181565b6000600160008473ffffffffffffffffffffffffffffffffffffffff1673ffffffffffffffffffffffffffffffffffffffff16815260200190815260200160002060008373ffffffffffffffffffffffffffffffffffffffff1673ffffffffffffffffffffffffffffffffffffffff16815260200190815260200160002060009054906101000a900460ff16905092915050565b600061076d610875565b90508073ffffffffffffffffffffffffffffffffffffffff168673ffffffffffffffffffffffffffffffffffffffff16141580156107b257506107b086826106cf565b155b156107f65780866040517fe237d9220000000000000000000000000000000000000000000000000000000081526004016107ed929190611d55565b60405180910390fd5b6108038686868686610b0d565b505050505050565b60007f01ffc9a7000000000000000000000000000000000000000000000000000000007bffffffffffffffffffffffffffffffffffffffffffffffffffffffff1916827bffffffffffffffffffffffffffffffffffffffffffffffffffffffff1916149050919050565b600033905090565b600073ffffffffffffffffffffffffffffffffffffffff168473ffffffffffffffffffffffffffffffffffffffff16036108ef5760006040517f57f447ce0000000000000000000000000000000000000000000000000000000081526004016108e69190611e4d565b60405180910390fd5b600073ffffffffffffffffffffffffffffffffffffffff168573ffffffffffffffffffffffffffffffffffffffff16036109615760006040517f01a835140000000000000000000000000000000000000000000000000000000081526004016109589190611e4d565b60405180910390fd5b61096e8585858585610c18565b5050505050565b600060208202602084010151905092915050565b600060208202602084010151905092915050565b600073ffffffffffffffffffffffffffffffffffffffff168273ffffffffffffffffffffffffffffffffffffffff1603610a0f5760006040517fced3e100000000000000000000000000000000000000000000000000000000008152600401610a069190611e4d565b60405180910390fd5b80600160008573ffffffffffffffffffffffffffffffffffffffff1673ffffffffffffffffffffffffffffffffffffffff16815260200190815260200160002060008473ffffffffffffffffffffffffffffffffffffffff1673ffffffffffffffffffffffffffffffffffffffff16815260200190815260200160002060006101000a81548160ff0219169083151502179055508173ffffffffffffffffffffffffffffffffffffffff168373ffffffffffffffffffffffffffffffffffffffff167f17307eab39ab6107e8899845ad3d59bd9653f200f220920489ca2b5937696c3183604051610b0091906115c2565b60405180910390a3505050565b600073ffffffffffffffffffffffffffffffffffffffff168473ffffffffffffffffffffffffffffffffffffffff1603610b7f5760006040517f57f447ce000000000000000000000000000000000000000000000000000000008152600401610b769190611e4d565b60405180910390fd5b600073ffffffffffffffffffffffffffffffffffffffff168573ffffffffffffffffffffffffffffffffffffffff1603610bf15760006040517f01a83514000000000000000000000000000000000000000000000000000000008152600401610be89190611e4d565b60405180910390fd5b600080610bfe8585610cca565b91509150610c0f8787848487610c18565b50505050505050565b610c2485858585610cfa565b600073ffffffffffffffffffffffffffffffffffffffff168473ffffffffffffffffffffffffffffffffffffffff1614610cc3576000610c62610875565b90506001845103610cb2576000610c8360008661098990919063ffffffff16565b90506000610c9b60008661098990919063ffffffff16565b9050610cab8389898585896110a8565b5050610cc1565b610cc081878787878761125c565b5b505b5050505050565b60608060405191506001825283602083015260408201905060018152826020820152604081016040529250929050565b8051825114610d4457815181516040517f5b059991000000000000000000000000000000000000000000000000000000008152600401610d3b929190611d7e565b60405180910390fd5b6000610d4e610875565b905060005b8351811015610f63576000610d71828661098990919063ffffffff16565b90506000610d88838661098990919063ffffffff16565b9050600073ffffffffffffffffffffffffffffffffffffffff168873ffffffffffffffffffffffffffffffffffffffff1614610eb557600080600084815260200190815260200160002060008a73ffffffffffffffffffffffffffffffffffffffff1673ffffffffffffffffffffffffffffffffffffffff16815260200190815260200160002054905081811015610e5d57888183856040517f03dee4c5000000000000000000000000000000000000000000000000000000008152600401610e549493929190611e68565b60405180910390fd5b81810360008085815260200190815260200160002060008b73ffffffffffffffffffffffffffffffffffffffff1673ffffffffffffffffffffffffffffffffffffffff16815260200190815260200160002081905550505b600073ffffffffffffffffffffffffffffffffffffffff168773ffffffffffffffffffffffffffffffffffffffff1614610f50578060008084815260200190815260200160002060008973ffffffffffffffffffffffffffffffffffffffff1673ffffffffffffffffffffffffffffffffffffffff1681526020019081526020016000206000828254610f489190611ead565b925050819055505b505080610f5c90611e05565b9050610d53565b506001835103611022576000610f8360008561098990919063ffffffff16565b90506000610f9b60008561098990919063ffffffff16565b90508573ffffffffffffffffffffffffffffffffffffffff168773ffffffffffffffffffffffffffffffffffffffff168473ffffffffffffffffffffffffffffffffffffffff167fc3d58168c5ae7397731d063d5bbf3d657854427343f4c083240f7aacaa2d0f628585604051611013929190611d7e565b60405180910390a450506110a1565b8373ffffffffffffffffffffffffffffffffffffffff168573ffffffffffffffffffffffffffffffffffffffff168273ffffffffffffffffffffffffffffffffffffffff167f4a39dc06d4c0dbc64b70af90fd698a233a518aa5d07e595d983b8c0526c8f7fb8686604051611098929190611ee1565b60405180910390a45b5050505050565b60008473ffffffffffffffffffffffffffffffffffffffff163b1115611254578373ffffffffffffffffffffffffffffffffffffffff1663f23a6e6187878686866040518663ffffffff1660e01b8152600401611109959493929190611f6d565b6020604051808303816000875af192505050801561114557506040513d601f19601f820116820180604052508101906111429190611fdc565b60015b6111c9573d8060008114611175576040519150601f19603f3d011682016040523d82523d6000602084013e61117a565b606091505b5060008151036111c157846040517f57f447ce0000000000000000000000000000000000000000000000000000000081526004016111b89190611e4d565b60405180910390fd5b805181602001fd5b63f23a6e6160e01b7bffffffffffffffffffffffffffffffffffffffffffffffffffffffff1916817bffffffffffffffffffffffffffffffffffffffffffffffffffffffff19161461125257846040517f57f447ce0000000000000000000000000000000000000000000000000000000081526004016112499190611e4d565b60405180910390fd5b505b505050505050565b60008473ffffffffffffffffffffffffffffffffffffffff163b1115611408578373ffffffffffffffffffffffffffffffffffffffff1663bc197c8187878686866040518663ffffffff1660e01b81526004016112bd959493929190612009565b6020604051808303816000875af19250505080156112f957506040513d601f19601f820116820180604052508101906112f69190611fdc565b60015b61137d573d8060008114611329576040519150601f19603f3d011682016040523d82523d6000602084013e61132e565b606091505b50600081510361137557846040517f57f447ce00000000000000000000000000000000000000000000000000000000815260040161136c9190611e4d565b60405180910390fd5b805181602001fd5b63bc197c8160e01b7bffffffffffffffffffffffffffffffffffffffffffffffffffffffff1916817bffffffffffffffffffffffffffffffffffffffffffffffffffffffff19161461140657846040517f57f447ce0000000000000000000000000000000000000000000000000000000081526004016113fd9190611e4d565b60405180910390fd5b505b505050505050565b6000604051905090565b600080fd5b600080fd5b600073ffffffffffffffffffffffffffffffffffffffff82169050919050565b600061144f82611424565b9050919050565b61145f81611444565b811461146a57600080fd5b50565b60008135905061147c81611456565b92915050565b6000819050919050565b61149581611482565b81146114a057600080fd5b50565b6000813590506114b28161148c565b92915050565b600080604083850312156114cf576114ce61141a565b5b60006114dd8582860161146d565b92505060206114ee858286016114a3565b9150509250929050565b61150181611482565b82525050565b600060208201905061151c60008301846114f8565b92915050565b60007fffffffff0000000000000000000000000000000000000000000000000000000082169050919050565b61155781611522565b811461156257600080fd5b50565b6000813590506115748161154e565b92915050565b6000602082840312156115905761158f61141a565b5b600061159e84828501611565565b91505092915050565b60008115159050919050565b6115bc816115a7565b82525050565b60006020820190506115d760008301846115b3565b92915050565b6000602082840312156115f3576115f261141a565b5b6000611601848285016114a3565b91505092915050565b600081519050919050565b600082825260208201905092915050565b60005b83811015611644578082015181840152602081019050611629565b60008484015250505050565b6000601f19601f8301169050919050565b600061166c8261160a565b6116768185611615565b9350611686818560208601611626565b61168f81611650565b840191505092915050565b600060208201905081810360008301526116b48184611661565b905092915050565b600080fd5b7f4e487b7100000000000000000000000000000000000000000000000000000000600052604160045260246000fd5b6116f982611650565b810181811067ffffffffffffffff82111715611718576117176116c1565b5b80604052505050565b600061172b611410565b905061173782826116f0565b919050565b600067ffffffffffffffff821115611757576117566116c1565b5b602082029050602081019050919050565b600080fd5b600061178061177b8461173c565b611721565b905080838252602082019050602084028301858111156117a3576117a2611768565b5b835b818110156117cc57806117b888826114a3565b8452602084019350506020810190506117a5565b5050509392505050565b600082601f8301126117eb576117ea6116bc565b5b81356117fb84826020860161176d565b91505092915050565b600080fd5b600067ffffffffffffffff821115611824576118236116c1565b5b61182d82611650565b9050602081019050919050565b82818337600083830152505050565b600061185c61185784611809565b611721565b90508281526020810184848401111561187857611877611804565b5b61188384828561183a565b509392505050565b600082601f8301126118a05761189f6116bc565b5b81356118b0848260208601611849565b91505092915050565b600080600080600060a086880312156118d5576118d461141a565b5b60006118e38882890161146d565b95505060206118f48882890161146d565b945050604086013567ffffffffffffffff8111156119155761191461141f565b5b611921888289016117d6565b935050606086013567ffffffffffffffff8111156119425761194161141f565b5b61194e888289016117d6565b925050608086013567ffffffffffffffff81111561196f5761196e61141f565b5b61197b8882890161188b565b9150509295509295909350565b600067ffffffffffffffff8211156119a3576119a26116c1565b5b602082029050602081019050919050565b60006119c76119c284611988565b611721565b905080838252602082019050602084028301858111156119ea576119e9611768565b5b835b81811015611a1357806119ff888261146d565b8452602084019350506020810190506119ec565b5050509392505050565b600082601f830112611a3257611a316116bc565b5b8135611a428482602086016119b4565b91505092915050565b60008060408385031215611a6257611a6161141a565b5b600083013567ffffffffffffffff811115611a8057611a7f61141f565b5b611a8c85828601611a1d565b925050602083013567ffffffffffffffff811115611aad57611aac61141f565b5b611ab9858286016117d6565b9150509250929050565b600081519050919050565b600082825260208201905092915050565b6000819050602082019050919050565b611af881611482565b82525050565b6000611b0a8383611aef565b60208301905092915050565b6000602082019050919050565b6000611b2e82611ac3565b611b388185611ace565b9350611b4383611adf565b8060005b83811015611b74578151611b5b8882611afe565b9750611b6683611b16565b925050600181019050611b47565b5085935050505092915050565b60006020820190508181036000830152611b9b8184611b23565b905092915050565b611bac816115a7565b8114611bb757600080fd5b50565b600081359050611bc981611ba3565b92915050565b60008060408385031215611be657611be561141a565b5b6000611bf48582860161146d565b9250506020611c0585828601611bba565b9150509250929050565b60008060408385031215611c2657611c2561141a565b5b6000611c348582860161146d565b9250506020611c458582860161146d565b9150509250929050565b600080600080600060a08688031215611c6b57611c6a61141a565b5b6000611c798882890161146d565b9550506020611c8a8882890161146d565b9450506040611c9b888289016114a3565b9350506060611cac888289016114a3565b925050608086013567ffffffffffffffff811115611ccd57611ccc61141f565b5b611cd98882890161188b565b9150509295509295909350565b7f4e487b7100000000000000000000000000000000000000000000000000000000600052602260045260246000fd5b60006002820490506001821680611d2d57607f821691505b602082108103611d4057611d3f611ce6565b5b50919050565b611d4f81611444565b82525050565b6000604082019050611d6a6000830185611d46565b611d776020830184611d46565b9392505050565b6000604082019050611d9360008301856114f8565b611da060208301846114f8565b9392505050565b7f4e487b7100000000000000000000000000000000000000000000000000000000600052603260045260246000fd5b7f4e487b7100000000000000000000000000000000000000000000000000000000600052601160045260246000fd5b6000611e1082611482565b91507fffffffffffffffffffffffffffffffffffffffffffffffffffffffffffffffff8203611e4257611e41611dd6565b5b600182019050919050565b6000602082019050611e626000830184611d46565b92915050565b6000608082019050611e7d6000830187611d46565b611e8a60208301866114f8565b611e9760408301856114f8565b611ea460608301846114f8565b95945050505050565b6000611eb882611482565b9150611ec383611482565b9250828201905080821115611edb57611eda611dd6565b5b92915050565b60006040820190508181036000830152611efb8185611b23565b90508181036020830152611f0f8184611b23565b90509392505050565b600081519050919050565b600082825260208201905092915050565b6000611f3f82611f18565b611f498185611f23565b9350611f59818560208601611626565b611f6281611650565b840191505092915050565b600060a082019050611f826000830188611d46565b611f8f6020830187611d46565b611f9c60408301866114f8565b611fa960608301856114f8565b8181036080830152611fbb8184611f34565b90509695505050505050565b600081519050611fd68161154e565b92915050565b600060208284031215611ff257611ff161141a565b5b600061200084828501611fc7565b91505092915050565b600060a08201905061201e6000830188611d46565b61202b6020830187611d46565b818103604083015261203d8186611b23565b905081810360608301526120518185611b23565b905081810360808301526120658184611f34565b9050969550505050505056fea2646970667358221220db7ba2d6a50ef53005476982a477466c2655105dbb71c0d1af39d2b59ba5054c64736f6c6343000814003368747470733a2f2f697066732e696f2f697066732f6261667962656966636174666b78376a6568636965696d34756a75663672696e376a7163716a6b71776476747261337374706e64676d7a6e79646d2f7b69647d2e6a736f6e",
  "linkReferences": {},
  "deployedLinkReferences": {}
}